{
  "_format": "hh-sol-artifact-1",
  "contractName": "Collateral",
  "sourceName": "contracts/Collateral.sol",
  "abi": [
    {
      "inputs": [],
      "payable": false,
      "stateMutability": "nonpayable",
      "type": "constructor"
    },
    {
      "anonymous": false,
      "inputs": [
        {
          "indexed": true,
          "internalType": "address",
          "name": "owner",
          "type": "address"
        },
        {
          "indexed": true,
          "internalType": "address",
          "name": "spender",
          "type": "address"
        },
        {
          "indexed": false,
          "internalType": "uint256",
          "name": "value",
          "type": "uint256"
        }
      ],
      "name": "Approval",
      "type": "event"
    },
    {
      "anonymous": false,
      "inputs": [
        {
          "indexed": true,
          "internalType": "address",
          "name": "sender",
          "type": "address"
        },
        {
          "indexed": true,
          "internalType": "address",
          "name": "minter",
          "type": "address"
        },
        {
          "indexed": false,
          "internalType": "uint256",
          "name": "mintAmount",
          "type": "uint256"
        },
        {
          "indexed": false,
          "internalType": "uint256",
          "name": "mintTokens",
          "type": "uint256"
        }
      ],
      "name": "Mint",
      "type": "event"
    },
    {
      "anonymous": false,
      "inputs": [
        {
          "indexed": false,
          "internalType": "uint256",
          "name": "newLiquidationIncentive",
          "type": "uint256"
        }
      ],
      "name": "NewLiquidationIncentive",
      "type": "event"
    },
    {
      "anonymous": false,
      "inputs": [
        {
          "indexed": false,
          "internalType": "uint256",
          "name": "newSafetyMarginSqrt",
          "type": "uint256"
        }
      ],
      "name": "NewSafetyMargin",
      "type": "event"
    },
    {
      "anonymous": false,
      "inputs": [
        {
          "indexed": true,
          "internalType": "address",
          "name": "sender",
          "type": "address"
        },
        {
          "indexed": true,
          "internalType": "address",
          "name": "redeemer",
          "type": "address"
        },
        {
          "indexed": false,
          "internalType": "uint256",
          "name": "redeemAmount",
          "type": "uint256"
        },
        {
          "indexed": false,
          "internalType": "uint256",
          "name": "redeemTokens",
          "type": "uint256"
        }
      ],
      "name": "Redeem",
      "type": "event"
    },
    {
      "anonymous": false,
      "inputs": [
        {
          "indexed": false,
          "internalType": "uint256",
          "name": "totalBalance",
          "type": "uint256"
        }
      ],
      "name": "Sync",
      "type": "event"
    },
    {
      "anonymous": false,
      "inputs": [
        {
          "indexed": true,
          "internalType": "address",
          "name": "from",
          "type": "address"
        },
        {
          "indexed": true,
          "internalType": "address",
          "name": "to",
          "type": "address"
        },
        {
          "indexed": false,
          "internalType": "uint256",
          "name": "value",
          "type": "uint256"
        }
      ],
      "name": "Transfer",
      "type": "event"
    },
    {
      "constant": true,
      "inputs": [],
      "name": "DOMAIN_SEPARATOR",
      "outputs": [
        {
          "internalType": "bytes32",
          "name": "",
          "type": "bytes32"
        }
      ],
      "payable": false,
      "stateMutability": "view",
      "type": "function"
    },
    {
      "constant": true,
      "inputs": [],
      "name": "LIQUIDATION_INCENTIVE_MAX",
      "outputs": [
        {
          "internalType": "uint256",
          "name": "",
          "type": "uint256"
        }
      ],
      "payable": false,
      "stateMutability": "view",
      "type": "function"
    },
    {
      "constant": true,
      "inputs": [],
      "name": "LIQUIDATION_INCENTIVE_MIN",
      "outputs": [
        {
          "internalType": "uint256",
          "name": "",
          "type": "uint256"
        }
      ],
      "payable": false,
      "stateMutability": "view",
      "type": "function"
    },
    {
      "constant": true,
      "inputs": [],
      "name": "MINIMUM_LIQUIDITY",
      "outputs": [
        {
          "internalType": "uint256",
          "name": "",
          "type": "uint256"
        }
      ],
      "payable": false,
      "stateMutability": "view",
      "type": "function"
    },
    {
      "constant": true,
      "inputs": [],
      "name": "PERMIT_TYPEHASH",
      "outputs": [
        {
          "internalType": "bytes32",
          "name": "",
          "type": "bytes32"
        }
      ],
      "payable": false,
      "stateMutability": "view",
      "type": "function"
    },
    {
      "constant": true,
      "inputs": [],
      "name": "SAFETY_MARGIN_SQRT_MAX",
      "outputs": [
        {
          "internalType": "uint256",
          "name": "",
          "type": "uint256"
        }
      ],
      "payable": false,
      "stateMutability": "view",
      "type": "function"
    },
    {
      "constant": true,
      "inputs": [],
      "name": "SAFETY_MARGIN_SQRT_MIN",
      "outputs": [
        {
          "internalType": "uint256",
          "name": "",
          "type": "uint256"
        }
      ],
      "payable": false,
      "stateMutability": "view",
      "type": "function"
    },
    {
      "constant": false,
      "inputs": [
        {
          "internalType": "string",
          "name": "_name",
          "type": "string"
        },
        {
          "internalType": "string",
          "name": "_symbol",
          "type": "string"
        },
        {
          "internalType": "address",
          "name": "_underlying",
          "type": "address"
        },
        {
          "internalType": "address",
          "name": "_borrowable0",
          "type": "address"
        },
        {
          "internalType": "address",
          "name": "_borrowable1",
          "type": "address"
        }
      ],
      "name": "_initialize",
      "outputs": [],
      "payable": false,
      "stateMutability": "nonpayable",
      "type": "function"
    },
    {
      "constant": false,
      "inputs": [],
      "name": "_setFactory",
      "outputs": [],
      "payable": false,
      "stateMutability": "nonpayable",
      "type": "function"
    },
    {
      "constant": false,
      "inputs": [
        {
          "internalType": "uint256",
          "name": "newLiquidationIncentive",
          "type": "uint256"
        }
      ],
      "name": "_setLiquidationIncentive",
      "outputs": [],
      "payable": false,
      "stateMutability": "nonpayable",
      "type": "function"
    },
    {
      "constant": false,
      "inputs": [
        {
          "internalType": "uint256",
          "name": "newSafetyMarginSqrt",
          "type": "uint256"
        }
      ],
      "name": "_setSafetyMarginSqrt",
      "outputs": [],
      "payable": false,
      "stateMutability": "nonpayable",
      "type": "function"
    },
    {
      "constant": false,
      "inputs": [
        {
          "internalType": "address",
          "name": "borrower",
          "type": "address"
        }
      ],
      "name": "accountLiquidity",
      "outputs": [
        {
          "internalType": "uint256",
          "name": "liquidity",
          "type": "uint256"
        },
        {
          "internalType": "uint256",
          "name": "shortfall",
          "type": "uint256"
        }
      ],
      "payable": false,
      "stateMutability": "nonpayable",
      "type": "function"
    },
    {
      "constant": false,
      "inputs": [
        {
          "internalType": "address",
          "name": "borrower",
          "type": "address"
        },
        {
          "internalType": "uint256",
          "name": "amount0",
          "type": "uint256"
        },
        {
          "internalType": "uint256",
          "name": "amount1",
          "type": "uint256"
        }
      ],
      "name": "accountLiquidityAmounts",
      "outputs": [
        {
          "internalType": "uint256",
          "name": "liquidity",
          "type": "uint256"
        },
        {
          "internalType": "uint256",
          "name": "shortfall",
          "type": "uint256"
        }
      ],
      "payable": false,
      "stateMutability": "nonpayable",
      "type": "function"
    },
    {
      "constant": true,
      "inputs": [
        {
          "internalType": "address",
          "name": "",
          "type": "address"
        },
        {
          "internalType": "address",
          "name": "",
          "type": "address"
        }
      ],
      "name": "allowance",
      "outputs": [
        {
          "internalType": "uint256",
          "name": "",
          "type": "uint256"
        }
      ],
      "payable": false,
      "stateMutability": "view",
      "type": "function"
    },
    {
      "constant": false,
      "inputs": [
        {
          "internalType": "address",
          "name": "spender",
          "type": "address"
        },
        {
          "internalType": "uint256",
          "name": "value",
          "type": "uint256"
        }
      ],
      "name": "approve",
      "outputs": [
        {
          "internalType": "bool",
          "name": "",
          "type": "bool"
        }
      ],
      "payable": false,
      "stateMutability": "nonpayable",
      "type": "function"
    },
    {
      "constant": true,
      "inputs": [
        {
          "internalType": "address",
          "name": "",
          "type": "address"
        }
      ],
      "name": "balanceOf",
      "outputs": [
        {
          "internalType": "uint256",
          "name": "",
          "type": "uint256"
        }
      ],
      "payable": false,
      "stateMutability": "view",
      "type": "function"
    },
    {
      "constant": true,
      "inputs": [],
      "name": "borrowable0",
      "outputs": [
        {
          "internalType": "address",
          "name": "",
          "type": "address"
        }
      ],
      "payable": false,
      "stateMutability": "view",
      "type": "function"
    },
    {
      "constant": true,
      "inputs": [],
      "name": "borrowable1",
      "outputs": [
        {
          "internalType": "address",
          "name": "",
          "type": "address"
        }
      ],
      "payable": false,
      "stateMutability": "view",
      "type": "function"
    },
    {
      "constant": false,
      "inputs": [
        {
          "internalType": "address",
          "name": "borrower",
          "type": "address"
        },
        {
          "internalType": "address",
          "name": "borrowable",
          "type": "address"
        },
        {
          "internalType": "uint256",
          "name": "accountBorrows",
          "type": "uint256"
        }
      ],
      "name": "canBorrow",
      "outputs": [
        {
          "internalType": "bool",
          "name": "",
          "type": "bool"
        }
      ],
      "payable": false,
      "stateMutability": "nonpayable",
      "type": "function"
    },
    {
      "constant": true,
      "inputs": [],
      "name": "decimals",
      "outputs": [
        {
          "internalType": "uint8",
          "name": "",
          "type": "uint8"
        }
      ],
      "payable": false,
      "stateMutability": "view",
      "type": "function"
    },
    {
      "constant": true,
      "inputs": [],
      "name": "eleosPriceOracle",
      "outputs": [
        {
          "internalType": "address",
          "name": "",
          "type": "address"
        }
      ],
      "payable": false,
      "stateMutability": "view",
      "type": "function"
    },
    {
      "constant": false,
      "inputs": [],
      "name": "exchangeRate",
      "outputs": [
        {
          "internalType": "uint256",
          "name": "",
          "type": "uint256"
        }
      ],
      "payable": false,
      "stateMutability": "nonpayable",
      "type": "function"
    },
    {
      "constant": true,
      "inputs": [],
      "name": "factory",
      "outputs": [
        {
          "internalType": "address",
          "name": "",
          "type": "address"
        }
      ],
      "payable": false,
      "stateMutability": "view",
      "type": "function"
    },
    {
      "constant": false,
      "inputs": [
        {
          "internalType": "address",
          "name": "redeemer",
          "type": "address"
        },
        {
          "internalType": "uint256",
          "name": "redeemAmount",
          "type": "uint256"
        },
        {
          "internalType": "bytes",
          "name": "data",
          "type": "bytes"
        }
      ],
      "name": "flashRedeem",
      "outputs": [],
      "payable": false,
      "stateMutability": "nonpayable",
      "type": "function"
    },
    {
      "constant": false,
      "inputs": [],
      "name": "getPrices",
      "outputs": [
        {
          "internalType": "uint256",
          "name": "price0",
          "type": "uint256"
        },
        {
          "internalType": "uint256",
          "name": "price1",
          "type": "uint256"
        }
      ],
      "payable": false,
      "stateMutability": "nonpayable",
      "type": "function"
    },
    {
      "constant": true,
      "inputs": [],
      "name": "liquidationIncentive",
      "outputs": [
        {
          "internalType": "uint256",
          "name": "",
          "type": "uint256"
        }
      ],
      "payable": false,
      "stateMutability": "view",
      "type": "function"
    },
    {
      "constant": false,
      "inputs": [
        {
          "internalType": "address",
          "name": "minter",
          "type": "address"
        }
      ],
      "name": "mint",
      "outputs": [
        {
          "internalType": "uint256",
          "name": "mintTokens",
          "type": "uint256"
        }
      ],
      "payable": false,
      "stateMutability": "nonpayable",
      "type": "function"
    },
    {
      "constant": true,
      "inputs": [],
      "name": "name",
      "outputs": [
        {
          "internalType": "string",
          "name": "",
          "type": "string"
        }
      ],
      "payable": false,
      "stateMutability": "view",
      "type": "function"
    },
    {
      "constant": true,
      "inputs": [
        {
          "internalType": "address",
          "name": "",
          "type": "address"
        }
      ],
      "name": "nonces",
      "outputs": [
        {
          "internalType": "uint256",
          "name": "",
          "type": "uint256"
        }
      ],
      "payable": false,
      "stateMutability": "view",
      "type": "function"
    },
    {
      "constant": false,
      "inputs": [
        {
          "internalType": "address",
          "name": "owner",
          "type": "address"
        },
        {
          "internalType": "address",
          "name": "spender",
          "type": "address"
        },
        {
          "internalType": "uint256",
          "name": "value",
          "type": "uint256"
        },
        {
          "internalType": "uint256",
          "name": "deadline",
          "type": "uint256"
        },
        {
          "internalType": "uint8",
          "name": "v",
          "type": "uint8"
        },
        {
          "internalType": "bytes32",
          "name": "r",
          "type": "bytes32"
        },
        {
          "internalType": "bytes32",
          "name": "s",
          "type": "bytes32"
        }
      ],
      "name": "permit",
      "outputs": [],
      "payable": false,
      "stateMutability": "nonpayable",
      "type": "function"
    },
    {
      "constant": false,
      "inputs": [
        {
          "internalType": "address",
          "name": "redeemer",
          "type": "address"
        }
      ],
      "name": "redeem",
      "outputs": [
        {
          "internalType": "uint256",
          "name": "redeemAmount",
          "type": "uint256"
        }
      ],
      "payable": false,
      "stateMutability": "nonpayable",
      "type": "function"
    },
    {
      "constant": true,
      "inputs": [],
      "name": "safetyMarginSqrt",
      "outputs": [
        {
          "internalType": "uint256",
          "name": "",
          "type": "uint256"
        }
      ],
      "payable": false,
      "stateMutability": "view",
      "type": "function"
    },
    {
      "constant": false,
      "inputs": [
        {
          "internalType": "address",
          "name": "liquidator",
          "type": "address"
        },
        {
          "internalType": "address",
          "name": "borrower",
          "type": "address"
        },
        {
          "internalType": "uint256",
          "name": "repayAmount",
          "type": "uint256"
        }
      ],
      "name": "seize",
      "outputs": [
        {
          "internalType": "uint256",
          "name": "seizeTokens",
          "type": "uint256"
        }
      ],
      "payable": false,
      "stateMutability": "nonpayable",
      "type": "function"
    },
    {
      "constant": false,
      "inputs": [
        {
          "internalType": "address",
          "name": "to",
          "type": "address"
        }
      ],
      "name": "skim",
      "outputs": [],
      "payable": false,
      "stateMutability": "nonpayable",
      "type": "function"
    },
    {
      "constant": true,
      "inputs": [],
      "name": "symbol",
      "outputs": [
        {
          "internalType": "string",
          "name": "",
          "type": "string"
        }
      ],
      "payable": false,
      "stateMutability": "view",
      "type": "function"
    },
    {
      "constant": false,
      "inputs": [],
      "name": "sync",
      "outputs": [],
      "payable": false,
      "stateMutability": "nonpayable",
      "type": "function"
    },
    {
      "constant": false,
      "inputs": [
        {
          "internalType": "address",
          "name": "from",
          "type": "address"
        },
        {
          "internalType": "uint256",
          "name": "value",
          "type": "uint256"
        }
      ],
      "name": "tokensUnlocked",
      "outputs": [
        {
          "internalType": "bool",
          "name": "",
          "type": "bool"
        }
      ],
      "payable": false,
      "stateMutability": "nonpayable",
      "type": "function"
    },
    {
      "constant": true,
      "inputs": [],
      "name": "totalBalance",
      "outputs": [
        {
          "internalType": "uint256",
          "name": "",
          "type": "uint256"
        }
      ],
      "payable": false,
      "stateMutability": "view",
      "type": "function"
    },
    {
      "constant": true,
      "inputs": [],
      "name": "totalSupply",
      "outputs": [
        {
          "internalType": "uint256",
          "name": "",
          "type": "uint256"
        }
      ],
      "payable": false,
      "stateMutability": "view",
      "type": "function"
    },
    {
      "constant": false,
      "inputs": [
        {
          "internalType": "address",
          "name": "to",
          "type": "address"
        },
        {
          "internalType": "uint256",
          "name": "value",
          "type": "uint256"
        }
      ],
      "name": "transfer",
      "outputs": [
        {
          "internalType": "bool",
          "name": "",
          "type": "bool"
        }
      ],
      "payable": false,
      "stateMutability": "nonpayable",
      "type": "function"
    },
    {
      "constant": false,
      "inputs": [
        {
          "internalType": "address",
          "name": "from",
          "type": "address"
        },
        {
          "internalType": "address",
          "name": "to",
          "type": "address"
        },
        {
          "internalType": "uint256",
          "name": "value",
          "type": "uint256"
        }
      ],
      "name": "transferFrom",
      "outputs": [
        {
          "internalType": "bool",
          "name": "",
          "type": "bool"
        }
      ],
      "payable": false,
      "stateMutability": "nonpayable",
      "type": "function"
    },
    {
      "constant": true,
      "inputs": [],
      "name": "underlying",
      "outputs": [
        {
          "internalType": "address",
          "name": "",
          "type": "address"
        }
      ],
      "payable": false,
      "stateMutability": "view",
      "type": "function"
    }
  ],
  "bytecode": "0x60806040526002805460ff19908116601217909155600b805490911660011790556715f155637eba0c00600e55670e6ed27d66680000600f5534801561004457600080fd5b50612e38806100546000396000f3fe608060405234801561001057600080fd5b506004361061025e5760003560e01c80637ecebe0011610146578063bb6ff386116100c3578063c548e3c511610087578063c548e3c5146106dc578063d490e7e0146107b5578063d505accf146107bd578063daf888181461080e578063dd62ed3e14610816578063fff6cae9146108445761025e565b8063bb6ff38614610689578063bc25cf77146106a6578063bc9bd12a14610320578063bd9a548b146106cc578063c45a0155146106d45761025e565b8063a9059cbb1161010a578063a9059cbb1461060f578063ad7a672f1461063b578063afc8276c14610643578063b2a02ff11461064b578063ba9a7a56146106815761025e565b80637ecebe001461057d5780638c765e94146105a357806395a2251f146105ab57806395d89b41146105d15780639aac2c53146105d95761025e565b80633644e515116101df5780635a0f03c6116101a35780635a0f03c61461048c5780636a627842146104cb5780636e01be10146104f15780636f13cb831461051d5780636f307dc31461054f57806370a08231146105575761025e565b80633644e5151461044f5780633a54a2ae146104575780633ba0b9a91461045f5780634a5d316c146104675780634fd42e171461046f5761025e565b806323b872dd1161022657806323b872dd146103c75780632fa5ae1b146103fd57806330adf81f14610421578063313ce56714610429578063356c571f146104475761025e565b806306fdde0314610263578063095ea7b3146102e05780630fb60fef1461032057806318160ddd1461033a57806319f3400d14610342575b600080fd5b61026b61084c565b6040805160208082528351818301528351919283929083019185019080838360005b838110156102a557818101518382015260200161028d565b50505050905090810190601f1680156102d25780820380516001836020036101000a031916815260200191505b509250505060405180910390f35b61030c600480360360408110156102f657600080fd5b506001600160a01b0381351690602001356108da565b604080519115158252519081900360200190f35b6103286108f1565b60408051918252519081900360200190f35b6103286108fd565b6103c56004803603606081101561035857600080fd5b6001600160a01b0382351691602081013591810190606081016040820135600160201b81111561038757600080fd5b82018360208201111561039957600080fd5b803590602001918460018302840111600160201b831117156103ba57600080fd5b509092509050610903565b005b61030c600480360360608110156103dd57600080fd5b506001600160a01b03813581169160208101359091169060400135610b5a565b610405610c29565b604080516001600160a01b039092168252519081900360200190f35b610328610c3d565b610431610c61565b6040805160ff9092168252519081900360200190f35b610328610c6a565b610328610c70565b610405610c76565b610328610c85565b6103c5610cd5565b6103c56004803603602081101561048557600080fd5b5035610d47565b6104b2600480360360208110156104a257600080fd5b50356001600160a01b0316610dfe565b6040805192835260208301919091528051918290030190f35b610328600480360360208110156104e157600080fd5b50356001600160a01b0316610e17565b61030c6004803603604081101561050757600080fd5b506001600160a01b038135169060200135611015565b6104b26004803603606081101561053357600080fd5b506001600160a01b0381351690602081013590604001356111a1565b61040561130f565b6103286004803603602081101561056d57600080fd5b50356001600160a01b031661131e565b6103286004803603602081101561059357600080fd5b50356001600160a01b0316611330565b610328611342565b610328600480360360208110156105c157600080fd5b50356001600160a01b0316611348565b61026b6114e1565b61030c600480360360608110156105ef57600080fd5b506001600160a01b0381358116916020810135909116906040013561153b565b61030c6004803603604081101561062557600080fd5b506001600160a01b038135169060200135611624565b610328611631565b610328611637565b6103286004803603606081101561066157600080fd5b506001600160a01b03813581169160208101359091169060400135611643565b61032861187f565b6103c56004803603602081101561069f57600080fd5b5035611885565b6103c5600480360360208110156106bc57600080fd5b50356001600160a01b031661193c565b6104b2611a36565b610405611d5b565b6103c5600480360360a08110156106f257600080fd5b810190602081018135600160201b81111561070c57600080fd5b82018360208201111561071e57600080fd5b803590602001918460018302840111600160201b8311171561073f57600080fd5b919390929091602081019035600160201b81111561075c57600080fd5b82018360208201111561076e57600080fd5b803590602001918460018302840111600160201b8311171561078f57600080fd5b91935091506001600160a01b038135811691602081013582169160409091013516611d6a565b610328611f0b565b6103c5600480360360e08110156107d357600080fd5b506001600160a01b03813581169160208101359091169060408101359060608101359060ff6080820135169060a08101359060c00135611f17565b610405611f5b565b6103286004803603604081101561082c57600080fd5b506001600160a01b0381358116916020013516611f6a565b6103c5611f87565b6000805460408051602060026001851615610100026000190190941693909304601f810184900484028201840190925281815292918301828280156108d25780601f106108a7576101008083540402835291602001916108d2565b820191906000526020600020905b8154815290600101906020018083116108b557829003601f168201915b505050505081565b60006108e7338484611ff2565b5060015b92915050565b670de0b6b3a764000081565b60035481565b600b5460ff1661094d576040805162461bcd60e51b815260206004820152601060248201526f115b195bdcce8814915153951154915160821b604482015290519081900360640190fd5b600b805460ff19169055600a548311156109a9576040805162461bcd60e51b815260206004820152601860248201527708ad8cadee67440929ca6aa8c8c9286928a9ca8be8682a6960431b604482015290519081900360640190fd5b6109b38484612054565b8015610a5957604051631a9a0d3560e31b8152336004820181815260248301869052606060448401908152606484018590526001600160a01b0388169363d4d069a893928892889288929190608401848480828437600081840152601f19601f82011690508083019250505095505050505050600060405180830381600087803b158015610a4057600080fd5b505af1158015610a54573d6000803e3d6000fd5b505050505b3060009081526004602052604081205490610aaa6001610a9e610a7a610c85565b610a9289670de0b6b3a764000063ffffffff6121e616565b9063ffffffff61224616565b9063ffffffff61228816565b905080821015610aeb5760405162461bcd60e51b8152600401808060200182810382526021815260200180612de36021913960400191505060405180910390fd5b610af530836122e2565b604080518681526020810184905281516001600160a01b0389169233927f3f693fff038bb8a046aa76d9516190ac7444f7d69cf952c4cbdc086fdef2d6fc929081900390910190a35050610b4761236d565b5050600b805460ff191660011790555050565b6001600160a01b038316600090815260056020908152604080832033845290915281205460001914610c1457604080518082018252601b81527f456c656f733a205452414e534645525f4e4f545f414c4c4f57454400000000006020808301919091526001600160a01b0387166000908152600582528381203382529091529190912054610bef91849063ffffffff61241d16565b6001600160a01b03851660009081526005602090815260408083203384529091529020555b610c1f8484846124b4565b5060019392505050565b600b5461010090046001600160a01b031681565b7f6e71edae12b1b97f4d1f60370fef10105fa2faae0126114a169c64845d6126c981565b60025460ff1681565b600e5481565b60065481565b600d546001600160a01b031681565b600354600a5460009190811580610c9a575080155b15610cb157670de0b6b3a764000092505050610cd2565b610ccd82610a9283670de0b6b3a764000063ffffffff6121e616565b925050505b90565b6009546001600160a01b031615610d33576040805162461bcd60e51b815260206004820152601a60248201527f456c656f733a20464143544f52595f414c52454144595f534554000000000000604482015290519081900360640190fd5b600980546001600160a01b03191633179055565b600b5460ff16610d91576040805162461bcd60e51b815260206004820152601060248201526f115b195bdcce8814915153951154915160821b604482015290519081900360640190fd5b600b805460ff19169055610db681670de0b6b3a7640000670e92596fd629000061251f565b600f8190556040805182815290517f8a9bb9067f9ecb13a322b548e6df3dd1bd10a54698834dac43ed8f0e765bf94d9181900360200190a150600b805460ff19166001179055565b600080610e0e83600019806111a1565b91509150915091565b600b5460009060ff16610e64576040805162461bcd60e51b815260206004820152601060248201526f115b195bdcce8814915153951154915160821b604482015290519081900360640190fd5b600b805460ff19169055600854604080516370a0823160e01b815230600482015290516000926001600160a01b0316916370a08231916024808301926020929190829003018186803b158015610eb957600080fd5b505afa158015610ecd573d6000803e3d6000fd5b505050506040513d6020811015610ee357600080fd5b5051600a54909150600090610eff90839063ffffffff6125c316565b9050610f24610f0c610c85565b610a9283670de0b6b3a764000063ffffffff6121e616565b925060035460001415610f5257610f43836103e863ffffffff6125c316565b9250610f5260006103e8612605565b60008311610fa7576040805162461bcd60e51b815260206004820152601760248201527f456c656f733a204d494e545f414d4f554e545f5a45524f000000000000000000604482015290519081900360640190fd5b610fb18484612605565b604080518281526020810185905281516001600160a01b0387169233927f2f00e3cdd69a77be7ed215ec7b2a36784dd158f921fca79ac29deffa353fe6ee929081900390910190a3505061100361236d565b600b805460ff19166001179055919050565b6001600160a01b038216600090815260046020526040812054808311156110405760009150506108eb565b8281036000611069670de0b6b3a7640000610a9261105c610c85565b859063ffffffff6121e616565b90506000600b60019054906101000a90046001600160a01b03166001600160a01b0316634d73e9ba886040518263ffffffff1660e01b815260040180826001600160a01b03166001600160a01b0316815260200191505060206040518083038186803b1580156110d857600080fd5b505afa1580156110ec573d6000803e3d6000fd5b505050506040513d602081101561110257600080fd5b5051600c54604080516326b9f4dd60e11b81526001600160a01b038b8116600483015291519394506000939190921691634d73e9ba916024808301926020929190829003018186803b15801561115757600080fd5b505afa15801561116b573d6000803e3d6000fd5b505050506040513d602081101561118157600080fd5b50519050600061119284848461268a565b159a9950505050505050505050565b60008060001984141561123057600b54604080516326b9f4dd60e11b81526001600160a01b038881166004830152915161010090930490911691634d73e9ba91602480820192602092909190829003018186803b15801561120157600080fd5b505afa158015611215573d6000803e3d6000fd5b505050506040513d602081101561122b57600080fd5b505193505b6000198314156112b657600c54604080516326b9f4dd60e11b81526001600160a01b03888116600483015291519190921691634d73e9ba916024808301926020929190829003018186803b15801561128757600080fd5b505afa15801561129b573d6000803e3d6000fd5b505050506040513d60208110156112b157600080fd5b505192505b60006112f4670de0b6b3a7640000610a926112cf610c85565b6001600160a01b038a166000908152600460205260409020549063ffffffff6121e616565b905061130181868661268a565b92509250505b935093915050565b6008546001600160a01b031681565b60046020526000908152604090205481565b60076020526000908152604090205481565b600f5481565b600b5460009060ff16611395576040805162461bcd60e51b815260206004820152601060248201526f115b195bdcce8814915153951154915160821b604482015290519081900360640190fd5b600b805460ff19169055306000908152600460205260409020546113d3670de0b6b3a7640000610a926113c6610c85565b849063ffffffff6121e616565b91506000821161142a576040805162461bcd60e51b815260206004820152601960248201527f456c656f733a2052454445454d5f414d4f554e545f5a45524f00000000000000604482015290519081900360640190fd5b600a5482111561147c576040805162461bcd60e51b815260206004820152601860248201527708ad8cadee67440929ca6aa8c8c9286928a9ca8be8682a6960431b604482015290519081900360640190fd5b61148630826122e2565b6114908383612054565b604080518381526020810183905281516001600160a01b0386169233927f3f693fff038bb8a046aa76d9516190ac7444f7d69cf952c4cbdc086fdef2d6fc929081900390910190a35061100361236d565b60018054604080516020600284861615610100026000190190941693909304601f810184900484028201840190925281815292918301828280156108d25780601f106108a7576101008083540402835291602001916108d2565b600b54600c546000916001600160a01b0361010090910481169181169085168214806115785750806001600160a01b0316856001600160a01b0316145b6115c9576040805162461bcd60e51b815260206004820152601960248201527f456c656f733a20494e56414c49445f424f52524f5741424c4500000000000000604482015290519081900360640190fd5b6000826001600160a01b0316866001600160a01b0316146115ec576000196115ee565b845b90506000826001600160a01b0316876001600160a01b03161461161357600019611615565b855b905060006111928984846111a1565b60006108e73384846124b4565b600a5481565b670e92596fd629000081565b600b5460009061010090046001600160a01b031633148061166e5750600c546001600160a01b031633145b6116b5576040805162461bcd60e51b8152602060048201526013602482015272115b195bdcce8815539055551213d492569151606a1b604482015290519081900360640190fd5b60006116c084610dfe565b91505060008111611718576040805162461bcd60e51b815260206004820152601d60248201527f456c656f733a20494e53554646494349454e545f53484f525446414c4c000000604482015290519081900360640190fd5b600b5460009061010090046001600160a01b03163314156117435761173b611a36565b50905061174f565b61174b611a36565b9150505b61178b61175a610c85565b610a928361177f670de0b6b3a7640000610a92600f548b6121e690919063ffffffff16565b9063ffffffff6121e616565b92506117fc836040518060400160405280601b81526020017f456c656f733a204c49515549444154494e475f544f4f5f4d554348000000000081525060046000896001600160a01b03166001600160a01b031681526020019081526020016000205461241d9092919063ffffffff16565b6001600160a01b038087166000908152600460205260408082209390935590881681522054611831908463ffffffff61228816565b6001600160a01b038088166000818152600460209081526040918290209490945580518781529051919392891692600080516020612dc383398151915292918290030190a350509392505050565b6103e881565b600b5460ff166118cf576040805162461bcd60e51b815260206004820152601060248201526f115b195bdcce8814915153951154915160821b604482015290519081900360640190fd5b600b805460ff191690556118f481670de0b6b3a76400006715f15565d2c5f00061251f565b600e8190556040805182815290517fdff9a61839be6f6ce5ea77311cc351786a39a9f337c507ff35e7b358fd39c0439181900360200190a150600b805460ff19166001179055565b600b5460ff16611986576040805162461bcd60e51b815260206004820152601060248201526f115b195bdcce8814915153951154915160821b604482015290519081900360640190fd5b600b805460ff19169055600a54600854604080516370a0823160e01b81523060048201529051611a26938593611a219391926001600160a01b03909116916370a08231916024808301926020929190829003018186803b1580156119e957600080fd5b505afa1580156119fd573d6000803e3d6000fd5b505050506040513d6020811015611a1357600080fd5b50519063ffffffff6125c316565b612054565b50600b805460ff19166001179055565b600d546008546040805163022351bf60e51b81526001600160a01b03928316600482015281516000948594859491169263446a37e0926024808301939282900301818787803b158015611a8857600080fd5b505af1158015611a9c573d6000803e3d6000fd5b505050506040513d6040811015611ab257600080fd5b505160085460408051630240bc6b60e21b8152905192935060009283926001600160a01b031691630902f1ac916004808301926060929190829003018186803b158015611afe57600080fd5b505afa158015611b12573d6000803e3d6000fd5b505050506040513d6060811015611b2857600080fd5b508051602091820151600854604080516318160ddd60e01b815290519396509194506000936001600160a01b03909116926318160ddd926004808201939291829003018186803b158015611b7b57600080fd5b505afa158015611b8f573d6000803e3d6000fd5b505050506040513d6020811015611ba557600080fd5b505190506000611bcd84611bb88561277e565b6001600160e01b03169063ffffffff61279016565b90506000611bf66001600160e01b0380841690610a92908916600160201b63ffffffff6121e616565b90506000611c16611c1183600160201b63ffffffff6121e616565b6127b5565b90506000611c426001600160701b036002890216610a9287670de0b6b3a764000063ffffffff6121e616565b90506000611c6e6001600160701b036002890216610a9288670de0b6b3a764000063ffffffff6121e616565b9050611c88600160201b610a92848663ffffffff6121e616565b9a50611ca283610a9283600160201b63ffffffff6121e616565b995060648b11611cf9576040805162461bcd60e51b815260206004820152601e60248201527f456c656f733a2050524943455f43414c43554c4154494f4e5f4552524f520000604482015290519081900360640190fd5b60648a11611d4e576040805162461bcd60e51b815260206004820152601e60248201527f456c656f733a2050524943455f43414c43554c4154494f4e5f4552524f520000604482015290519081900360640190fd5b5050505050505050509091565b6009546001600160a01b031681565b6009546001600160a01b03163314611dbf576040805162461bcd60e51b8152602060048201526013602482015272115b195bdcce8815539055551213d492569151606a1b604482015290519081900360640190fd5b611e3287878080601f01602080910402602001604051908101604052809392919081815260200183838082843760009201919091525050604080516020601f8b01819004810282018101909252898152925089915088908190840183828082843760009201919091525061280792505050565b600880546001600160a01b03199081166001600160a01b0386811691909117909255600b8054610100600160a81b03191661010086851602179055600c805490911683831617905560095460408051631d2a515760e11b815290519190921691633a54a2ae916004808301926020929190829003018186803b158015611eb757600080fd5b505afa158015611ecb573d6000803e3d6000fd5b505050506040513d6020811015611ee157600080fd5b5051600d80546001600160a01b0319166001600160a01b0390921691909117905550505050505050565b6715f15565d2c5f00081565b611f47878787878787877f6e71edae12b1b97f4d1f60370fef10105fa2faae0126114a169c64845d6126c96128cf565b611f52878787611ff2565b50505050505050565b600c546001600160a01b031681565b600560209081526000928352604080842090915290825290205481565b600b5460ff16611fd1576040805162461bcd60e51b815260206004820152601060248201526f115b195bdcce8814915153951154915160821b604482015290519081900360640190fd5b600b805460ff19169055611fe361236d565b600b805460ff19166001179055565b6001600160a01b03808416600081815260056020908152604080832094871680845294825291829020859055815185815291517f8c5be1e5ebec7d5bd14f71427d1e84f3dd0314c0f7b2291e5b200ac8c7c3b9259281900390910190a3505050565b600854604080518082018252601981527f7472616e7366657228616464726573732c75696e74323536290000000000000060209182015281516001600160a01b0386811660248301526044808301879052845180840390910181526064909201845291810180516001600160e01b031663a9059cbb60e01b1781529251815160009560609594169382918083835b602083106121015780518252601f1990920191602091820191016120e2565b6001836020036101000a0380198251168184511680821785525050505050509050019150506000604051808303816000865af19150503d8060008114612163576040519150601f19603f3d011682016040523d82523d6000602084013e612168565b606091505b5091509150818015612196575080511580612196575080806020019051602081101561219357600080fd5b50515b6121e0576040805162461bcd60e51b8152602060048201526016602482015275115b195bdcce881514905394d1915497d1905253115160521b604482015290519081900360640190fd5b50505050565b6000826121f5575060006108eb565b8282028284828161220257fe5b041461223f5760405162461bcd60e51b8152600401808060200182810382526021815260200180612da26021913960400191505060405180910390fd5b9392505050565b600061223f83836040518060400160405280601a81526020017f536166654d6174683a206469766973696f6e206279207a65726f000000000000815250612aa4565b60008282018381101561223f576040805162461bcd60e51b815260206004820152601b60248201527f536166654d6174683a206164646974696f6e206f766572666c6f770000000000604482015290519081900360640190fd5b6001600160a01b03821660009081526004602052604090205461230b908263ffffffff6125c316565b6001600160a01b038316600090815260046020526040902055600354612337908263ffffffff6125c316565b6003556040805182815290516000916001600160a01b03851691600080516020612dc38339815191529181900360200190a35050565b600854604080516370a0823160e01b815230600482015290516001600160a01b03909216916370a0823191602480820192602092909190829003018186803b1580156123b857600080fd5b505afa1580156123cc573d6000803e3d6000fd5b505050506040513d60208110156123e257600080fd5b5051600a81905560408051918252517f8a0df8ef054fae2c3d2d19a7b322e864870cc9fd3cb07fb9526309c596244bf49181900360200190a1565b600081848411156124ac5760405162461bcd60e51b81526004018080602001828103825283818151815260200191508051906020019080838360005b83811015612471578181015183820152602001612459565b50505050905090810190601f16801561249e5780820380516001836020036101000a031916815260200191505b509250505060405180910390fd5b505050900390565b6124be8382611015565b61250f576040805162461bcd60e51b815260206004820152601d60248201527f456c656f733a20494e53554646494349454e545f4c4951554944495459000000604482015290519081900360640190fd5b61251a838383612b09565b505050565b612527612be9565b81831015612575576040805162461bcd60e51b8152602060048201526016602482015275456c656f733a20494e56414c49445f53455454494e4760501b604482015290519081900360640190fd5b8083111561251a576040805162461bcd60e51b8152602060048201526016602482015275456c656f733a20494e56414c49445f53455454494e4760501b604482015290519081900360640190fd5b600061223f83836040518060400160405280601f81526020017f536166654d6174683a207375627472616374696f6e20756e646572666c6f770081525061241d565b600354612618908263ffffffff61228816565b6003556001600160a01b038216600090815260046020526040902054612644908263ffffffff61228816565b6001600160a01b0383166000818152600460209081526040808320949094558351858152935192939192600080516020612dc38339815191529281900390910190a35050565b600e546000908190818061269c611a36565b909250905060006126bf670de0b6b3a7640000610a928a8663ffffffff6121e616565b905060006126df670de0b6b3a7640000610a928a8663ffffffff6121e616565b9050808210156126eb57905b612707670de0b6b3a7640000610a92848863ffffffff6121e616565b915061272585610a9283670de0b6b3a764000063ffffffff6121e616565b9050600061274e670de0b6b3a7640000610a92600f5461177f868861228890919063ffffffff16565b9050808b1061276a578a03965060009550611307945050505050565b600097508a90039550611307945050505050565b6001600160701b0316600160701b0290565b60006001600160701b0382166001600160e01b038416816127ad57fe5b049392505050565b600060038211156127f8575080600160028204015b818110156127f2578091506002818285816127e157fe5b0401816127ea57fe5b0490506127ca565b50612802565b8115612802575060015b919050565b815161281a906000906020850190612cb7565b50805161282e906001906020840190612cb7565b506040514690806052612d508239604080519182900360520182208651602097880120838301835260018452603160f81b93880193909352815180880191909152808201929092527fc89efdaa54c0f20c7adf612882df0950f5a951637e0307cdcb4c672f298b8bc6606083015260808201939093523060a0808301919091528351808303909101815260c090910190925250805192019190912060065550565b42851015612915576040805162461bcd60e51b815260206004820152600e60248201526d115b195bdcce881156141254915160921b604482015290519081900360640190fd5b6006546001600160a01b03808a1660008181526007602090815260408083208054600180820190925582518085018a905280840196909652958e166060860152608085018d905260a085019590955260c08085018c90528151808603909101815260e08501825280519083012061190160f01b6101008601526101028501969096526101228085019690965280518085039096018652610142840180825286519683019690962095839052610162840180825286905260ff8a166101828501526101a284018990526101c28401889052519193926101e280820193601f1981019281900390910190855afa158015612a11573d6000803e3d6000fd5b5050604051601f1901519150506001600160a01b03811615801590612a475750896001600160a01b0316816001600160a01b0316145b612a98576040805162461bcd60e51b815260206004820152601860248201527f456c656f733a20494e56414c49445f5349474e41545552450000000000000000604482015290519081900360640190fd5b50505050505050505050565b60008183612af35760405162461bcd60e51b8152602060048201818152835160248401528351909283926044909101919085019080838360008315612471578181015183820152602001612459565b506000838581612aff57fe5b0495945050505050565b604080518082018252601881527f456c656f733a205452414e534645525f544f4f5f4849474800000000000000006020808301919091526001600160a01b038616600090815260049091529190912054612b6a91839063ffffffff61241d16565b6001600160a01b038085166000908152600460205260408082209390935590841681522054612b9f908263ffffffff61228816565b6001600160a01b038084166000818152600460209081526040918290209490945580518581529051919392871692600080516020612dc383398151915292918290030190a3505050565b600960009054906101000a90046001600160a01b03166001600160a01b031663f851a4406040518163ffffffff1660e01b815260040160206040518083038186803b158015612c3757600080fd5b505afa158015612c4b573d6000803e3d6000fd5b505050506040513d6020811015612c6157600080fd5b50516001600160a01b03163314612cb5576040805162461bcd60e51b8152602060048201526013602482015272115b195bdcce8815539055551213d492569151606a1b604482015290519081900360640190fd5b565b828054600181600116156101000203166002900490600052602060002090601f016020900481019282601f10612cf857805160ff1916838001178555612d25565b82800160010185558215612d25579182015b82811115612d25578251825591602001919060010190612d0a565b50612d31929150612d35565b5090565b610cd291905b80821115612d315760008155600101612d3b56fe454950373132446f6d61696e28737472696e67206e616d652c737472696e672076657273696f6e2c75696e7432353620636861696e49642c6164647265737320766572696679696e67436f6e747261637429536166654d6174683a206d756c7469706c69636174696f6e206f766572666c6f77ddf252ad1be2c89b69c2b068fc378daa952ba7f163c4a11628f55a4df523b3ef456c656f733a20494e53554646494349454e545f52454445454d5f544f4b454e53a265627a7a723158205b252468aad8c33bf9b3d4f7d5a5e10ff10a97e75cafb3b5729d28893237535564736f6c63430005100032",
  "linkReferences": {},
  "deployedLinkReferences": {}
}