{
  "_format": "hh-sol-artifact-1",
  "contractName": "Recipient",
  "sourceName": "test/Contracts/Recipient.sol",
  "abi": [
    {
      "constant": false,
      "inputs": [
        {
          "internalType": "address",
          "name": "uniswapV2Pair",
          "type": "address"
        },
        {
          "internalType": "address",
          "name": "to",
          "type": "address"
        }
      ],
      "name": "empty",
      "outputs": [],
      "payable": false,
      "stateMutability": "nonpayable",
      "type": "function"
    }
  ],
  "bytecode": "0x608060405234801561001057600080fd5b50610192806100206000396000f3fe608060405234801561001057600080fd5b506004361061002b5760003560e01c8063a4158f1b14610030575b600080fd5b61005e6004803603604081101561004657600080fd5b506001600160a01b0381358116916020013516610060565b005b604080516370a0823160e01b815230600482015290516000916001600160a01b038516916370a0823191602480820192602092909190829003018186803b1580156100aa57600080fd5b505afa1580156100be573d6000803e3d6000fd5b505050506040513d60208110156100d457600080fd5b50516040805163a9059cbb60e01b81526001600160a01b0385811660048301526024820184905291519293509085169163a9059cbb916044808201926020929091908290030181600087803b15801561012c57600080fd5b505af1158015610140573d6000803e3d6000fd5b505050506040513d602081101561015657600080fd5b505050505056fea265627a7a723158208c76e1fabc105390fc8e40109679819318de7818021c0d155aa439838f84eee464736f6c63430005100032",
  "linkReferences": {},
  "deployedLinkReferences": {}
}