{
  "_format": "hh-sol-artifact-1",
  "contractName": "PoolToken",
  "sourceName": "contracts/PoolToken.sol",
  "abi": [
    {
      "anonymous": false,
      "inputs": [
        {
          "indexed": true,
          "internalType": "address",
          "name": "owner",
          "type": "address"
        },
        {
          "indexed": true,
          "internalType": "address",
          "name": "spender",
          "type": "address"
        },
        {
          "indexed": false,
          "internalType": "uint256",
          "name": "value",
          "type": "uint256"
        }
      ],
      "name": "Approval",
      "type": "event"
    },
    {
      "anonymous": false,
      "inputs": [
        {
          "indexed": true,
          "internalType": "address",
          "name": "sender",
          "type": "address"
        },
        {
          "indexed": true,
          "internalType": "address",
          "name": "minter",
          "type": "address"
        },
        {
          "indexed": false,
          "internalType": "uint256",
          "name": "mintAmount",
          "type": "uint256"
        },
        {
          "indexed": false,
          "internalType": "uint256",
          "name": "mintTokens",
          "type": "uint256"
        }
      ],
      "name": "Mint",
      "type": "event"
    },
    {
      "anonymous": false,
      "inputs": [
        {
          "indexed": true,
          "internalType": "address",
          "name": "sender",
          "type": "address"
        },
        {
          "indexed": true,
          "internalType": "address",
          "name": "redeemer",
          "type": "address"
        },
        {
          "indexed": false,
          "internalType": "uint256",
          "name": "redeemAmount",
          "type": "uint256"
        },
        {
          "indexed": false,
          "internalType": "uint256",
          "name": "redeemTokens",
          "type": "uint256"
        }
      ],
      "name": "Redeem",
      "type": "event"
    },
    {
      "anonymous": false,
      "inputs": [
        {
          "indexed": false,
          "internalType": "uint256",
          "name": "totalBalance",
          "type": "uint256"
        }
      ],
      "name": "Sync",
      "type": "event"
    },
    {
      "anonymous": false,
      "inputs": [
        {
          "indexed": true,
          "internalType": "address",
          "name": "from",
          "type": "address"
        },
        {
          "indexed": true,
          "internalType": "address",
          "name": "to",
          "type": "address"
        },
        {
          "indexed": false,
          "internalType": "uint256",
          "name": "value",
          "type": "uint256"
        }
      ],
      "name": "Transfer",
      "type": "event"
    },
    {
      "constant": true,
      "inputs": [],
      "name": "DOMAIN_SEPARATOR",
      "outputs": [
        {
          "internalType": "bytes32",
          "name": "",
          "type": "bytes32"
        }
      ],
      "payable": false,
      "stateMutability": "view",
      "type": "function"
    },
    {
      "constant": true,
      "inputs": [],
      "name": "MINIMUM_LIQUIDITY",
      "outputs": [
        {
          "internalType": "uint256",
          "name": "",
          "type": "uint256"
        }
      ],
      "payable": false,
      "stateMutability": "view",
      "type": "function"
    },
    {
      "constant": true,
      "inputs": [],
      "name": "PERMIT_TYPEHASH",
      "outputs": [
        {
          "internalType": "bytes32",
          "name": "",
          "type": "bytes32"
        }
      ],
      "payable": false,
      "stateMutability": "view",
      "type": "function"
    },
    {
      "constant": false,
      "inputs": [],
      "name": "_setFactory",
      "outputs": [],
      "payable": false,
      "stateMutability": "nonpayable",
      "type": "function"
    },
    {
      "constant": true,
      "inputs": [
        {
          "internalType": "address",
          "name": "",
          "type": "address"
        },
        {
          "internalType": "address",
          "name": "",
          "type": "address"
        }
      ],
      "name": "allowance",
      "outputs": [
        {
          "internalType": "uint256",
          "name": "",
          "type": "uint256"
        }
      ],
      "payable": false,
      "stateMutability": "view",
      "type": "function"
    },
    {
      "constant": false,
      "inputs": [
        {
          "internalType": "address",
          "name": "spender",
          "type": "address"
        },
        {
          "internalType": "uint256",
          "name": "value",
          "type": "uint256"
        }
      ],
      "name": "approve",
      "outputs": [
        {
          "internalType": "bool",
          "name": "",
          "type": "bool"
        }
      ],
      "payable": false,
      "stateMutability": "nonpayable",
      "type": "function"
    },
    {
      "constant": true,
      "inputs": [
        {
          "internalType": "address",
          "name": "",
          "type": "address"
        }
      ],
      "name": "balanceOf",
      "outputs": [
        {
          "internalType": "uint256",
          "name": "",
          "type": "uint256"
        }
      ],
      "payable": false,
      "stateMutability": "view",
      "type": "function"
    },
    {
      "constant": true,
      "inputs": [],
      "name": "decimals",
      "outputs": [
        {
          "internalType": "uint8",
          "name": "",
          "type": "uint8"
        }
      ],
      "payable": false,
      "stateMutability": "view",
      "type": "function"
    },
    {
      "constant": false,
      "inputs": [],
      "name": "exchangeRate",
      "outputs": [
        {
          "internalType": "uint256",
          "name": "",
          "type": "uint256"
        }
      ],
      "payable": false,
      "stateMutability": "nonpayable",
      "type": "function"
    },
    {
      "constant": true,
      "inputs": [],
      "name": "factory",
      "outputs": [
        {
          "internalType": "address",
          "name": "",
          "type": "address"
        }
      ],
      "payable": false,
      "stateMutability": "view",
      "type": "function"
    },
    {
      "constant": false,
      "inputs": [
        {
          "internalType": "address",
          "name": "minter",
          "type": "address"
        }
      ],
      "name": "mint",
      "outputs": [
        {
          "internalType": "uint256",
          "name": "mintTokens",
          "type": "uint256"
        }
      ],
      "payable": false,
      "stateMutability": "nonpayable",
      "type": "function"
    },
    {
      "constant": true,
      "inputs": [],
      "name": "name",
      "outputs": [
        {
          "internalType": "string",
          "name": "",
          "type": "string"
        }
      ],
      "payable": false,
      "stateMutability": "view",
      "type": "function"
    },
    {
      "constant": true,
      "inputs": [
        {
          "internalType": "address",
          "name": "",
          "type": "address"
        }
      ],
      "name": "nonces",
      "outputs": [
        {
          "internalType": "uint256",
          "name": "",
          "type": "uint256"
        }
      ],
      "payable": false,
      "stateMutability": "view",
      "type": "function"
    },
    {
      "constant": false,
      "inputs": [
        {
          "internalType": "address",
          "name": "owner",
          "type": "address"
        },
        {
          "internalType": "address",
          "name": "spender",
          "type": "address"
        },
        {
          "internalType": "uint256",
          "name": "value",
          "type": "uint256"
        },
        {
          "internalType": "uint256",
          "name": "deadline",
          "type": "uint256"
        },
        {
          "internalType": "uint8",
          "name": "v",
          "type": "uint8"
        },
        {
          "internalType": "bytes32",
          "name": "r",
          "type": "bytes32"
        },
        {
          "internalType": "bytes32",
          "name": "s",
          "type": "bytes32"
        }
      ],
      "name": "permit",
      "outputs": [],
      "payable": false,
      "stateMutability": "nonpayable",
      "type": "function"
    },
    {
      "constant": false,
      "inputs": [
        {
          "internalType": "address",
          "name": "redeemer",
          "type": "address"
        }
      ],
      "name": "redeem",
      "outputs": [
        {
          "internalType": "uint256",
          "name": "redeemAmount",
          "type": "uint256"
        }
      ],
      "payable": false,
      "stateMutability": "nonpayable",
      "type": "function"
    },
    {
      "constant": false,
      "inputs": [
        {
          "internalType": "address",
          "name": "to",
          "type": "address"
        }
      ],
      "name": "skim",
      "outputs": [],
      "payable": false,
      "stateMutability": "nonpayable",
      "type": "function"
    },
    {
      "constant": true,
      "inputs": [],
      "name": "symbol",
      "outputs": [
        {
          "internalType": "string",
          "name": "",
          "type": "string"
        }
      ],
      "payable": false,
      "stateMutability": "view",
      "type": "function"
    },
    {
      "constant": false,
      "inputs": [],
      "name": "sync",
      "outputs": [],
      "payable": false,
      "stateMutability": "nonpayable",
      "type": "function"
    },
    {
      "constant": true,
      "inputs": [],
      "name": "totalBalance",
      "outputs": [
        {
          "internalType": "uint256",
          "name": "",
          "type": "uint256"
        }
      ],
      "payable": false,
      "stateMutability": "view",
      "type": "function"
    },
    {
      "constant": true,
      "inputs": [],
      "name": "totalSupply",
      "outputs": [
        {
          "internalType": "uint256",
          "name": "",
          "type": "uint256"
        }
      ],
      "payable": false,
      "stateMutability": "view",
      "type": "function"
    },
    {
      "constant": false,
      "inputs": [
        {
          "internalType": "address",
          "name": "to",
          "type": "address"
        },
        {
          "internalType": "uint256",
          "name": "value",
          "type": "uint256"
        }
      ],
      "name": "transfer",
      "outputs": [
        {
          "internalType": "bool",
          "name": "",
          "type": "bool"
        }
      ],
      "payable": false,
      "stateMutability": "nonpayable",
      "type": "function"
    },
    {
      "constant": false,
      "inputs": [
        {
          "internalType": "address",
          "name": "from",
          "type": "address"
        },
        {
          "internalType": "address",
          "name": "to",
          "type": "address"
        },
        {
          "internalType": "uint256",
          "name": "value",
          "type": "uint256"
        }
      ],
      "name": "transferFrom",
      "outputs": [
        {
          "internalType": "bool",
          "name": "",
          "type": "bool"
        }
      ],
      "payable": false,
      "stateMutability": "nonpayable",
      "type": "function"
    },
    {
      "constant": true,
      "inputs": [],
      "name": "underlying",
      "outputs": [
        {
          "internalType": "address",
          "name": "",
          "type": "address"
        }
      ],
      "payable": false,
      "stateMutability": "view",
      "type": "function"
    }
  ],
  "bytecode": "0x60806040526002805460ff19908116601217909155600b805490911660011790556116158061002f6000396000f3fe608060405234801561001057600080fd5b506004361061014d5760003560e01c806370a08231116100c3578063ba9a7a561161007c578063ba9a7a5614610397578063bc25cf771461039f578063c45a0155146103c5578063d505accf146103cd578063dd62ed3e1461041e578063fff6cae91461044c5761014d565b806370a08231146102e95780637ecebe001461030f57806395a2251f1461033557806395d89b411461035b578063a9059cbb14610363578063ad7a672f1461038f5761014d565b8063313ce56711610115578063313ce567146102675780633644e515146102855780633ba0b9a91461028d5780634a5d316c146102955780636a6278421461029f5780636f307dc3146102c55761014d565b806306fdde0314610152578063095ea7b3146101cf57806318160ddd1461020f57806323b872dd1461022957806330adf81f1461025f575b600080fd5b61015a610454565b6040805160208082528351818301528351919283929083019185019080838360005b8381101561019457818101518382015260200161017c565b50505050905090810190601f1680156101c15780820380516001836020036101000a031916815260200191505b509250505060405180910390f35b6101fb600480360360408110156101e557600080fd5b506001600160a01b0381351690602001356104e2565b604080519115158252519081900360200190f35b6102176104f9565b60408051918252519081900360200190f35b6101fb6004803603606081101561023f57600080fd5b506001600160a01b038135811691602081013590911690604001356104ff565b6102176105ce565b61026f6105f2565b6040805160ff9092168252519081900360200190f35b6102176105fb565b610217610601565b61029d61065d565b005b610217600480360360208110156102b557600080fd5b50356001600160a01b03166106cf565b6102cd6108cd565b604080516001600160a01b039092168252519081900360200190f35b610217600480360360208110156102ff57600080fd5b50356001600160a01b03166108dc565b6102176004803603602081101561032557600080fd5b50356001600160a01b03166108ee565b6102176004803603602081101561034b57600080fd5b50356001600160a01b0316610900565b61015a610a9e565b6101fb6004803603604081101561037957600080fd5b506001600160a01b038135169060200135610af8565b610217610b05565b610217610b0b565b61029d600480360360208110156103b557600080fd5b50356001600160a01b0316610b11565b6102cd610c0b565b61029d600480360360e08110156103e357600080fd5b506001600160a01b03813581169160208101359091169060408101359060608101359060ff6080820135169060a08101359060c00135610c1a565b6102176004803603604081101561043457600080fd5b506001600160a01b0381358116916020013516610c5e565b61029d610c7b565b6000805460408051602060026001851615610100026000190190941693909304601f810184900484028201840190925281815292918301828280156104da5780601f106104af576101008083540402835291602001916104da565b820191906000526020600020905b8154815290600101906020018083116104bd57829003601f168201915b505050505081565b60006104ef338484610ce6565b5060015b92915050565b60035481565b6001600160a01b0383166000908152600560209081526040808320338452909152812054600019146105b957604080518082018252601b81527f456c656f733a205452414e534645525f4e4f545f414c4c4f57454400000000006020808301919091526001600160a01b038716600090815260058252838120338252909152919091205461059491849063ffffffff610d4816565b6001600160a01b03851660009081526005602090815260408083203384529091529020555b6105c4848484610ddf565b5060019392505050565b7f6e71edae12b1b97f4d1f60370fef10105fa2faae0126114a169c64845d6126c981565b60025460ff1681565b60065481565b600354600a5460009190811580610616575080155b1561062d57670de0b6b3a76400009250505061065a565b6106558261064983670de0b6b3a764000063ffffffff610ed116565b9063ffffffff610f3116565b925050505b90565b6009546001600160a01b0316156106bb576040805162461bcd60e51b815260206004820152601a60248201527f456c656f733a20464143544f52595f414c52454144595f534554000000000000604482015290519081900360640190fd5b600980546001600160a01b03191633179055565b600b5460009060ff1661071c576040805162461bcd60e51b815260206004820152601060248201526f115b195bdcce8814915153951154915160821b604482015290519081900360640190fd5b600b805460ff19169055600854604080516370a0823160e01b815230600482015290516000926001600160a01b0316916370a08231916024808301926020929190829003018186803b15801561077157600080fd5b505afa158015610785573d6000803e3d6000fd5b505050506040513d602081101561079b57600080fd5b5051600a549091506000906107b790839063ffffffff610f7316565b90506107dc6107c4610601565b61064983670de0b6b3a764000063ffffffff610ed116565b92506003546000141561080a576107fb836103e863ffffffff610f7316565b925061080a60006103e8610fb5565b6000831161085f576040805162461bcd60e51b815260206004820152601760248201527f456c656f733a204d494e545f414d4f554e545f5a45524f000000000000000000604482015290519081900360640190fd5b6108698484610fb5565b604080518281526020810185905281516001600160a01b0387169233927f2f00e3cdd69a77be7ed215ec7b2a36784dd158f921fca79ac29deffa353fe6ee929081900390910190a350506108bb61104c565b600b805460ff19166001179055919050565b6008546001600160a01b031681565b60046020526000908152604090205481565b60076020526000908152604090205481565b600b5460009060ff1661094d576040805162461bcd60e51b815260206004820152601060248201526f115b195bdcce8814915153951154915160821b604482015290519081900360640190fd5b600b805460ff191690553060009081526004602052604090205461098b670de0b6b3a764000061064961097e610601565b849063ffffffff610ed116565b9150600082116109e2576040805162461bcd60e51b815260206004820152601960248201527f456c656f733a2052454445454d5f414d4f554e545f5a45524f00000000000000604482015290519081900360640190fd5b600a54821115610a39576040805162461bcd60e51b815260206004820152601860248201527f456c656f733a20494e53554646494349454e545f434153480000000000000000604482015290519081900360640190fd5b610a4330826110fc565b610a4d8383611199565b604080518381526020810183905281516001600160a01b0386169233927f3f693fff038bb8a046aa76d9516190ac7444f7d69cf952c4cbdc086fdef2d6fc929081900390910190a3506108bb61104c565b60018054604080516020600284861615610100026000190190941693909304601f810184900484028201840190925281815292918301828280156104da5780601f106104af576101008083540402835291602001916104da565b60006104ef338484610ddf565b600a5481565b6103e881565b600b5460ff16610b5b576040805162461bcd60e51b815260206004820152601060248201526f115b195bdcce8814915153951154915160821b604482015290519081900360640190fd5b600b805460ff19169055600a54600854604080516370a0823160e01b81523060048201529051610bfb938593610bf69391926001600160a01b03909116916370a08231916024808301926020929190829003018186803b158015610bbe57600080fd5b505afa158015610bd2573d6000803e3d6000fd5b505050506040513d6020811015610be857600080fd5b50519063ffffffff610f7316565b611199565b50600b805460ff19166001179055565b6009546001600160a01b031681565b610c4a878787878787877f6e71edae12b1b97f4d1f60370fef10105fa2faae0126114a169c64845d6126c961132b565b610c55878787610ce6565b50505050505050565b600560209081526000928352604080842090915290825290205481565b600b5460ff16610cc5576040805162461bcd60e51b815260206004820152601060248201526f115b195bdcce8814915153951154915160821b604482015290519081900360640190fd5b600b805460ff19169055610cd761104c565b600b805460ff19166001179055565b6001600160a01b03808416600081815260056020908152604080832094871680845294825291829020859055815185815291517f8c5be1e5ebec7d5bd14f71427d1e84f3dd0314c0f7b2291e5b200ac8c7c3b9259281900390910190a3505050565b60008184841115610dd75760405162461bcd60e51b81526004018080602001828103825283818151815260200191508051906020019080838360005b83811015610d9c578181015183820152602001610d84565b50505050905090810190601f168015610dc95780820380516001836020036101000a031916815260200191505b509250505060405180910390fd5b505050900390565b604080518082018252601881527f456c656f733a205452414e534645525f544f4f5f4849474800000000000000006020808301919091526001600160a01b038616600090815260049091529190912054610e4091839063ffffffff610d4816565b6001600160a01b038085166000908152600460205260408082209390935590841681522054610e75908263ffffffff61150016565b6001600160a01b0380841660008181526004602090815260409182902094909455805185815290519193928716927fddf252ad1be2c89b69c2b068fc378daa952ba7f163c4a11628f55a4df523b3ef92918290030190a3505050565b600082610ee0575060006104f3565b82820282848281610eed57fe5b0414610f2a5760405162461bcd60e51b81526004018080602001828103825260218152602001806115c06021913960400191505060405180910390fd5b9392505050565b6000610f2a83836040518060400160405280601a81526020017f536166654d6174683a206469766973696f6e206279207a65726f00000000000081525061155a565b6000610f2a83836040518060400160405280601f81526020017f536166654d6174683a207375627472616374696f6e20756e646572666c6f7700815250610d48565b600354610fc8908263ffffffff61150016565b6003556001600160a01b038216600090815260046020526040902054610ff4908263ffffffff61150016565b6001600160a01b03831660008181526004602090815260408083209490945583518581529351929391927fddf252ad1be2c89b69c2b068fc378daa952ba7f163c4a11628f55a4df523b3ef9281900390910190a35050565b600854604080516370a0823160e01b815230600482015290516001600160a01b03909216916370a0823191602480820192602092909190829003018186803b15801561109757600080fd5b505afa1580156110ab573d6000803e3d6000fd5b505050506040513d60208110156110c157600080fd5b5051600a81905560408051918252517f8a0df8ef054fae2c3d2d19a7b322e864870cc9fd3cb07fb9526309c596244bf49181900360200190a1565b6001600160a01b038216600090815260046020526040902054611125908263ffffffff610f7316565b6001600160a01b038316600090815260046020526040902055600354611151908263ffffffff610f7316565b6003556040805182815290516000916001600160a01b038516917fddf252ad1be2c89b69c2b068fc378daa952ba7f163c4a11628f55a4df523b3ef9181900360200190a35050565b600854604080518082018252601981527f7472616e7366657228616464726573732c75696e74323536290000000000000060209182015281516001600160a01b0386811660248301526044808301879052845180840390910181526064909201845291810180516001600160e01b031663a9059cbb60e01b1781529251815160009560609594169382918083835b602083106112465780518252601f199092019160209182019101611227565b6001836020036101000a0380198251168184511680821785525050505050509050019150506000604051808303816000865af19150503d80600081146112a8576040519150601f19603f3d011682016040523d82523d6000602084013e6112ad565b606091505b50915091508180156112db5750805115806112db57508080602001905160208110156112d857600080fd5b50515b611325576040805162461bcd60e51b8152602060048201526016602482015275115b195bdcce881514905394d1915497d1905253115160521b604482015290519081900360640190fd5b50505050565b42851015611371576040805162461bcd60e51b815260206004820152600e60248201526d115b195bdcce881156141254915160921b604482015290519081900360640190fd5b6006546001600160a01b03808a1660008181526007602090815260408083208054600180820190925582518085018a905280840196909652958e166060860152608085018d905260a085019590955260c08085018c90528151808603909101815260e08501825280519083012061190160f01b6101008601526101028501969096526101228085019690965280518085039096018652610142840180825286519683019690962095839052610162840180825286905260ff8a166101828501526101a284018990526101c28401889052519193926101e280820193601f1981019281900390910190855afa15801561146d573d6000803e3d6000fd5b5050604051601f1901519150506001600160a01b038116158015906114a35750896001600160a01b0316816001600160a01b0316145b6114f4576040805162461bcd60e51b815260206004820152601860248201527f456c656f733a20494e56414c49445f5349474e41545552450000000000000000604482015290519081900360640190fd5b50505050505050505050565b600082820183811015610f2a576040805162461bcd60e51b815260206004820152601b60248201527f536166654d6174683a206164646974696f6e206f766572666c6f770000000000604482015290519081900360640190fd5b600081836115a95760405162461bcd60e51b8152602060048201818152835160248401528351909283926044909101919085019080838360008315610d9c578181015183820152602001610d84565b5060008385816115b557fe5b049594505050505056fe536166654d6174683a206d756c7469706c69636174696f6e206f766572666c6f77a265627a7a723158203e85c7a631db88f3add1ca30dffca8602cbbc2c0df92e4c4460d579dd08d4bf564736f6c63430005100032",
  "linkReferences": {},
  "deployedLinkReferences": {}
}