{
  "_format": "hh-sol-artifact-1",
  "contractName": "BInterestRateModel",
  "sourceName": "contracts/BInterestRateModel.sol",
  "abi": [
    {
      "anonymous": false,
      "inputs": [
        {
          "indexed": false,
          "internalType": "uint256",
          "name": "interestAccumulated",
          "type": "uint256"
        },
        {
          "indexed": false,
          "internalType": "uint256",
          "name": "borrowIndex",
          "type": "uint256"
        },
        {
          "indexed": false,
          "internalType": "uint256",
          "name": "totalBorrows",
          "type": "uint256"
        }
      ],
      "name": "AccrueInterest",
      "type": "event"
    },
    {
      "anonymous": false,
      "inputs": [
        {
          "indexed": true,
          "internalType": "address",
          "name": "owner",
          "type": "address"
        },
        {
          "indexed": true,
          "internalType": "address",
          "name": "spender",
          "type": "address"
        },
        {
          "indexed": false,
          "internalType": "uint256",
          "name": "value",
          "type": "uint256"
        }
      ],
      "name": "Approval",
      "type": "event"
    },
    {
      "anonymous": false,
      "inputs": [
        {
          "indexed": false,
          "internalType": "uint256",
          "name": "borrowRate",
          "type": "uint256"
        }
      ],
      "name": "CalculateBorrowRate",
      "type": "event"
    },
    {
      "anonymous": false,
      "inputs": [
        {
          "indexed": false,
          "internalType": "uint256",
          "name": "kinkBorrowRate",
          "type": "uint256"
        }
      ],
      "name": "CalculateKinkBorrowRate",
      "type": "event"
    },
    {
      "anonymous": false,
      "inputs": [
        {
          "indexed": true,
          "internalType": "address",
          "name": "sender",
          "type": "address"
        },
        {
          "indexed": true,
          "internalType": "address",
          "name": "minter",
          "type": "address"
        },
        {
          "indexed": false,
          "internalType": "uint256",
          "name": "mintAmount",
          "type": "uint256"
        },
        {
          "indexed": false,
          "internalType": "uint256",
          "name": "mintTokens",
          "type": "uint256"
        }
      ],
      "name": "Mint",
      "type": "event"
    },
    {
      "anonymous": false,
      "inputs": [
        {
          "indexed": true,
          "internalType": "address",
          "name": "sender",
          "type": "address"
        },
        {
          "indexed": true,
          "internalType": "address",
          "name": "redeemer",
          "type": "address"
        },
        {
          "indexed": false,
          "internalType": "uint256",
          "name": "redeemAmount",
          "type": "uint256"
        },
        {
          "indexed": false,
          "internalType": "uint256",
          "name": "redeemTokens",
          "type": "uint256"
        }
      ],
      "name": "Redeem",
      "type": "event"
    },
    {
      "anonymous": false,
      "inputs": [
        {
          "indexed": false,
          "internalType": "uint256",
          "name": "totalBalance",
          "type": "uint256"
        }
      ],
      "name": "Sync",
      "type": "event"
    },
    {
      "anonymous": false,
      "inputs": [
        {
          "indexed": true,
          "internalType": "address",
          "name": "from",
          "type": "address"
        },
        {
          "indexed": true,
          "internalType": "address",
          "name": "to",
          "type": "address"
        },
        {
          "indexed": false,
          "internalType": "uint256",
          "name": "value",
          "type": "uint256"
        }
      ],
      "name": "Transfer",
      "type": "event"
    },
    {
      "constant": true,
      "inputs": [],
      "name": "DOMAIN_SEPARATOR",
      "outputs": [
        {
          "internalType": "bytes32",
          "name": "",
          "type": "bytes32"
        }
      ],
      "payable": false,
      "stateMutability": "view",
      "type": "function"
    },
    {
      "constant": true,
      "inputs": [],
      "name": "KINK_BORROW_RATE_MAX",
      "outputs": [
        {
          "internalType": "uint256",
          "name": "",
          "type": "uint256"
        }
      ],
      "payable": false,
      "stateMutability": "view",
      "type": "function"
    },
    {
      "constant": true,
      "inputs": [],
      "name": "KINK_BORROW_RATE_MIN",
      "outputs": [
        {
          "internalType": "uint256",
          "name": "",
          "type": "uint256"
        }
      ],
      "payable": false,
      "stateMutability": "view",
      "type": "function"
    },
    {
      "constant": true,
      "inputs": [],
      "name": "KINK_MULTIPLIER",
      "outputs": [
        {
          "internalType": "uint256",
          "name": "",
          "type": "uint256"
        }
      ],
      "payable": false,
      "stateMutability": "view",
      "type": "function"
    },
    {
      "constant": true,
      "inputs": [],
      "name": "MINIMUM_LIQUIDITY",
      "outputs": [
        {
          "internalType": "uint256",
          "name": "",
          "type": "uint256"
        }
      ],
      "payable": false,
      "stateMutability": "view",
      "type": "function"
    },
    {
      "constant": true,
      "inputs": [],
      "name": "PERMIT_TYPEHASH",
      "outputs": [
        {
          "internalType": "bytes32",
          "name": "",
          "type": "bytes32"
        }
      ],
      "payable": false,
      "stateMutability": "view",
      "type": "function"
    },
    {
      "constant": false,
      "inputs": [],
      "name": "_setFactory",
      "outputs": [],
      "payable": false,
      "stateMutability": "nonpayable",
      "type": "function"
    },
    {
      "constant": true,
      "inputs": [],
      "name": "accrualTimestamp",
      "outputs": [
        {
          "internalType": "uint32",
          "name": "",
          "type": "uint32"
        }
      ],
      "payable": false,
      "stateMutability": "view",
      "type": "function"
    },
    {
      "constant": false,
      "inputs": [],
      "name": "accrueInterest",
      "outputs": [],
      "payable": false,
      "stateMutability": "nonpayable",
      "type": "function"
    },
    {
      "constant": true,
      "inputs": [],
      "name": "adjustSpeed",
      "outputs": [
        {
          "internalType": "uint256",
          "name": "",
          "type": "uint256"
        }
      ],
      "payable": false,
      "stateMutability": "view",
      "type": "function"
    },
    {
      "constant": true,
      "inputs": [
        {
          "internalType": "address",
          "name": "",
          "type": "address"
        },
        {
          "internalType": "address",
          "name": "",
          "type": "address"
        }
      ],
      "name": "allowance",
      "outputs": [
        {
          "internalType": "uint256",
          "name": "",
          "type": "uint256"
        }
      ],
      "payable": false,
      "stateMutability": "view",
      "type": "function"
    },
    {
      "constant": false,
      "inputs": [
        {
          "internalType": "address",
          "name": "spender",
          "type": "address"
        },
        {
          "internalType": "uint256",
          "name": "value",
          "type": "uint256"
        }
      ],
      "name": "approve",
      "outputs": [
        {
          "internalType": "bool",
          "name": "",
          "type": "bool"
        }
      ],
      "payable": false,
      "stateMutability": "nonpayable",
      "type": "function"
    },
    {
      "constant": true,
      "inputs": [
        {
          "internalType": "address",
          "name": "",
          "type": "address"
        }
      ],
      "name": "balanceOf",
      "outputs": [
        {
          "internalType": "uint256",
          "name": "",
          "type": "uint256"
        }
      ],
      "payable": false,
      "stateMutability": "view",
      "type": "function"
    },
    {
      "constant": true,
      "inputs": [
        {
          "internalType": "address",
          "name": "",
          "type": "address"
        },
        {
          "internalType": "address",
          "name": "",
          "type": "address"
        }
      ],
      "name": "borrowAllowance",
      "outputs": [
        {
          "internalType": "uint256",
          "name": "",
          "type": "uint256"
        }
      ],
      "payable": false,
      "stateMutability": "view",
      "type": "function"
    },
    {
      "constant": true,
      "inputs": [],
      "name": "borrowIndex",
      "outputs": [
        {
          "internalType": "uint112",
          "name": "",
          "type": "uint112"
        }
      ],
      "payable": false,
      "stateMutability": "view",
      "type": "function"
    },
    {
      "constant": true,
      "inputs": [],
      "name": "borrowRate",
      "outputs": [
        {
          "internalType": "uint48",
          "name": "",
          "type": "uint48"
        }
      ],
      "payable": false,
      "stateMutability": "view",
      "type": "function"
    },
    {
      "constant": true,
      "inputs": [],
      "name": "borrowTracker",
      "outputs": [
        {
          "internalType": "address",
          "name": "",
          "type": "address"
        }
      ],
      "payable": false,
      "stateMutability": "view",
      "type": "function"
    },
    {
      "constant": true,
      "inputs": [],
      "name": "collateral",
      "outputs": [
        {
          "internalType": "address",
          "name": "",
          "type": "address"
        }
      ],
      "payable": false,
      "stateMutability": "view",
      "type": "function"
    },
    {
      "constant": true,
      "inputs": [],
      "name": "decimals",
      "outputs": [
        {
          "internalType": "uint8",
          "name": "",
          "type": "uint8"
        }
      ],
      "payable": false,
      "stateMutability": "view",
      "type": "function"
    },
    {
      "constant": false,
      "inputs": [],
      "name": "exchangeRate",
      "outputs": [
        {
          "internalType": "uint256",
          "name": "",
          "type": "uint256"
        }
      ],
      "payable": false,
      "stateMutability": "nonpayable",
      "type": "function"
    },
    {
      "constant": true,
      "inputs": [],
      "name": "exchangeRateLast",
      "outputs": [
        {
          "internalType": "uint256",
          "name": "",
          "type": "uint256"
        }
      ],
      "payable": false,
      "stateMutability": "view",
      "type": "function"
    },
    {
      "constant": true,
      "inputs": [],
      "name": "factory",
      "outputs": [
        {
          "internalType": "address",
          "name": "",
          "type": "address"
        }
      ],
      "payable": false,
      "stateMutability": "view",
      "type": "function"
    },
    {
      "constant": true,
      "inputs": [],
      "name": "getBlockTimestamp",
      "outputs": [
        {
          "internalType": "uint32",
          "name": "",
          "type": "uint32"
        }
      ],
      "payable": false,
      "stateMutability": "view",
      "type": "function"
    },
    {
      "constant": true,
      "inputs": [],
      "name": "kinkBorrowRate",
      "outputs": [
        {
          "internalType": "uint48",
          "name": "",
          "type": "uint48"
        }
      ],
      "payable": false,
      "stateMutability": "view",
      "type": "function"
    },
    {
      "constant": true,
      "inputs": [],
      "name": "kinkUtilizationRate",
      "outputs": [
        {
          "internalType": "uint256",
          "name": "",
          "type": "uint256"
        }
      ],
      "payable": false,
      "stateMutability": "view",
      "type": "function"
    },
    {
      "constant": false,
      "inputs": [
        {
          "internalType": "address",
          "name": "minter",
          "type": "address"
        }
      ],
      "name": "mint",
      "outputs": [
        {
          "internalType": "uint256",
          "name": "mintTokens",
          "type": "uint256"
        }
      ],
      "payable": false,
      "stateMutability": "nonpayable",
      "type": "function"
    },
    {
      "constant": true,
      "inputs": [],
      "name": "name",
      "outputs": [
        {
          "internalType": "string",
          "name": "",
          "type": "string"
        }
      ],
      "payable": false,
      "stateMutability": "view",
      "type": "function"
    },
    {
      "constant": true,
      "inputs": [
        {
          "internalType": "address",
          "name": "",
          "type": "address"
        }
      ],
      "name": "nonces",
      "outputs": [
        {
          "internalType": "uint256",
          "name": "",
          "type": "uint256"
        }
      ],
      "payable": false,
      "stateMutability": "view",
      "type": "function"
    },
    {
      "constant": false,
      "inputs": [
        {
          "internalType": "address",
          "name": "owner",
          "type": "address"
        },
        {
          "internalType": "address",
          "name": "spender",
          "type": "address"
        },
        {
          "internalType": "uint256",
          "name": "value",
          "type": "uint256"
        },
        {
          "internalType": "uint256",
          "name": "deadline",
          "type": "uint256"
        },
        {
          "internalType": "uint8",
          "name": "v",
          "type": "uint8"
        },
        {
          "internalType": "bytes32",
          "name": "r",
          "type": "bytes32"
        },
        {
          "internalType": "bytes32",
          "name": "s",
          "type": "bytes32"
        }
      ],
      "name": "permit",
      "outputs": [],
      "payable": false,
      "stateMutability": "nonpayable",
      "type": "function"
    },
    {
      "constant": true,
      "inputs": [],
      "name": "rateUpdateTimestamp",
      "outputs": [
        {
          "internalType": "uint32",
          "name": "",
          "type": "uint32"
        }
      ],
      "payable": false,
      "stateMutability": "view",
      "type": "function"
    },
    {
      "constant": false,
      "inputs": [
        {
          "internalType": "address",
          "name": "redeemer",
          "type": "address"
        }
      ],
      "name": "redeem",
      "outputs": [
        {
          "internalType": "uint256",
          "name": "redeemAmount",
          "type": "uint256"
        }
      ],
      "payable": false,
      "stateMutability": "nonpayable",
      "type": "function"
    },
    {
      "constant": true,
      "inputs": [],
      "name": "reserveFactor",
      "outputs": [
        {
          "internalType": "uint256",
          "name": "",
          "type": "uint256"
        }
      ],
      "payable": false,
      "stateMutability": "view",
      "type": "function"
    },
    {
      "constant": false,
      "inputs": [
        {
          "internalType": "address",
          "name": "to",
          "type": "address"
        }
      ],
      "name": "skim",
      "outputs": [],
      "payable": false,
      "stateMutability": "nonpayable",
      "type": "function"
    },
    {
      "constant": true,
      "inputs": [],
      "name": "symbol",
      "outputs": [
        {
          "internalType": "string",
          "name": "",
          "type": "string"
        }
      ],
      "payable": false,
      "stateMutability": "view",
      "type": "function"
    },
    {
      "constant": false,
      "inputs": [],
      "name": "sync",
      "outputs": [],
      "payable": false,
      "stateMutability": "nonpayable",
      "type": "function"
    },
    {
      "constant": true,
      "inputs": [],
      "name": "totalBalance",
      "outputs": [
        {
          "internalType": "uint256",
          "name": "",
          "type": "uint256"
        }
      ],
      "payable": false,
      "stateMutability": "view",
      "type": "function"
    },
    {
      "constant": true,
      "inputs": [],
      "name": "totalBorrows",
      "outputs": [
        {
          "internalType": "uint112",
          "name": "",
          "type": "uint112"
        }
      ],
      "payable": false,
      "stateMutability": "view",
      "type": "function"
    },
    {
      "constant": true,
      "inputs": [],
      "name": "totalSupply",
      "outputs": [
        {
          "internalType": "uint256",
          "name": "",
          "type": "uint256"
        }
      ],
      "payable": false,
      "stateMutability": "view",
      "type": "function"
    },
    {
      "constant": false,
      "inputs": [
        {
          "internalType": "address",
          "name": "to",
          "type": "address"
        },
        {
          "internalType": "uint256",
          "name": "value",
          "type": "uint256"
        }
      ],
      "name": "transfer",
      "outputs": [
        {
          "internalType": "bool",
          "name": "",
          "type": "bool"
        }
      ],
      "payable": false,
      "stateMutability": "nonpayable",
      "type": "function"
    },
    {
      "constant": false,
      "inputs": [
        {
          "internalType": "address",
          "name": "from",
          "type": "address"
        },
        {
          "internalType": "address",
          "name": "to",
          "type": "address"
        },
        {
          "internalType": "uint256",
          "name": "value",
          "type": "uint256"
        }
      ],
      "name": "transferFrom",
      "outputs": [
        {
          "internalType": "bool",
          "name": "",
          "type": "bool"
        }
      ],
      "payable": false,
      "stateMutability": "nonpayable",
      "type": "function"
    },
    {
      "constant": true,
      "inputs": [],
      "name": "underlying",
      "outputs": [
        {
          "internalType": "address",
          "name": "",
          "type": "address"
        }
      ],
      "payable": false,
      "stateMutability": "view",
      "type": "function"
    }
  ],
  "bytecode": "0x60806040526002805460ff199081166012908117909255600b80549091166001179055600e80546001600160701b031916670de0b6b3a7640000176001600160e01b0316600160e01b4263ffffffff16908102919091179091556010805465ffffffffffff60301b191669bd014d800000000000001763ffffffff60601b19166c0100000000000000000000000090920291909117905567016345785d8a00006011556709b6e64a8ec6000090556486bd6db020601355611b07806100c56000396000f3fe608060405234801561001057600080fd5b50600436106102535760003560e01c8063796b89b911610146578063ba9a7a56116100c3578063d505accf11610087578063d505accf146105c1578063d8dfeb4514610612578063dd62ed3e1461061a578063e076600014610648578063e12b630614610650578063fff6cae91461065857610253565b8063ba9a7a561461057b578063bc25cf7714610583578063be340e32146105a9578063c45a0155146105b1578063c914b437146105b957610253565b8063a6afed951161010a578063a6afed951461052f578063a9059cbb14610537578063aa5af0fd14610563578063ad7a672f1461056b578063b95b92a31461057357610253565b8063796b89b9146104975780637ecebe00146104b857806391b42745146104de57806395a2251f1461050157806395d89b411461052757610253565b80634322b714116101d45780635b2b9d1a116101985780635b2b9d1a1461040d5780636a627842146104155780636bd76d241461043b5780636f307dc31461046957806370a082311461047157610253565b80634322b714146103ab578063452ae95f146103b357806347bd3718146103bb5780634a5d316c146103df57806355957220146103e957610253565b80632d5231d31161021b5780632d5231d31461036d57806330adf81f14610375578063313ce5671461037d5780633644e5151461039b5780633ba0b9a9146103a357610253565b806306fdde0314610258578063095ea7b3146102d557806318160ddd146103155780631aebf12f1461032f57806323b872dd14610337575b600080fd5b610260610660565b6040805160208082528351818301528351919283929083019185019080838360005b8381101561029a578181015183820152602001610282565b50505050905090810190601f1680156102c75780820380516001836020036101000a031916815260200191505b509250505060405180910390f35b610301600480360360408110156102eb57600080fd5b506001600160a01b0381351690602001356106ee565b604080519115158252519081900360200190f35b61031d610705565b60408051918252519081900360200190f35b61031d61070b565b6103016004803603606081101561034d57600080fd5b506001600160a01b03813581169160208101359091169060400135610711565b61031d6107e0565b61031d6107e6565b61038561080a565b6040805160ff9092168252519081900360200190f35b61031d610813565b61031d610819565b61031d610875565b61031d61087b565b6103c3610884565b604080516001600160701b039092168252519081900360200190f35b6103e761089a565b005b6103f161090c565b604080516001600160a01b039092168252519081900360200190f35b61031d61091b565b61031d6004803603602081101561042b57600080fd5b50356001600160a01b0316610920565b61031d6004803603604081101561045157600080fd5b506001600160a01b0381358116916020013516610b1e565b6103f1610b3b565b61031d6004803603602081101561048757600080fd5b50356001600160a01b0316610b4a565b61049f610b5c565b6040805163ffffffff9092168252519081900360200190f35b61031d600480360360208110156104ce57600080fd5b50356001600160a01b0316610b66565b6104e6610b78565b6040805165ffffffffffff9092168252519081900360200190f35b61031d6004803603602081101561051757600080fd5b50356001600160a01b0316610b90565b610260610d2e565b6103e7610d88565b6103016004803603604081101561054d57600080fd5b506001600160a01b038135169060200135610f36565b6103c3610f43565b61031d610f52565b61049f610f58565b61031d610f6b565b6103e76004803603602081101561059957600080fd5b50356001600160a01b0316610f71565b61031d61106b565b6103f1611071565b6104e6611080565b6103e7600480360360e08110156105d757600080fd5b506001600160a01b03813581169160208101359091169060408101359060608101359060ff6080820135169060a08101359060c0013561108e565b6103f16110d2565b61031d6004803603604081101561063057600080fd5b506001600160a01b03813581169160200135166110e6565b61031d611103565b61049f61110b565b6103e761111e565b6000805460408051602060026001851615610100026000190190941693909304601f810184900484028201840190925281815292918301828280156106e65780601f106106bb576101008083540402835291602001916106e6565b820191906000526020600020905b8154815290600101906020018083116106c957829003601f168201915b505050505081565b60006106fb338484611189565b5060015b92915050565b60035481565b60125481565b6001600160a01b0383166000908152600560209081526040808320338452909152812054600019146107cb57604080518082018252601b81527f456c656f733a205452414e534645525f4e4f545f414c4c4f57454400000000006020808301919091526001600160a01b03871660009081526005825283812033825290915291909120546107a691849063ffffffff6111eb16565b6001600160a01b03851660009081526005602090815260408083203384529091529020555b6107d6848484611282565b5060019392505050565b60135481565b7f6e71edae12b1b97f4d1f60370fef10105fa2faae0126114a169c64845d6126c981565b60025460ff1681565b60065481565b600354600a546000919081158061082e575080155b1561084557670de0b6b3a764000092505050610872565b61086d8261086183670de0b6b3a764000063ffffffff61137416565b9063ffffffff6113d416565b925050505b90565b60115481565b6407620d070081565b600e54600160701b90046001600160701b031681565b6009546001600160a01b0316156108f8576040805162461bcd60e51b815260206004820152601a60248201527f456c656f733a20464143544f52595f414c52454144595f534554000000000000604482015290519081900360640190fd5b600980546001600160a01b03191633179055565b6014546001600160a01b031681565b600581565b600b5460009060ff1661096d576040805162461bcd60e51b815260206004820152601060248201526f115b195bdcce8814915153951154915160821b604482015290519081900360640190fd5b600b805460ff19169055600854604080516370a0823160e01b815230600482015290516000926001600160a01b0316916370a08231916024808301926020929190829003018186803b1580156109c257600080fd5b505afa1580156109d6573d6000803e3d6000fd5b505050506040513d60208110156109ec57600080fd5b5051600a54909150600090610a0890839063ffffffff61141616565b9050610a2d610a15610819565b61086183670de0b6b3a764000063ffffffff61137416565b925060035460001415610a5b57610a4c836103e863ffffffff61141616565b9250610a5b60006103e8611458565b60008311610ab0576040805162461bcd60e51b815260206004820152601760248201527f456c656f733a204d494e545f414d4f554e545f5a45524f000000000000000000604482015290519081900360640190fd5b610aba8484611458565b604080518281526020810185905281516001600160a01b0387169233927f2f00e3cdd69a77be7ed215ec7b2a36784dd158f921fca79ac29deffa353fe6ee929081900390910190a35050610b0c6114ef565b600b805460ff19166001179055919050565b600c60209081526000928352604080842090915290825290205481565b6008546001600160a01b031681565b60046020526000908152604090205481565b63ffffffff421690565b60076020526000908152604090205481565b6010546601000000000000900465ffffffffffff1681565b600b5460009060ff16610bdd576040805162461bcd60e51b815260206004820152601060248201526f115b195bdcce8814915153951154915160821b604482015290519081900360640190fd5b600b805460ff1916905530600090815260046020526040902054610c1b670de0b6b3a7640000610861610c0e610819565b849063ffffffff61137416565b915060008211610c72576040805162461bcd60e51b815260206004820152601960248201527f456c656f733a2052454445454d5f414d4f554e545f5a45524f00000000000000604482015290519081900360640190fd5b600a54821115610cc9576040805162461bcd60e51b815260206004820152601860248201527f456c656f733a20494e53554646494349454e545f434153480000000000000000604482015290519081900360640190fd5b610cd3308261159f565b610cdd838361163c565b604080518381526020810183905281516001600160a01b0386169233927f3f693fff038bb8a046aa76d9516190ac7444f7d69cf952c4cbdc086fdef2d6fc929081900390910190a350610b0c6114ef565b60018054604080516020600284861615610100026000190190941693909304601f810184900484028201840190925281815292918301828280156106e65780601f106106bb576101008083540402835291602001916106e6565b600e546001600160701b0380821691600160701b810490911690600160e01b900463ffffffff166000610db9610b5c565b90508063ffffffff168263ffffffff161415610dd85750505050610f34565b600e805463ffffffff808416600160e01b026001600160e01b039092169190911790915560105483830391600091610e1f9165ffffffffffff909116908085169061137416565b90506000610e3f670de0b6b3a7640000610861848963ffffffff61137416565b9050610e51868263ffffffff6117ce16565b9550610e7f610e72670de0b6b3a7640000610861858b63ffffffff61137416565b889063ffffffff6117ce16565b9650610e8a87611828565b600e80546dffffffffffffffffffffffffffff19166001600160701b0392909216919091179055610eba86611828565b600e80546001600160701b0392909216600160701b026dffffffffffffffffffffffffffff60701b19909216919091179055604080518281526020810189905280820188905290517f875352fb3fadeb8c0be7cbbe8ff761b308fa7033470cd0287f02f3436fd76cb99181900360600190a1505050505050505b565b60006106fb338484611282565b600e546001600160701b031681565b600a5481565b600e54600160e01b900463ffffffff1681565b6103e881565b600b5460ff16610fbb576040805162461bcd60e51b815260206004820152601060248201526f115b195bdcce8814915153951154915160821b604482015290519081900360640190fd5b600b805460ff19169055600a54600854604080516370a0823160e01b8152306004820152905161105b9385936110569391926001600160a01b03909116916370a08231916024808301926020929190829003018186803b15801561101e57600080fd5b505afa158015611032573d6000803e3d6000fd5b505050506040513d602081101561104857600080fd5b50519063ffffffff61141616565b61163c565b50600b805460ff19166001179055565b600f5481565b6009546001600160a01b031681565b60105465ffffffffffff1681565b6110be878787878787877f6e71edae12b1b97f4d1f60370fef10105fa2faae0126114a169c64845d6126c9611877565b6110c9878787611189565b50505050505050565b600b5461010090046001600160a01b031681565b600560209081526000928352604080842090915290825290205481565b6312e687c081565b601054600160601b900463ffffffff1681565b600b5460ff16611168576040805162461bcd60e51b815260206004820152601060248201526f115b195bdcce8814915153951154915160821b604482015290519081900360640190fd5b600b805460ff1916905561117a6114ef565b600b805460ff19166001179055565b6001600160a01b03808416600081815260056020908152604080832094871680845294825291829020859055815185815291517f8c5be1e5ebec7d5bd14f71427d1e84f3dd0314c0f7b2291e5b200ac8c7c3b9259281900390910190a3505050565b6000818484111561127a5760405162461bcd60e51b81526004018080602001828103825283818151815260200191508051906020019080838360005b8381101561123f578181015183820152602001611227565b50505050905090810190601f16801561126c5780820380516001836020036101000a031916815260200191505b509250505060405180910390fd5b505050900390565b604080518082018252601881527f456c656f733a205452414e534645525f544f4f5f4849474800000000000000006020808301919091526001600160a01b0386166000908152600490915291909120546112e391839063ffffffff6111eb16565b6001600160a01b038085166000908152600460205260408082209390935590841681522054611318908263ffffffff6117ce16565b6001600160a01b0380841660008181526004602090815260409182902094909455805185815290519193928716927fddf252ad1be2c89b69c2b068fc378daa952ba7f163c4a11628f55a4df523b3ef92918290030190a3505050565b600082611383575060006106ff565b8282028284828161139057fe5b04146113cd5760405162461bcd60e51b8152600401808060200182810382526021815260200180611ab26021913960400191505060405180910390fd5b9392505050565b60006113cd83836040518060400160405280601a81526020017f536166654d6174683a206469766973696f6e206279207a65726f000000000000815250611a4c565b60006113cd83836040518060400160405280601f81526020017f536166654d6174683a207375627472616374696f6e20756e646572666c6f77008152506111eb565b60035461146b908263ffffffff6117ce16565b6003556001600160a01b038216600090815260046020526040902054611497908263ffffffff6117ce16565b6001600160a01b03831660008181526004602090815260408083209490945583518581529351929391927fddf252ad1be2c89b69c2b068fc378daa952ba7f163c4a11628f55a4df523b3ef9281900390910190a35050565b600854604080516370a0823160e01b815230600482015290516001600160a01b03909216916370a0823191602480820192602092909190829003018186803b15801561153a57600080fd5b505afa15801561154e573d6000803e3d6000fd5b505050506040513d602081101561156457600080fd5b5051600a81905560408051918252517f8a0df8ef054fae2c3d2d19a7b322e864870cc9fd3cb07fb9526309c596244bf49181900360200190a1565b6001600160a01b0382166000908152600460205260409020546115c8908263ffffffff61141616565b6001600160a01b0383166000908152600460205260409020556003546115f4908263ffffffff61141616565b6003556040805182815290516000916001600160a01b038516917fddf252ad1be2c89b69c2b068fc378daa952ba7f163c4a11628f55a4df523b3ef9181900360200190a35050565b600854604080518082018252601981527f7472616e7366657228616464726573732c75696e74323536290000000000000060209182015281516001600160a01b0386811660248301526044808301879052845180840390910181526064909201845291810180516001600160e01b031663a9059cbb60e01b1781529251815160009560609594169382918083835b602083106116e95780518252601f1990920191602091820191016116ca565b6001836020036101000a0380198251168184511680821785525050505050509050019150506000604051808303816000865af19150503d806000811461174b576040519150601f19603f3d011682016040523d82523d6000602084013e611750565b606091505b509150915081801561177e57508051158061177e575080806020019051602081101561177b57600080fd5b50515b6117c8576040805162461bcd60e51b8152602060048201526016602482015275115b195bdcce881514905394d1915497d1905253115160521b604482015290519081900360640190fd5b50505050565b6000828201838110156113cd576040805162461bcd60e51b815260206004820152601b60248201527f536166654d6174683a206164646974696f6e206f766572666c6f770000000000604482015290519081900360640190fd5b6000600160701b8210611873576040805162461bcd60e51b815260206004820152600e60248201526d22b632b7b99d1029a0a32298989960911b604482015290519081900360640190fd5b5090565b428510156118bd576040805162461bcd60e51b815260206004820152600e60248201526d115b195bdcce881156141254915160921b604482015290519081900360640190fd5b6006546001600160a01b03808a1660008181526007602090815260408083208054600180820190925582518085018a905280840196909652958e166060860152608085018d905260a085019590955260c08085018c90528151808603909101815260e08501825280519083012061190160f01b6101008601526101028501969096526101228085019690965280518085039096018652610142840180825286519683019690962095839052610162840180825286905260ff8a166101828501526101a284018990526101c28401889052519193926101e280820193601f1981019281900390910190855afa1580156119b9573d6000803e3d6000fd5b5050604051601f1901519150506001600160a01b038116158015906119ef5750896001600160a01b0316816001600160a01b0316145b611a40576040805162461bcd60e51b815260206004820152601860248201527f456c656f733a20494e56414c49445f5349474e41545552450000000000000000604482015290519081900360640190fd5b50505050505050505050565b60008183611a9b5760405162461bcd60e51b815260206004820181815283516024840152835190928392604490910191908501908083836000831561123f578181015183820152602001611227565b506000838581611aa757fe5b049594505050505056fe536166654d6174683a206d756c7469706c69636174696f6e206f766572666c6f77a265627a7a72315820cae930c438daff458dc44b4fe6086951a3bb0dde7d32fd4856a97b543253ae7664736f6c63430005100032",
  "linkReferences": {},
  "deployedLinkReferences": {}
}