{
  "_format": "hh-sol-artifact-1",
  "contractName": "MockUniswapV2Factory",
  "sourceName": "test/Contracts/MockUniswapV2Factory.sol",
  "abi": [
    {
      "inputs": [],
      "payable": false,
      "stateMutability": "nonpayable",
      "type": "constructor"
    },
    {
      "constant": false,
      "inputs": [
        {
          "internalType": "address",
          "name": "token0",
          "type": "address"
        },
        {
          "internalType": "address",
          "name": "token1",
          "type": "address"
        },
        {
          "internalType": "address",
          "name": "uniPair",
          "type": "address"
        }
      ],
      "name": "addPair",
      "outputs": [],
      "payable": false,
      "stateMutability": "nonpayable",
      "type": "function"
    },
    {
      "constant": true,
      "inputs": [
        {
          "internalType": "address",
          "name": "",
          "type": "address"
        },
        {
          "internalType": "address",
          "name": "",
          "type": "address"
        }
      ],
      "name": "getPair",
      "outputs": [
        {
          "internalType": "address",
          "name": "",
          "type": "address"
        }
      ],
      "payable": false,
      "stateMutability": "view",
      "type": "function"
    }
  ],
  "bytecode": "0x608060405234801561001057600080fd5b5061016e806100206000396000f3fe608060405234801561001057600080fd5b50600436106100365760003560e01c8063e6a439051461003b578063f1ec23cf14610085575b600080fd5b6100696004803603604081101561005157600080fd5b506001600160a01b03813581169160200135166100bf565b604080516001600160a01b039092168252519081900360200190f35b6100bd6004803603606081101561009b57600080fd5b506001600160a01b0381358116916020810135821691604090910135166100e2565b005b60006020818152928152604080822090935290815220546001600160a01b031681565b6001600160a01b0392831660008181526020818152604080832095871683529481528482208054969094166001600160a01b031996871681179094558181528482209282529190915291909120805490921617905556fea265627a7a72315820731a6e79612d0c09d8b7f486fe94362e272f51e178eb6326f032df44880cb24064736f6c63430005100032",
  "linkReferences": {},
  "deployedLinkReferences": {}
}