{
  "_format": "hh-sol-artifact-1",
  "contractName": "BAllowanceHarness",
  "sourceName": "test/Contracts/BAllowanceHarness.sol",
  "abi": [
    {
      "inputs": [
        {
          "internalType": "string",
          "name": "_name",
          "type": "string"
        },
        {
          "internalType": "string",
          "name": "_symbol",
          "type": "string"
        }
      ],
      "payable": false,
      "stateMutability": "nonpayable",
      "type": "constructor"
    },
    {
      "anonymous": false,
      "inputs": [
        {
          "indexed": true,
          "internalType": "address",
          "name": "owner",
          "type": "address"
        },
        {
          "indexed": true,
          "internalType": "address",
          "name": "spender",
          "type": "address"
        },
        {
          "indexed": false,
          "internalType": "uint256",
          "name": "value",
          "type": "uint256"
        }
      ],
      "name": "Approval",
      "type": "event"
    },
    {
      "anonymous": false,
      "inputs": [
        {
          "indexed": true,
          "internalType": "address",
          "name": "owner",
          "type": "address"
        },
        {
          "indexed": true,
          "internalType": "address",
          "name": "spender",
          "type": "address"
        },
        {
          "indexed": false,
          "internalType": "uint256",
          "name": "value",
          "type": "uint256"
        }
      ],
      "name": "BorrowApproval",
      "type": "event"
    },
    {
      "anonymous": false,
      "inputs": [
        {
          "indexed": true,
          "internalType": "address",
          "name": "sender",
          "type": "address"
        },
        {
          "indexed": true,
          "internalType": "address",
          "name": "minter",
          "type": "address"
        },
        {
          "indexed": false,
          "internalType": "uint256",
          "name": "mintAmount",
          "type": "uint256"
        },
        {
          "indexed": false,
          "internalType": "uint256",
          "name": "mintTokens",
          "type": "uint256"
        }
      ],
      "name": "Mint",
      "type": "event"
    },
    {
      "anonymous": false,
      "inputs": [
        {
          "indexed": true,
          "internalType": "address",
          "name": "sender",
          "type": "address"
        },
        {
          "indexed": true,
          "internalType": "address",
          "name": "redeemer",
          "type": "address"
        },
        {
          "indexed": false,
          "internalType": "uint256",
          "name": "redeemAmount",
          "type": "uint256"
        },
        {
          "indexed": false,
          "internalType": "uint256",
          "name": "redeemTokens",
          "type": "uint256"
        }
      ],
      "name": "Redeem",
      "type": "event"
    },
    {
      "anonymous": false,
      "inputs": [
        {
          "indexed": false,
          "internalType": "uint256",
          "name": "totalBalance",
          "type": "uint256"
        }
      ],
      "name": "Sync",
      "type": "event"
    },
    {
      "anonymous": false,
      "inputs": [
        {
          "indexed": true,
          "internalType": "address",
          "name": "from",
          "type": "address"
        },
        {
          "indexed": true,
          "internalType": "address",
          "name": "to",
          "type": "address"
        },
        {
          "indexed": false,
          "internalType": "uint256",
          "name": "value",
          "type": "uint256"
        }
      ],
      "name": "Transfer",
      "type": "event"
    },
    {
      "constant": true,
      "inputs": [],
      "name": "BORROW_PERMIT_TYPEHASH",
      "outputs": [
        {
          "internalType": "bytes32",
          "name": "",
          "type": "bytes32"
        }
      ],
      "payable": false,
      "stateMutability": "view",
      "type": "function"
    },
    {
      "constant": true,
      "inputs": [],
      "name": "DOMAIN_SEPARATOR",
      "outputs": [
        {
          "internalType": "bytes32",
          "name": "",
          "type": "bytes32"
        }
      ],
      "payable": false,
      "stateMutability": "view",
      "type": "function"
    },
    {
      "constant": true,
      "inputs": [],
      "name": "MINIMUM_LIQUIDITY",
      "outputs": [
        {
          "internalType": "uint256",
          "name": "",
          "type": "uint256"
        }
      ],
      "payable": false,
      "stateMutability": "view",
      "type": "function"
    },
    {
      "constant": true,
      "inputs": [],
      "name": "PERMIT_TYPEHASH",
      "outputs": [
        {
          "internalType": "bytes32",
          "name": "",
          "type": "bytes32"
        }
      ],
      "payable": false,
      "stateMutability": "view",
      "type": "function"
    },
    {
      "constant": false,
      "inputs": [],
      "name": "_setFactory",
      "outputs": [],
      "payable": false,
      "stateMutability": "nonpayable",
      "type": "function"
    },
    {
      "constant": true,
      "inputs": [],
      "name": "accrualTimestamp",
      "outputs": [
        {
          "internalType": "uint32",
          "name": "",
          "type": "uint32"
        }
      ],
      "payable": false,
      "stateMutability": "view",
      "type": "function"
    },
    {
      "constant": true,
      "inputs": [],
      "name": "adjustSpeed",
      "outputs": [
        {
          "internalType": "uint256",
          "name": "",
          "type": "uint256"
        }
      ],
      "payable": false,
      "stateMutability": "view",
      "type": "function"
    },
    {
      "constant": true,
      "inputs": [
        {
          "internalType": "address",
          "name": "",
          "type": "address"
        },
        {
          "internalType": "address",
          "name": "",
          "type": "address"
        }
      ],
      "name": "allowance",
      "outputs": [
        {
          "internalType": "uint256",
          "name": "",
          "type": "uint256"
        }
      ],
      "payable": false,
      "stateMutability": "view",
      "type": "function"
    },
    {
      "constant": false,
      "inputs": [
        {
          "internalType": "address",
          "name": "spender",
          "type": "address"
        },
        {
          "internalType": "uint256",
          "name": "value",
          "type": "uint256"
        }
      ],
      "name": "approve",
      "outputs": [
        {
          "internalType": "bool",
          "name": "",
          "type": "bool"
        }
      ],
      "payable": false,
      "stateMutability": "nonpayable",
      "type": "function"
    },
    {
      "constant": true,
      "inputs": [
        {
          "internalType": "address",
          "name": "",
          "type": "address"
        }
      ],
      "name": "balanceOf",
      "outputs": [
        {
          "internalType": "uint256",
          "name": "",
          "type": "uint256"
        }
      ],
      "payable": false,
      "stateMutability": "view",
      "type": "function"
    },
    {
      "constant": true,
      "inputs": [
        {
          "internalType": "address",
          "name": "",
          "type": "address"
        },
        {
          "internalType": "address",
          "name": "",
          "type": "address"
        }
      ],
      "name": "borrowAllowance",
      "outputs": [
        {
          "internalType": "uint256",
          "name": "",
          "type": "uint256"
        }
      ],
      "payable": false,
      "stateMutability": "view",
      "type": "function"
    },
    {
      "constant": false,
      "inputs": [
        {
          "internalType": "address",
          "name": "spender",
          "type": "address"
        },
        {
          "internalType": "uint256",
          "name": "value",
          "type": "uint256"
        }
      ],
      "name": "borrowApprove",
      "outputs": [
        {
          "internalType": "bool",
          "name": "",
          "type": "bool"
        }
      ],
      "payable": false,
      "stateMutability": "nonpayable",
      "type": "function"
    },
    {
      "constant": true,
      "inputs": [],
      "name": "borrowIndex",
      "outputs": [
        {
          "internalType": "uint112",
          "name": "",
          "type": "uint112"
        }
      ],
      "payable": false,
      "stateMutability": "view",
      "type": "function"
    },
    {
      "constant": false,
      "inputs": [
        {
          "internalType": "address",
          "name": "owner",
          "type": "address"
        },
        {
          "internalType": "address",
          "name": "spender",
          "type": "address"
        },
        {
          "internalType": "uint256",
          "name": "value",
          "type": "uint256"
        },
        {
          "internalType": "uint256",
          "name": "deadline",
          "type": "uint256"
        },
        {
          "internalType": "uint8",
          "name": "v",
          "type": "uint8"
        },
        {
          "internalType": "bytes32",
          "name": "r",
          "type": "bytes32"
        },
        {
          "internalType": "bytes32",
          "name": "s",
          "type": "bytes32"
        }
      ],
      "name": "borrowPermit",
      "outputs": [],
      "payable": false,
      "stateMutability": "nonpayable",
      "type": "function"
    },
    {
      "constant": true,
      "inputs": [],
      "name": "borrowRate",
      "outputs": [
        {
          "internalType": "uint48",
          "name": "",
          "type": "uint48"
        }
      ],
      "payable": false,
      "stateMutability": "view",
      "type": "function"
    },
    {
      "constant": true,
      "inputs": [],
      "name": "borrowTracker",
      "outputs": [
        {
          "internalType": "address",
          "name": "",
          "type": "address"
        }
      ],
      "payable": false,
      "stateMutability": "view",
      "type": "function"
    },
    {
      "constant": false,
      "inputs": [
        {
          "internalType": "address",
          "name": "owner",
          "type": "address"
        },
        {
          "internalType": "address",
          "name": "spender",
          "type": "address"
        },
        {
          "internalType": "uint256",
          "name": "amount",
          "type": "uint256"
        }
      ],
      "name": "checkBorrowAllowance",
      "outputs": [],
      "payable": false,
      "stateMutability": "nonpayable",
      "type": "function"
    },
    {
      "constant": true,
      "inputs": [],
      "name": "collateral",
      "outputs": [
        {
          "internalType": "address",
          "name": "",
          "type": "address"
        }
      ],
      "payable": false,
      "stateMutability": "view",
      "type": "function"
    },
    {
      "constant": true,
      "inputs": [],
      "name": "decimals",
      "outputs": [
        {
          "internalType": "uint8",
          "name": "",
          "type": "uint8"
        }
      ],
      "payable": false,
      "stateMutability": "view",
      "type": "function"
    },
    {
      "constant": false,
      "inputs": [],
      "name": "exchangeRate",
      "outputs": [
        {
          "internalType": "uint256",
          "name": "",
          "type": "uint256"
        }
      ],
      "payable": false,
      "stateMutability": "nonpayable",
      "type": "function"
    },
    {
      "constant": true,
      "inputs": [],
      "name": "exchangeRateLast",
      "outputs": [
        {
          "internalType": "uint256",
          "name": "",
          "type": "uint256"
        }
      ],
      "payable": false,
      "stateMutability": "view",
      "type": "function"
    },
    {
      "constant": true,
      "inputs": [],
      "name": "factory",
      "outputs": [
        {
          "internalType": "address",
          "name": "",
          "type": "address"
        }
      ],
      "payable": false,
      "stateMutability": "view",
      "type": "function"
    },
    {
      "constant": true,
      "inputs": [],
      "name": "kinkBorrowRate",
      "outputs": [
        {
          "internalType": "uint48",
          "name": "",
          "type": "uint48"
        }
      ],
      "payable": false,
      "stateMutability": "view",
      "type": "function"
    },
    {
      "constant": true,
      "inputs": [],
      "name": "kinkUtilizationRate",
      "outputs": [
        {
          "internalType": "uint256",
          "name": "",
          "type": "uint256"
        }
      ],
      "payable": false,
      "stateMutability": "view",
      "type": "function"
    },
    {
      "constant": false,
      "inputs": [
        {
          "internalType": "address",
          "name": "minter",
          "type": "address"
        }
      ],
      "name": "mint",
      "outputs": [
        {
          "internalType": "uint256",
          "name": "mintTokens",
          "type": "uint256"
        }
      ],
      "payable": false,
      "stateMutability": "nonpayable",
      "type": "function"
    },
    {
      "constant": true,
      "inputs": [],
      "name": "name",
      "outputs": [
        {
          "internalType": "string",
          "name": "",
          "type": "string"
        }
      ],
      "payable": false,
      "stateMutability": "view",
      "type": "function"
    },
    {
      "constant": true,
      "inputs": [
        {
          "internalType": "address",
          "name": "",
          "type": "address"
        }
      ],
      "name": "nonces",
      "outputs": [
        {
          "internalType": "uint256",
          "name": "",
          "type": "uint256"
        }
      ],
      "payable": false,
      "stateMutability": "view",
      "type": "function"
    },
    {
      "constant": false,
      "inputs": [
        {
          "internalType": "address",
          "name": "owner",
          "type": "address"
        },
        {
          "internalType": "address",
          "name": "spender",
          "type": "address"
        },
        {
          "internalType": "uint256",
          "name": "value",
          "type": "uint256"
        },
        {
          "internalType": "uint256",
          "name": "deadline",
          "type": "uint256"
        },
        {
          "internalType": "uint8",
          "name": "v",
          "type": "uint8"
        },
        {
          "internalType": "bytes32",
          "name": "r",
          "type": "bytes32"
        },
        {
          "internalType": "bytes32",
          "name": "s",
          "type": "bytes32"
        }
      ],
      "name": "permit",
      "outputs": [],
      "payable": false,
      "stateMutability": "nonpayable",
      "type": "function"
    },
    {
      "constant": true,
      "inputs": [],
      "name": "rateUpdateTimestamp",
      "outputs": [
        {
          "internalType": "uint32",
          "name": "",
          "type": "uint32"
        }
      ],
      "payable": false,
      "stateMutability": "view",
      "type": "function"
    },
    {
      "constant": false,
      "inputs": [
        {
          "internalType": "address",
          "name": "redeemer",
          "type": "address"
        }
      ],
      "name": "redeem",
      "outputs": [
        {
          "internalType": "uint256",
          "name": "redeemAmount",
          "type": "uint256"
        }
      ],
      "payable": false,
      "stateMutability": "nonpayable",
      "type": "function"
    },
    {
      "constant": true,
      "inputs": [],
      "name": "reserveFactor",
      "outputs": [
        {
          "internalType": "uint256",
          "name": "",
          "type": "uint256"
        }
      ],
      "payable": false,
      "stateMutability": "view",
      "type": "function"
    },
    {
      "constant": false,
      "inputs": [
        {
          "internalType": "address",
          "name": "to",
          "type": "address"
        }
      ],
      "name": "skim",
      "outputs": [],
      "payable": false,
      "stateMutability": "nonpayable",
      "type": "function"
    },
    {
      "constant": true,
      "inputs": [],
      "name": "symbol",
      "outputs": [
        {
          "internalType": "string",
          "name": "",
          "type": "string"
        }
      ],
      "payable": false,
      "stateMutability": "view",
      "type": "function"
    },
    {
      "constant": false,
      "inputs": [],
      "name": "sync",
      "outputs": [],
      "payable": false,
      "stateMutability": "nonpayable",
      "type": "function"
    },
    {
      "constant": true,
      "inputs": [],
      "name": "totalBalance",
      "outputs": [
        {
          "internalType": "uint256",
          "name": "",
          "type": "uint256"
        }
      ],
      "payable": false,
      "stateMutability": "view",
      "type": "function"
    },
    {
      "constant": true,
      "inputs": [],
      "name": "totalBorrows",
      "outputs": [
        {
          "internalType": "uint112",
          "name": "",
          "type": "uint112"
        }
      ],
      "payable": false,
      "stateMutability": "view",
      "type": "function"
    },
    {
      "constant": true,
      "inputs": [],
      "name": "totalSupply",
      "outputs": [
        {
          "internalType": "uint256",
          "name": "",
          "type": "uint256"
        }
      ],
      "payable": false,
      "stateMutability": "view",
      "type": "function"
    },
    {
      "constant": false,
      "inputs": [
        {
          "internalType": "address",
          "name": "to",
          "type": "address"
        },
        {
          "internalType": "uint256",
          "name": "value",
          "type": "uint256"
        }
      ],
      "name": "transfer",
      "outputs": [
        {
          "internalType": "bool",
          "name": "",
          "type": "bool"
        }
      ],
      "payable": false,
      "stateMutability": "nonpayable",
      "type": "function"
    },
    {
      "constant": false,
      "inputs": [
        {
          "internalType": "address",
          "name": "from",
          "type": "address"
        },
        {
          "internalType": "address",
          "name": "to",
          "type": "address"
        },
        {
          "internalType": "uint256",
          "name": "value",
          "type": "uint256"
        }
      ],
      "name": "transferFrom",
      "outputs": [
        {
          "internalType": "bool",
          "name": "",
          "type": "bool"
        }
      ],
      "payable": false,
      "stateMutability": "nonpayable",
      "type": "function"
    },
    {
      "constant": true,
      "inputs": [],
      "name": "underlying",
      "outputs": [
        {
          "internalType": "address",
          "name": "",
          "type": "address"
        }
      ],
      "payable": false,
      "stateMutability": "view",
      "type": "function"
    }
  ],
  "bytecode": "0x60806040526002805460ff199081166012908117909255600b80549091166001179055600e80546001600160701b031916670de0b6b3a7640000176001600160e01b0316600160e01b4263ffffffff16908102919091179091556010805465ffffffffffff60301b191669bd014d800000000000001763ffffffff60601b19166c0100000000000000000000000090920291909117905567016345785d8a00006011556709b6e64a8ec6000090556486bd6db020601355348015620000c357600080fd5b5060405162001f4e38038062001f4e83398181016040526040811015620000e957600080fd5b81019080805160405193929190846401000000008211156200010a57600080fd5b9083019060208201858111156200012057600080fd5b82516401000000008111828201881017156200013b57600080fd5b82525081516020918201929091019080838360005b838110156200016a57818101518382015260200162000150565b50505050905090810190601f168015620001985780820380516001836020036101000a031916815260200191505b5060405260200180516040519392919084640100000000821115620001bc57600080fd5b908301906020820185811115620001d257600080fd5b8251640100000000811182820188101715620001ed57600080fd5b82525081516020918201929091019080838360005b838110156200021c57818101518382015260200162000202565b50505050905090810190601f1680156200024a5780820380516001836020036101000a031916815260200191505b506040525050506200026382826200026b60201b60201c565b5050620003dd565b81516200028090600090602085019062000338565b5080516200029690600190602084019062000338565b50604051469080605262001efc8239604080519182900360520182208651602097880120838301835260018452603160f81b93880193909352815180880191909152808201929092527fc89efdaa54c0f20c7adf612882df0950f5a951637e0307cdcb4c672f298b8bc6606083015260808201939093523060a0808301919091528351808303909101815260c090910190925250805192019190912060065550565b828054600181600116156101000203166002900490600052602060002090601f016020900481019282601f106200037b57805160ff1916838001178555620003ab565b82800160010185558215620003ab579182015b82811115620003ab5782518255916020019190600101906200038e565b50620003b9929150620003bd565b5090565b620003da91905b80821115620003b95760008155600101620003c4565b90565b611b0f80620003ed6000396000f3fe608060405234801561001057600080fd5b50600436106102485760003560e01c80637ecebe001161013b578063ba9a7a56116100b8578063d505accf1161007c578063d505accf14610651578063d8dfeb45146106a2578063dd62ed3e146106aa578063e12b6306146106d8578063fff6cae9146106e057610248565b8063ba9a7a561461060b578063bc25cf7714610613578063be340e3214610639578063c45a015514610641578063c914b4371461064957610248565b80639e79b55c116100ff5780639e79b55c1461055d578063a9059cbb146105ae578063aa5af0fd146105da578063ad7a672f146105e2578063b95b92a3146105ea57610248565b80637ecebe00146104ba57806391b42745146104e0578063926d845b1461050357806395a2251f1461052f57806395d89b411461055557610248565b806338216ecb116101c9578063559572201161018d57806355957220146104145780636a627842146104385780636bd76d241461045e5780636f307dc31461048c57806370a082311461049457610248565b806338216ecb146103a05780633ba0b9a9146103d85780634322b714146103e057806347bd3718146103e85780634a5d316c1461040c57610248565b806323b872dd1161021057806323b872dd146103345780632d5231d31461036a57806330adf81f14610372578063313ce5671461037a5780633644e5151461039857610248565b806301f8c1c81461024d57806306fdde0314610267578063095ea7b3146102e457806318160ddd146103245780631aebf12f1461032c575b600080fd5b6102556106e8565b60408051918252519081900360200190f35b61026f61070c565b6040805160208082528351818301528351919283929083019185019080838360005b838110156102a9578181015183820152602001610291565b50505050905090810190601f1680156102d65780820380516001836020036101000a031916815260200191505b509250505060405180910390f35b610310600480360360408110156102fa57600080fd5b506001600160a01b03813516906020013561079a565b604080519115158252519081900360200190f35b6102556107b1565b6102556107b7565b6103106004803603606081101561034a57600080fd5b506001600160a01b038135811691602081013590911690604001356107bd565b61025561088c565b610255610892565b6103826108b6565b6040805160ff9092168252519081900360200190f35b6102556108bf565b6103d6600480360360608110156103b657600080fd5b506001600160a01b038135811691602081013590911690604001356108c5565b005b6102556108d5565b610255610931565b6103f0610937565b604080516001600160701b039092168252519081900360200190f35b6103d661094d565b61041c6109bf565b604080516001600160a01b039092168252519081900360200190f35b6102556004803603602081101561044e57600080fd5b50356001600160a01b03166109ce565b6102556004803603604081101561047457600080fd5b506001600160a01b0381358116916020013516610bcc565b61041c610be9565b610255600480360360208110156104aa57600080fd5b50356001600160a01b0316610bf8565b610255600480360360208110156104d057600080fd5b50356001600160a01b0316610c0a565b6104e8610c1c565b6040805165ffffffffffff9092168252519081900360200190f35b6103106004803603604081101561051957600080fd5b506001600160a01b038135169060200135610c34565b6102556004803603602081101561054557600080fd5b50356001600160a01b0316610c41565b61026f610ddf565b6103d6600480360360e081101561057357600080fd5b506001600160a01b03813581169160208101359091169060408101359060608101359060ff6080820135169060a08101359060c00135610e39565b610310600480360360408110156105c457600080fd5b506001600160a01b038135169060200135610e7d565b6103f0610e8a565b610255610e99565b6105f2610e9f565b6040805163ffffffff9092168252519081900360200190f35b610255610eb2565b6103d66004803603602081101561062957600080fd5b50356001600160a01b0316610eb8565b610255610fb2565b61041c610fb8565b6104e8610fc7565b6103d6600480360360e081101561066757600080fd5b506001600160a01b03813581169160208101359091169060408101359060608101359060ff6080820135169060a08101359060c00135610fd5565b61041c611010565b610255600480360360408110156106c057600080fd5b506001600160a01b0381358116916020013516611024565b6105f2611041565b6103d6611054565b7ff6d86ed606f871fa1a557ac0ba607adce07767acf53f492fb215a1a4db4aea6f81565b6000805460408051602060026001851615610100026000190190941693909304601f810184900484028201840190925281815292918301828280156107925780601f1061076757610100808354040283529160200191610792565b820191906000526020600020905b81548152906001019060200180831161077557829003601f168201915b505050505081565b60006107a73384846110bf565b5060015b92915050565b60035481565b60125481565b6001600160a01b03831660009081526005602090815260408083203384529091528120546000191461087757604080518082018252601b81527f456c656f733a205452414e534645525f4e4f545f414c4c4f57454400000000006020808301919091526001600160a01b038716600090815260058252838120338252909152919091205461085291849063ffffffff61112116565b6001600160a01b03851660009081526005602090815260408083203384529091529020555b6108828484846111b8565b5060019392505050565b60135481565b7f6e71edae12b1b97f4d1f60370fef10105fa2faae0126114a169c64845d6126c981565b60025460ff1681565b60065481565b6108d08383836112aa565b505050565b600354600a54600091908115806108ea575080155b1561090157670de0b6b3a76400009250505061092e565b6109298261091d83670de0b6b3a764000063ffffffff61136f16565b9063ffffffff6113cf16565b925050505b90565b60115481565b600e54600160701b90046001600160701b031681565b6009546001600160a01b0316156109ab576040805162461bcd60e51b815260206004820152601a60248201527f456c656f733a20464143544f52595f414c52454144595f534554000000000000604482015290519081900360640190fd5b600980546001600160a01b03191633179055565b6014546001600160a01b031681565b600b5460009060ff16610a1b576040805162461bcd60e51b815260206004820152601060248201526f115b195bdcce8814915153951154915160821b604482015290519081900360640190fd5b600b805460ff19169055600854604080516370a0823160e01b815230600482015290516000926001600160a01b0316916370a08231916024808301926020929190829003018186803b158015610a7057600080fd5b505afa158015610a84573d6000803e3d6000fd5b505050506040513d6020811015610a9a57600080fd5b5051600a54909150600090610ab690839063ffffffff61141116565b9050610adb610ac36108d5565b61091d83670de0b6b3a764000063ffffffff61136f16565b925060035460001415610b0957610afa836103e863ffffffff61141116565b9250610b0960006103e8611453565b60008311610b5e576040805162461bcd60e51b815260206004820152601760248201527f456c656f733a204d494e545f414d4f554e545f5a45524f000000000000000000604482015290519081900360640190fd5b610b688484611453565b604080518281526020810185905281516001600160a01b0387169233927f2f00e3cdd69a77be7ed215ec7b2a36784dd158f921fca79ac29deffa353fe6ee929081900390910190a35050610bba6114ea565b600b805460ff19166001179055919050565b600c60209081526000928352604080842090915290825290205481565b6008546001600160a01b031681565b60046020526000908152604090205481565b60076020526000908152604090205481565b6010546601000000000000900465ffffffffffff1681565b60006107a733848461159a565b600b5460009060ff16610c8e576040805162461bcd60e51b815260206004820152601060248201526f115b195bdcce8814915153951154915160821b604482015290519081900360640190fd5b600b805460ff1916905530600090815260046020526040902054610ccc670de0b6b3a764000061091d610cbf6108d5565b849063ffffffff61136f16565b915060008211610d23576040805162461bcd60e51b815260206004820152601960248201527f456c656f733a2052454445454d5f414d4f554e545f5a45524f00000000000000604482015290519081900360640190fd5b600a54821115610d7a576040805162461bcd60e51b815260206004820152601860248201527f456c656f733a20494e53554646494349454e545f434153480000000000000000604482015290519081900360640190fd5b610d8430826115fc565b610d8e8383611699565b604080518381526020810183905281516001600160a01b0386169233927f3f693fff038bb8a046aa76d9516190ac7444f7d69cf952c4cbdc086fdef2d6fc929081900390910190a350610bba6114ea565b60018054604080516020600284861615610100026000190190941693909304601f810184900484028201840190925281815292918301828280156107925780601f1061076757610100808354040283529160200191610792565b610e69878787878787877ff6d86ed606f871fa1a557ac0ba607adce07767acf53f492fb215a1a4db4aea6f611825565b610e7487878761159a565b50505050505050565b60006107a73384846111b8565b600e546001600160701b031681565b600a5481565b600e54600160e01b900463ffffffff1681565b6103e881565b600b5460ff16610f02576040805162461bcd60e51b815260206004820152601060248201526f115b195bdcce8814915153951154915160821b604482015290519081900360640190fd5b600b805460ff19169055600a54600854604080516370a0823160e01b81523060048201529051610fa2938593610f9d9391926001600160a01b03909116916370a08231916024808301926020929190829003018186803b158015610f6557600080fd5b505afa158015610f79573d6000803e3d6000fd5b505050506040513d6020811015610f8f57600080fd5b50519063ffffffff61141116565b611699565b50600b805460ff19166001179055565b600f5481565b6009546001600160a01b031681565b60105465ffffffffffff1681565b611005878787878787877f6e71edae12b1b97f4d1f60370fef10105fa2faae0126114a169c64845d6126c9611825565b610e748787876110bf565b600b5461010090046001600160a01b031681565b600560209081526000928352604080842090915290825290205481565b601054600160601b900463ffffffff1681565b600b5460ff1661109e576040805162461bcd60e51b815260206004820152601060248201526f115b195bdcce8814915153951154915160821b604482015290519081900360640190fd5b600b805460ff191690556110b06114ea565b600b805460ff19166001179055565b6001600160a01b03808416600081815260056020908152604080832094871680845294825291829020859055815185815291517f8c5be1e5ebec7d5bd14f71427d1e84f3dd0314c0f7b2291e5b200ac8c7c3b9259281900390910190a3505050565b600081848411156111b05760405162461bcd60e51b81526004018080602001828103825283818151815260200191508051906020019080838360005b8381101561117557818101518382015260200161115d565b50505050905090810190601f1680156111a25780820380516001836020036101000a031916815260200191505b509250505060405180910390fd5b505050900390565b604080518082018252601881527f456c656f733a205452414e534645525f544f4f5f4849474800000000000000006020808301919091526001600160a01b03861660009081526004909152919091205461121991839063ffffffff61112116565b6001600160a01b03808516600090815260046020526040808220939093559084168152205461124e908263ffffffff6119fa16565b6001600160a01b0380841660008181526004602090815260409182902094909455805185815290519193928716927fddf252ad1be2c89b69c2b068fc378daa952ba7f163c4a11628f55a4df523b3ef92918290030190a3505050565b6001600160a01b038084166000818152600c602090815260408083209487168084529490915290205491148015906112e457506000198114155b15611369578181101561133e576040805162461bcd60e51b815260206004820152601960248201527f456c656f733a20424f52524f575f4e4f545f414c4c4f57454400000000000000604482015290519081900360640190fd5b6001600160a01b038085166000908152600c6020908152604080832093871683529290522082820390555b50505050565b60008261137e575060006107ab565b8282028284828161138b57fe5b04146113c85760405162461bcd60e51b8152600401808060200182810382526021815260200180611aba6021913960400191505060405180910390fd5b9392505050565b60006113c883836040518060400160405280601a81526020017f536166654d6174683a206469766973696f6e206279207a65726f000000000000815250611a54565b60006113c883836040518060400160405280601f81526020017f536166654d6174683a207375627472616374696f6e20756e646572666c6f7700815250611121565b600354611466908263ffffffff6119fa16565b6003556001600160a01b038216600090815260046020526040902054611492908263ffffffff6119fa16565b6001600160a01b03831660008181526004602090815260408083209490945583518581529351929391927fddf252ad1be2c89b69c2b068fc378daa952ba7f163c4a11628f55a4df523b3ef9281900390910190a35050565b600854604080516370a0823160e01b815230600482015290516001600160a01b03909216916370a0823191602480820192602092909190829003018186803b15801561153557600080fd5b505afa158015611549573d6000803e3d6000fd5b505050506040513d602081101561155f57600080fd5b5051600a81905560408051918252517f8a0df8ef054fae2c3d2d19a7b322e864870cc9fd3cb07fb9526309c596244bf49181900360200190a1565b6001600160a01b038084166000818152600c6020908152604080832094871680845294825291829020859055815185815291517fc3c1215b41d54142382d54a05fb991007165ae91bcb1879bac8b290d9111aaf49281900390910190a3505050565b6001600160a01b038216600090815260046020526040902054611625908263ffffffff61141116565b6001600160a01b038316600090815260046020526040902055600354611651908263ffffffff61141116565b6003556040805182815290516000916001600160a01b038516917fddf252ad1be2c89b69c2b068fc378daa952ba7f163c4a11628f55a4df523b3ef9181900360200190a35050565b600854604080518082018252601981527f7472616e7366657228616464726573732c75696e74323536290000000000000060209182015281516001600160a01b0386811660248301526044808301879052845180840390910181526064909201845291810180516001600160e01b031663a9059cbb60e01b1781529251815160009560609594169382918083835b602083106117465780518252601f199092019160209182019101611727565b6001836020036101000a0380198251168184511680821785525050505050509050019150506000604051808303816000865af19150503d80600081146117a8576040519150601f19603f3d011682016040523d82523d6000602084013e6117ad565b606091505b50915091508180156117db5750805115806117db57508080602001905160208110156117d857600080fd5b50515b611369576040805162461bcd60e51b8152602060048201526016602482015275115b195bdcce881514905394d1915497d1905253115160521b604482015290519081900360640190fd5b4285101561186b576040805162461bcd60e51b815260206004820152600e60248201526d115b195bdcce881156141254915160921b604482015290519081900360640190fd5b6006546001600160a01b03808a1660008181526007602090815260408083208054600180820190925582518085018a905280840196909652958e166060860152608085018d905260a085019590955260c08085018c90528151808603909101815260e08501825280519083012061190160f01b6101008601526101028501969096526101228085019690965280518085039096018652610142840180825286519683019690962095839052610162840180825286905260ff8a166101828501526101a284018990526101c28401889052519193926101e280820193601f1981019281900390910190855afa158015611967573d6000803e3d6000fd5b5050604051601f1901519150506001600160a01b0381161580159061199d5750896001600160a01b0316816001600160a01b0316145b6119ee576040805162461bcd60e51b815260206004820152601860248201527f456c656f733a20494e56414c49445f5349474e41545552450000000000000000604482015290519081900360640190fd5b50505050505050505050565b6000828201838110156113c8576040805162461bcd60e51b815260206004820152601b60248201527f536166654d6174683a206164646974696f6e206f766572666c6f770000000000604482015290519081900360640190fd5b60008183611aa35760405162461bcd60e51b815260206004820181815283516024840152835190928392604490910191908501908083836000831561117557818101518382015260200161115d565b506000838581611aaf57fe5b049594505050505056fe536166654d6174683a206d756c7469706c69636174696f6e206f766572666c6f77a265627a7a723158204af4122016221be25369e23d58707140384e3866c8d789dc6de15c15fbec736464736f6c63430005100032454950373132446f6d61696e28737472696e67206e616d652c737472696e672076657273696f6e2c75696e7432353620636861696e49642c6164647265737320766572696679696e67436f6e747261637429",
  "linkReferences": {},
  "deployedLinkReferences": {}
}