{
  "_format": "hh-sol-artifact-1",
  "contractName": "Factory",
  "sourceName": "contracts/Factory.sol",
  "abi": [
    {
      "inputs": [
        {
          "internalType": "address",
          "name": "_admin",
          "type": "address"
        },
        {
          "internalType": "address",
          "name": "_reservesAdmin",
          "type": "address"
        },
        {
          "internalType": "contract IBDeployer",
          "name": "_bDeployer",
          "type": "address"
        },
        {
          "internalType": "contract ICDeployer",
          "name": "_cDeployer",
          "type": "address"
        },
        {
          "internalType": "contract IEleosPriceOracle",
          "name": "_eleosPriceOracle",
          "type": "address"
        }
      ],
      "payable": false,
      "stateMutability": "nonpayable",
      "type": "constructor"
    },
    {
      "anonymous": false,
      "inputs": [
        {
          "indexed": true,
          "internalType": "address",
          "name": "uniswapV2Pair",
          "type": "address"
        },
        {
          "indexed": true,
          "internalType": "address",
          "name": "token0",
          "type": "address"
        },
        {
          "indexed": true,
          "internalType": "address",
          "name": "token1",
          "type": "address"
        },
        {
          "indexed": false,
          "internalType": "address",
          "name": "collateral",
          "type": "address"
        },
        {
          "indexed": false,
          "internalType": "address",
          "name": "borrowable0",
          "type": "address"
        },
        {
          "indexed": false,
          "internalType": "address",
          "name": "borrowable1",
          "type": "address"
        },
        {
          "indexed": false,
          "internalType": "uint256",
          "name": "lendingPoolId",
          "type": "uint256"
        }
      ],
      "name": "LendingPoolInitialized",
      "type": "event"
    },
    {
      "anonymous": false,
      "inputs": [
        {
          "indexed": false,
          "internalType": "address",
          "name": "oldAdmin",
          "type": "address"
        },
        {
          "indexed": false,
          "internalType": "address",
          "name": "newAdmin",
          "type": "address"
        }
      ],
      "name": "NewAdmin",
      "type": "event"
    },
    {
      "anonymous": false,
      "inputs": [
        {
          "indexed": false,
          "internalType": "address",
          "name": "oldPendingAdmin",
          "type": "address"
        },
        {
          "indexed": false,
          "internalType": "address",
          "name": "newPendingAdmin",
          "type": "address"
        }
      ],
      "name": "NewPendingAdmin",
      "type": "event"
    },
    {
      "anonymous": false,
      "inputs": [
        {
          "indexed": false,
          "internalType": "address",
          "name": "oldReservesAdmin",
          "type": "address"
        },
        {
          "indexed": false,
          "internalType": "address",
          "name": "newReservesAdmin",
          "type": "address"
        }
      ],
      "name": "NewReservesAdmin",
      "type": "event"
    },
    {
      "anonymous": false,
      "inputs": [
        {
          "indexed": false,
          "internalType": "address",
          "name": "oldReservesManager",
          "type": "address"
        },
        {
          "indexed": false,
          "internalType": "address",
          "name": "newReservesManager",
          "type": "address"
        }
      ],
      "name": "NewReservesManager",
      "type": "event"
    },
    {
      "anonymous": false,
      "inputs": [
        {
          "indexed": false,
          "internalType": "address",
          "name": "oldReservesPendingAdmin",
          "type": "address"
        },
        {
          "indexed": false,
          "internalType": "address",
          "name": "newReservesPendingAdmin",
          "type": "address"
        }
      ],
      "name": "NewReservesPendingAdmin",
      "type": "event"
    },
    {
      "constant": false,
      "inputs": [],
      "name": "_acceptAdmin",
      "outputs": [],
      "payable": false,
      "stateMutability": "nonpayable",
      "type": "function"
    },
    {
      "constant": false,
      "inputs": [],
      "name": "_acceptReservesAdmin",
      "outputs": [],
      "payable": false,
      "stateMutability": "nonpayable",
      "type": "function"
    },
    {
      "constant": false,
      "inputs": [
        {
          "internalType": "address",
          "name": "newPendingAdmin",
          "type": "address"
        }
      ],
      "name": "_setPendingAdmin",
      "outputs": [],
      "payable": false,
      "stateMutability": "nonpayable",
      "type": "function"
    },
    {
      "constant": false,
      "inputs": [
        {
          "internalType": "address",
          "name": "newReservesManager",
          "type": "address"
        }
      ],
      "name": "_setReservesManager",
      "outputs": [],
      "payable": false,
      "stateMutability": "nonpayable",
      "type": "function"
    },
    {
      "constant": false,
      "inputs": [
        {
          "internalType": "address",
          "name": "newReservesPendingAdmin",
          "type": "address"
        }
      ],
      "name": "_setReservesPendingAdmin",
      "outputs": [],
      "payable": false,
      "stateMutability": "nonpayable",
      "type": "function"
    },
    {
      "constant": true,
      "inputs": [],
      "name": "admin",
      "outputs": [
        {
          "internalType": "address",
          "name": "",
          "type": "address"
        }
      ],
      "payable": false,
      "stateMutability": "view",
      "type": "function"
    },
    {
      "constant": true,
      "inputs": [
        {
          "internalType": "uint256",
          "name": "",
          "type": "uint256"
        }
      ],
      "name": "allLendingPools",
      "outputs": [
        {
          "internalType": "address",
          "name": "",
          "type": "address"
        }
      ],
      "payable": false,
      "stateMutability": "view",
      "type": "function"
    },
    {
      "constant": true,
      "inputs": [],
      "name": "allLendingPoolsLength",
      "outputs": [
        {
          "internalType": "uint256",
          "name": "",
          "type": "uint256"
        }
      ],
      "payable": false,
      "stateMutability": "view",
      "type": "function"
    },
    {
      "constant": true,
      "inputs": [],
      "name": "bDeployer",
      "outputs": [
        {
          "internalType": "contract IBDeployer",
          "name": "",
          "type": "address"
        }
      ],
      "payable": false,
      "stateMutability": "view",
      "type": "function"
    },
    {
      "constant": true,
      "inputs": [],
      "name": "cDeployer",
      "outputs": [
        {
          "internalType": "contract ICDeployer",
          "name": "",
          "type": "address"
        }
      ],
      "payable": false,
      "stateMutability": "view",
      "type": "function"
    },
    {
      "constant": false,
      "inputs": [
        {
          "internalType": "address",
          "name": "uniswapV2Pair",
          "type": "address"
        }
      ],
      "name": "createBorrowable0",
      "outputs": [
        {
          "internalType": "address",
          "name": "borrowable0",
          "type": "address"
        }
      ],
      "payable": false,
      "stateMutability": "nonpayable",
      "type": "function"
    },
    {
      "constant": false,
      "inputs": [
        {
          "internalType": "address",
          "name": "uniswapV2Pair",
          "type": "address"
        }
      ],
      "name": "createBorrowable1",
      "outputs": [
        {
          "internalType": "address",
          "name": "borrowable1",
          "type": "address"
        }
      ],
      "payable": false,
      "stateMutability": "nonpayable",
      "type": "function"
    },
    {
      "constant": false,
      "inputs": [
        {
          "internalType": "address",
          "name": "uniswapV2Pair",
          "type": "address"
        }
      ],
      "name": "createCollateral",
      "outputs": [
        {
          "internalType": "address",
          "name": "collateral",
          "type": "address"
        }
      ],
      "payable": false,
      "stateMutability": "nonpayable",
      "type": "function"
    },
    {
      "constant": true,
      "inputs": [],
      "name": "eleosPriceOracle",
      "outputs": [
        {
          "internalType": "contract IEleosPriceOracle",
          "name": "",
          "type": "address"
        }
      ],
      "payable": false,
      "stateMutability": "view",
      "type": "function"
    },
    {
      "constant": true,
      "inputs": [
        {
          "internalType": "address",
          "name": "",
          "type": "address"
        }
      ],
      "name": "getLendingPool",
      "outputs": [
        {
          "internalType": "bool",
          "name": "initialized",
          "type": "bool"
        },
        {
          "internalType": "uint24",
          "name": "lendingPoolId",
          "type": "uint24"
        },
        {
          "internalType": "address",
          "name": "collateral",
          "type": "address"
        },
        {
          "internalType": "address",
          "name": "borrowable0",
          "type": "address"
        },
        {
          "internalType": "address",
          "name": "borrowable1",
          "type": "address"
        }
      ],
      "payable": false,
      "stateMutability": "view",
      "type": "function"
    },
    {
      "constant": false,
      "inputs": [
        {
          "internalType": "address",
          "name": "uniswapV2Pair",
          "type": "address"
        }
      ],
      "name": "initializeLendingPool",
      "outputs": [],
      "payable": false,
      "stateMutability": "nonpayable",
      "type": "function"
    },
    {
      "constant": true,
      "inputs": [],
      "name": "pendingAdmin",
      "outputs": [
        {
          "internalType": "address",
          "name": "",
          "type": "address"
        }
      ],
      "payable": false,
      "stateMutability": "view",
      "type": "function"
    },
    {
      "constant": true,
      "inputs": [],
      "name": "reservesAdmin",
      "outputs": [
        {
          "internalType": "address",
          "name": "",
          "type": "address"
        }
      ],
      "payable": false,
      "stateMutability": "view",
      "type": "function"
    },
    {
      "constant": true,
      "inputs": [],
      "name": "reservesManager",
      "outputs": [
        {
          "internalType": "address",
          "name": "",
          "type": "address"
        }
      ],
      "payable": false,
      "stateMutability": "view",
      "type": "function"
    },
    {
      "constant": true,
      "inputs": [],
      "name": "reservesPendingAdmin",
      "outputs": [
        {
          "internalType": "address",
          "name": "",
          "type": "address"
        }
      ],
      "payable": false,
      "stateMutability": "view",
      "type": "function"
    }
  ],
  "bytecode": "0x608060405234801561001057600080fd5b50604051611686380380611686833981810160405260a081101561003357600080fd5b5080516020808301516040808501516060860151608090960151600080546001600160a01b03199081166001600160a01b03808a169182178455600280548416828a16179055600780548416828816179055600880548416828d161790556009805490931690851617909155845191825295810195909552825195969395919490927ff9ffabca9c8276e99321725bcb43fb076a6c66a54b7f21c4e8146d8519b417dc92918290030190a160408051600081526001600160a01b038616602082015281517fa328ba21363a99cbf330243928bb26a15acf20bf43166ef838e67ff5d84d4ae7929181900390910190a15050505050611550806101366000396000f3fe608060405234801561001057600080fd5b506004361061012c5760003560e01c80639e1348e3116100ad578063d407112711610071578063d4071127146102e8578063db5a269014610305578063e9c714f21461030d578063eb5ab75f14610315578063f851a4401461033b5761012c565b80639e1348e314610248578063b1ccc03e14610250578063b658ca7514610276578063b71d1a0c1461029c578063cbed6d71146102c25761012c565b806349a78838116100f457806349a78838146101ee578063714c0206146102145780637a4660d51461022e578063822d73b214610236578063998c077d1461023e5761012c565b80630572bf5f1461013157806323c6145d1461019457806326782247146101d6578063345ef941146101de5780633a54a2ae146101e6575b600080fd5b6101576004803603602081101561014757600080fd5b50356001600160a01b0316610343565b60408051951515865262ffffff90941660208601526001600160a01b03928316858501529082166060850152166080830152519081900360a00190f35b6101ba600480360360208110156101aa57600080fd5b50356001600160a01b031661038a565b604080516001600160a01b039092168252519081900360200190f35b6101ba610524565b6101ba610533565b6101ba610542565b6101ba6004803603602081101561020457600080fd5b50356001600160a01b0316610551565b61021c6106e5565b60408051918252519081900360200190f35b6101ba6106eb565b6101ba6106fa565b610246610709565b005b6101ba610811565b6102466004803603602081101561026657600080fd5b50356001600160a01b0316610820565b6102466004803603602081101561028c57600080fd5b50356001600160a01b03166108d8565b610246600480360360208110156102b257600080fd5b50356001600160a01b0316610e6f565b6101ba600480360360208110156102d857600080fd5b50356001600160a01b0316610f27565b6101ba600480360360208110156102fe57600080fd5b50356110b9565b6101ba6110e0565b6102466110ef565b6102466004803603602081101561032b57600080fd5b50356001600160a01b03166111f7565b6101ba6112af565b60056020526000908152604090208054600182015460029092015460ff82169262ffffff610100840416926001600160a01b03640100000000909104811692918116911685565b6000610395826112be565b50506001600160a01b0382811660009081526005602052604090205464010000000090041615610404576040805162461bcd60e51b8152602060048201526015602482015274456c656f733a20414c52454144595f45584953545360581b604482015290519081900360640190fd5b60085460408051637924fedd60e01b81526001600160a01b03858116600483015291519190921691637924fedd9160248083019260209291908290030181600087803b15801561045357600080fd5b505af1158015610467573d6000803e3d6000fd5b505050506040513d602081101561047d57600080fd5b5051604080516312974c5b60e21b815290519192506001600160a01b03831691634a5d316c9160048082019260009290919082900301818387803b1580156104c457600080fd5b505af11580156104d8573d6000803e3d6000fd5b505050506104e58261139e565b6001600160a01b039182166000908152600560205260409020805492821664010000000002640100000000600160c01b03199093169290921790915590565b6001546001600160a01b031681565b6004546001600160a01b031681565b6009546001600160a01b031681565b600061055c826112be565b50506001600160a01b0382811660009081526005602052604090206001015416156105c6576040805162461bcd60e51b8152602060048201526015602482015274456c656f733a20414c52454144595f45584953545360581b604482015290519081900360640190fd5b600754604080516354bcd7ad60e01b81526001600160a01b03858116600483015260006024830181905292519316926354bcd7ad92604480840193602093929083900390910190829087803b15801561061e57600080fd5b505af1158015610632573d6000803e3d6000fd5b505050506040513d602081101561064857600080fd5b5051604080516312974c5b60e21b815290519192506001600160a01b03831691634a5d316c9160048082019260009290919082900301818387803b15801561068f57600080fd5b505af11580156106a3573d6000803e3d6000fd5b505050506106b08261139e565b6001600160a01b03918216600090815260056020526040902060010180546001600160a01b0319169282169290921790915590565b60065490565b6008546001600160a01b031681565b6002546001600160a01b031681565b6003546001600160a01b0316331461075e576040805162461bcd60e51b8152602060048201526013602482015272115b195bdcce8815539055551213d492569151606a1b604482015290519081900360640190fd5b60028054600380546001600160a01b038082166001600160a01b031980861682179687905590921690925560408051938316808552949092166020840152815190927fa328ba21363a99cbf330243928bb26a15acf20bf43166ef838e67ff5d84d4ae792908290030190a1604080516001600160a01b03831681526000602082015281517f01d5e27ed5584d16c62ba1a14cfde0783f979d4797a3fc41342aff17d8ef5b41929181900390910190a15050565b6003546001600160a01b031681565b6002546001600160a01b03163314610875576040805162461bcd60e51b8152602060048201526013602482015272115b195bdcce8815539055551213d492569151606a1b604482015290519081900360640190fd5b600380546001600160a01b038381166001600160a01b0319831681179093556040805191909216808252602082019390935281517f01d5e27ed5584d16c62ba1a14cfde0783f979d4797a3fc41342aff17d8ef5b41929181900390910190a15050565b6000806108e4836112be565b915091506108f06114ca565b506001600160a01b03808416600090815260056020908152604091829020825160a081018452815460ff8116158015835262ffffff610100830416948301949094526401000000009004851693810193909352600181015484166060840152600201549092166080820152906109ad576040805162461bcd60e51b815260206004820152601a60248201527f456c656f733a20414c52454144595f494e495449414c495a4544000000000000604482015290519081900360640190fd5b60408101516001600160a01b03166109f65760405162461bcd60e51b81526004018080602001828103825260238152602001806114f96023913960400191505060405180910390fd5b60608101516001600160a01b0316610a55576040805162461bcd60e51b815260206004820152601e60248201527f456c656f733a20424f52524f5741424c45305f4e4f545f435245415445440000604482015290519081900360640190fd5b60808101516001600160a01b0316610ab4576040805162461bcd60e51b815260206004820152601e60248201527f456c656f733a20424f52524f5741424c45315f4e4f545f435245415445440000604482015290519081900360640190fd5b60095460408051630d3c450160e11b81526001600160a01b03878116600483015291516000939290921691631a788a029160248082019260c092909190829003018186803b158015610b0557600080fd5b505afa158015610b19573d6000803e3d6000fd5b505050506040513d60c0811015610b2f57600080fd5b5060a00151905080610ba2576009546040805163189acdbd60e31b81526001600160a01b0388811660048301529151919092169163c4d66de891602480830192600092919082900301818387803b158015610b8957600080fd5b505af1158015610b9d573d6000803e3d6000fd5b505050505b60408083015160608401516080850151835163c548e3c560e01b81526001600160a01b038a811660448301529283166064820152908216608482015260a06004820152601060a48201526f115b195bdcc810dbdb1b185d195c985b60821b60c482015260e06024820152600660e48201526563454c454f5360d01b610104820152925191169163c548e3c59161012480830192600092919082900301818387803b158015610c4f57600080fd5b505af1158015610c63573d6000803e3d6000fd5b50505060608301516040808501518151636a030c1160e01b81526001600160a01b038981166044830152918216606482015260806004820152601060848201526f456c656f7320426f72726f7761626c6560801b60a482015260c06024820152600660c48201526562454c454f5360d01b60e4820152915192169250636a030c119161010480830192600092919082900301818387803b158015610d0657600080fd5b505af1158015610d1a573d6000803e3d6000fd5b505050506080828101516040808501518151636a030c1160e01b81526001600160a01b03888116604483015291821660648201526004810194909452601060848501526f456c656f7320426f72726f7761626c6560801b60a485015260c06024850152600660c48501526562454c454f5360d01b60e48501529051911691636a030c119161010480830192600092919082900301818387803b158015610dbf57600080fd5b505af1158015610dd3573d6000803e3d6000fd5b5050506001600160a01b03808716600081815260056020908152604091829020805460ff19166001179055868201516060808901516080808b01518b8601518751958a168652928916958501959095529387168386015262ffffff169082015291518885169550938916937f4c3ab495dc8ebd1b2f3232d7632e54411bc7e4d111475e7fbbd5547d9a28c4959281900390910190a45050505050565b6000546001600160a01b03163314610ec4576040805162461bcd60e51b8152602060048201526013602482015272115b195bdcce8815539055551213d492569151606a1b604482015290519081900360640190fd5b600180546001600160a01b038381166001600160a01b0319831681179093556040805191909216808252602082019390935281517fca4f2f25d0898edd99413412fb94012f9e54ec8142f9b093e7720646a95b16a9929181900390910190a15050565b6000610f32826112be565b50506001600160a01b038281166000908152600560205260409020600201541615610f9c576040805162461bcd60e51b8152602060048201526015602482015274456c656f733a20414c52454144595f45584953545360581b604482015290519081900360640190fd5b600754604080516354bcd7ad60e01b81526001600160a01b03858116600483015260016024830152915191909216916354bcd7ad9160448083019260209291908290030181600087803b158015610ff257600080fd5b505af1158015611006573d6000803e3d6000fd5b505050506040513d602081101561101c57600080fd5b5051604080516312974c5b60e21b815290519192506001600160a01b03831691634a5d316c9160048082019260009290919082900301818387803b15801561106357600080fd5b505af1158015611077573d6000803e3d6000fd5b505050506110848261139e565b6001600160a01b03918216600090815260056020526040902060020180546001600160a01b0319169282169290921790915590565b600681815481106110c657fe5b6000918252602090912001546001600160a01b0316905081565b6007546001600160a01b031681565b6001546001600160a01b03163314611144576040805162461bcd60e51b8152602060048201526013602482015272115b195bdcce8815539055551213d492569151606a1b604482015290519081900360640190fd5b60008054600180546001600160a01b038082166001600160a01b031980861682179687905590921690925560408051938316808552949092166020840152815190927ff9ffabca9c8276e99321725bcb43fb076a6c66a54b7f21c4e8146d8519b417dc92908290030190a1604080516001600160a01b03831681526000602082015281517fca4f2f25d0898edd99413412fb94012f9e54ec8142f9b093e7720646a95b16a9929181900390910190a15050565b6002546001600160a01b0316331461124c576040805162461bcd60e51b8152602060048201526013602482015272115b195bdcce8815539055551213d492569151606a1b604482015290519081900360640190fd5b600480546001600160a01b038381166001600160a01b0319831681179093556040805191909216808252602082019390935281517f324bacfad26225895fcf55780481bec4ce49013c92500fa1c25626ff43fbf661929181900390910190a15050565b6000546001600160a01b031681565b600080826001600160a01b0316630dfe16816040518163ffffffff1660e01b815260040160206040518083038186803b1580156112fa57600080fd5b505afa15801561130e573d6000803e3d6000fd5b505050506040513d602081101561132457600080fd5b50516040805163d21220a760e01b815290519193506001600160a01b0385169163d21220a791600480820192602092909190829003018186803b15801561136a57600080fd5b505afa15801561137e573d6000803e3d6000fd5b505050506040513d602081101561139457600080fd5b5051919391925050565b6001600160a01b038116600090815260056020526040902054610100900462ffffff16156113cb576114c7565b60068054600181810183557ff652222313e28459528d920b65115c16c04f3efc82aaedc97be59f3f377c0d3f90910180546001600160a01b038086166001600160a01b031992831681179093556040805160a0810182526000808252965462ffffff90811660208381019182528385018a8152606085018b8152608086018c8152998c526005909252949099209251835491519451861664010000000002640100000000600160c01b0319959093166101000263ffffff001991151560ff199093169290921716179290921691909117815594519385018054948216948316949094179093559051600290930180549390921692169190911790555b50565b6040805160a0810182526000808252602082018190529181018290526060810182905260808101919091529056fe456c656f733a20434f4c4c41544552414c495a41424c455f4e4f545f43524541544544a265627a7a72315820d3992fc49f7f31d189b652eb384400bd3e8a73e984721d2a7a232994a0f7e66564736f6c63430005100032",
  "linkReferences": {},
  "deployedLinkReferences": {}
}