{
  "_format": "hh-sol-artifact-1",
  "contractName": "EleosERC20Harness",
  "sourceName": "test/Contracts/EleosERC20Harness.sol",
  "abi": [
    {
      "inputs": [
        {
          "internalType": "string",
          "name": "_name",
          "type": "string"
        },
        {
          "internalType": "string",
          "name": "_symbol",
          "type": "string"
        }
      ],
      "payable": false,
      "stateMutability": "nonpayable",
      "type": "constructor"
    },
    {
      "anonymous": false,
      "inputs": [
        {
          "indexed": true,
          "internalType": "address",
          "name": "owner",
          "type": "address"
        },
        {
          "indexed": true,
          "internalType": "address",
          "name": "spender",
          "type": "address"
        },
        {
          "indexed": false,
          "internalType": "uint256",
          "name": "value",
          "type": "uint256"
        }
      ],
      "name": "Approval",
      "type": "event"
    },
    {
      "anonymous": false,
      "inputs": [
        {
          "indexed": true,
          "internalType": "address",
          "name": "from",
          "type": "address"
        },
        {
          "indexed": true,
          "internalType": "address",
          "name": "to",
          "type": "address"
        },
        {
          "indexed": false,
          "internalType": "uint256",
          "name": "value",
          "type": "uint256"
        }
      ],
      "name": "Transfer",
      "type": "event"
    },
    {
      "constant": true,
      "inputs": [],
      "name": "DOMAIN_SEPARATOR",
      "outputs": [
        {
          "internalType": "bytes32",
          "name": "",
          "type": "bytes32"
        }
      ],
      "payable": false,
      "stateMutability": "view",
      "type": "function"
    },
    {
      "constant": true,
      "inputs": [],
      "name": "PERMIT_TYPEHASH",
      "outputs": [
        {
          "internalType": "bytes32",
          "name": "",
          "type": "bytes32"
        }
      ],
      "payable": false,
      "stateMutability": "view",
      "type": "function"
    },
    {
      "constant": true,
      "inputs": [
        {
          "internalType": "address",
          "name": "",
          "type": "address"
        },
        {
          "internalType": "address",
          "name": "",
          "type": "address"
        }
      ],
      "name": "allowance",
      "outputs": [
        {
          "internalType": "uint256",
          "name": "",
          "type": "uint256"
        }
      ],
      "payable": false,
      "stateMutability": "view",
      "type": "function"
    },
    {
      "constant": false,
      "inputs": [
        {
          "internalType": "address",
          "name": "spender",
          "type": "address"
        },
        {
          "internalType": "uint256",
          "name": "value",
          "type": "uint256"
        }
      ],
      "name": "approve",
      "outputs": [
        {
          "internalType": "bool",
          "name": "",
          "type": "bool"
        }
      ],
      "payable": false,
      "stateMutability": "nonpayable",
      "type": "function"
    },
    {
      "constant": true,
      "inputs": [
        {
          "internalType": "address",
          "name": "",
          "type": "address"
        }
      ],
      "name": "balanceOf",
      "outputs": [
        {
          "internalType": "uint256",
          "name": "",
          "type": "uint256"
        }
      ],
      "payable": false,
      "stateMutability": "view",
      "type": "function"
    },
    {
      "constant": false,
      "inputs": [
        {
          "internalType": "address",
          "name": "from",
          "type": "address"
        },
        {
          "internalType": "uint256",
          "name": "value",
          "type": "uint256"
        }
      ],
      "name": "burn",
      "outputs": [],
      "payable": false,
      "stateMutability": "nonpayable",
      "type": "function"
    },
    {
      "constant": true,
      "inputs": [],
      "name": "decimals",
      "outputs": [
        {
          "internalType": "uint8",
          "name": "",
          "type": "uint8"
        }
      ],
      "payable": false,
      "stateMutability": "view",
      "type": "function"
    },
    {
      "constant": false,
      "inputs": [
        {
          "internalType": "address",
          "name": "to",
          "type": "address"
        },
        {
          "internalType": "uint256",
          "name": "value",
          "type": "uint256"
        }
      ],
      "name": "mint",
      "outputs": [],
      "payable": false,
      "stateMutability": "nonpayable",
      "type": "function"
    },
    {
      "constant": true,
      "inputs": [],
      "name": "name",
      "outputs": [
        {
          "internalType": "string",
          "name": "",
          "type": "string"
        }
      ],
      "payable": false,
      "stateMutability": "view",
      "type": "function"
    },
    {
      "constant": true,
      "inputs": [
        {
          "internalType": "address",
          "name": "",
          "type": "address"
        }
      ],
      "name": "nonces",
      "outputs": [
        {
          "internalType": "uint256",
          "name": "",
          "type": "uint256"
        }
      ],
      "payable": false,
      "stateMutability": "view",
      "type": "function"
    },
    {
      "constant": false,
      "inputs": [
        {
          "internalType": "address",
          "name": "owner",
          "type": "address"
        },
        {
          "internalType": "address",
          "name": "spender",
          "type": "address"
        },
        {
          "internalType": "uint256",
          "name": "value",
          "type": "uint256"
        },
        {
          "internalType": "uint256",
          "name": "deadline",
          "type": "uint256"
        },
        {
          "internalType": "uint8",
          "name": "v",
          "type": "uint8"
        },
        {
          "internalType": "bytes32",
          "name": "r",
          "type": "bytes32"
        },
        {
          "internalType": "bytes32",
          "name": "s",
          "type": "bytes32"
        }
      ],
      "name": "permit",
      "outputs": [],
      "payable": false,
      "stateMutability": "nonpayable",
      "type": "function"
    },
    {
      "constant": false,
      "inputs": [
        {
          "internalType": "address",
          "name": "account",
          "type": "address"
        },
        {
          "internalType": "uint256",
          "name": "amount",
          "type": "uint256"
        }
      ],
      "name": "setBalanceHarness",
      "outputs": [],
      "payable": false,
      "stateMutability": "nonpayable",
      "type": "function"
    },
    {
      "constant": true,
      "inputs": [],
      "name": "symbol",
      "outputs": [
        {
          "internalType": "string",
          "name": "",
          "type": "string"
        }
      ],
      "payable": false,
      "stateMutability": "view",
      "type": "function"
    },
    {
      "constant": true,
      "inputs": [],
      "name": "totalSupply",
      "outputs": [
        {
          "internalType": "uint256",
          "name": "",
          "type": "uint256"
        }
      ],
      "payable": false,
      "stateMutability": "view",
      "type": "function"
    },
    {
      "constant": false,
      "inputs": [
        {
          "internalType": "address",
          "name": "to",
          "type": "address"
        },
        {
          "internalType": "uint256",
          "name": "value",
          "type": "uint256"
        }
      ],
      "name": "transfer",
      "outputs": [
        {
          "internalType": "bool",
          "name": "",
          "type": "bool"
        }
      ],
      "payable": false,
      "stateMutability": "nonpayable",
      "type": "function"
    },
    {
      "constant": false,
      "inputs": [
        {
          "internalType": "address",
          "name": "from",
          "type": "address"
        },
        {
          "internalType": "address",
          "name": "to",
          "type": "address"
        },
        {
          "internalType": "uint256",
          "name": "value",
          "type": "uint256"
        }
      ],
      "name": "transferFrom",
      "outputs": [
        {
          "internalType": "bool",
          "name": "",
          "type": "bool"
        }
      ],
      "payable": false,
      "stateMutability": "nonpayable",
      "type": "function"
    }
  ],
  "bytecode": "0x60806040526002805460ff191660121790553480156200001e57600080fd5b5060405162000ff738038062000ff7833981810160405260408110156200004457600080fd5b81019080805160405193929190846401000000008211156200006557600080fd5b9083019060208201858111156200007b57600080fd5b82516401000000008111828201881017156200009657600080fd5b82525081516020918201929091019080838360005b83811015620000c5578181015183820152602001620000ab565b50505050905090810190601f168015620000f35780820380516001836020036101000a031916815260200191505b50604052602001805160405193929190846401000000008211156200011757600080fd5b9083019060208201858111156200012d57600080fd5b82516401000000008111828201881017156200014857600080fd5b82525081516020918201929091019080838360005b83811015620001775781810151838201526020016200015d565b50505050905090810190601f168015620001a55780820380516001836020036101000a031916815260200191505b50604052505050620001be8282620001c660201b60201c565b505062000338565b8151620001db90600090602085019062000293565b508051620001f190600190602084019062000293565b50604051469080605262000fa58239604080519182900360520182208651602097880120838301835260018452603160f81b93880193909352815180880191909152808201929092527fc89efdaa54c0f20c7adf612882df0950f5a951637e0307cdcb4c672f298b8bc6606083015260808201939093523060a0808301919091528351808303909101815260c090910190925250805192019190912060065550565b828054600181600116156101000203166002900490600052602060002090601f016020900481019282601f10620002d657805160ff191683800117855562000306565b8280016001018555821562000306579182015b8281111562000306578251825591602001919060010190620002e9565b506200031492915062000318565b5090565b6200033591905b808211156200031457600081556001016200031f565b90565b610c5d80620003486000396000f3fe608060405234801561001057600080fd5b50600436106101005760003560e01c806370a0823111610097578063a9059cbb11610066578063a9059cbb146102ee578063d505accf1461031a578063d7b9e0561461036b578063dd62ed3e1461039757610100565b806370a082311461026e5780637ecebe001461029457806395d89b41146102ba5780639dc29fac146102c257610100565b806330adf81f116100d357806330adf81f14610212578063313ce5671461021a5780633644e5151461023857806340c10f191461024057610100565b806306fdde0314610105578063095ea7b31461018257806318160ddd146101c257806323b872dd146101dc575b600080fd5b61010d6103c5565b6040805160208082528351818301528351919283929083019185019080838360005b8381101561014757818101518382015260200161012f565b50505050905090810190601f1680156101745780820380516001836020036101000a031916815260200191505b509250505060405180910390f35b6101ae6004803603604081101561019857600080fd5b506001600160a01b038135169060200135610453565b604080519115158252519081900360200190f35b6101ca610469565b60408051918252519081900360200190f35b6101ae600480360360608110156101f257600080fd5b506001600160a01b0381358116916020810135909116906040013561046f565b6101ca61053e565b610222610562565b6040805160ff9092168252519081900360200190f35b6101ca61056b565b61026c6004803603604081101561025657600080fd5b506001600160a01b038135169060200135610571565b005b6101ca6004803603602081101561028457600080fd5b50356001600160a01b031661057f565b6101ca600480360360208110156102aa57600080fd5b50356001600160a01b0316610591565b61010d6105a3565b61026c600480360360408110156102d857600080fd5b506001600160a01b0381351690602001356105fd565b6101ae6004803603604081101561030457600080fd5b506001600160a01b038135169060200135610607565b61026c600480360360e081101561033057600080fd5b506001600160a01b03813581169160208101359091169060408101359060608101359060ff6080820135169060a08101359060c00135610614565b61026c6004803603604081101561038157600080fd5b506001600160a01b038135169060200135610658565b6101ca600480360360408110156103ad57600080fd5b506001600160a01b0381358116916020013516610674565b6000805460408051602060026001851615610100026000190190941693909304601f8101849004840282018401909252818152929183018282801561044b5780601f106104205761010080835404028352916020019161044b565b820191906000526020600020905b81548152906001019060200180831161042e57829003601f168201915b505050505081565b6000610460338484610691565b50600192915050565b60035481565b6001600160a01b03831660009081526005602090815260408083203384529091528120546000191461052957604080518082018252601b81527f456c656f733a205452414e534645525f4e4f545f414c4c4f57454400000000006020808301919091526001600160a01b038716600090815260058252838120338252909152919091205461050491849063ffffffff6106f316565b6001600160a01b03851660009081526005602090815260408083203384529091529020555b61053484848461078a565b5060019392505050565b7f6e71edae12b1b97f4d1f60370fef10105fa2faae0126114a169c64845d6126c981565b60025460ff1681565b60065481565b61057b828261087c565b5050565b60046020526000908152604090205481565b60076020526000908152604090205481565b60018054604080516020600284861615610100026000190190941693909304601f8101849004840282018401909252818152929183018282801561044b5780601f106104205761010080835404028352916020019161044b565b61057b8282610913565b600061046033848461078a565b610644878787878787877f6e71edae12b1b97f4d1f60370fef10105fa2faae0126114a169c64845d6126c96109b0565b61064f878787610691565b50505050505050565b6001600160a01b03909116600090815260046020526040902055565b600560209081526000928352604080842090915290825290205481565b6001600160a01b03808416600081815260056020908152604080832094871680845294825291829020859055815185815291517f8c5be1e5ebec7d5bd14f71427d1e84f3dd0314c0f7b2291e5b200ac8c7c3b9259281900390910190a3505050565b600081848411156107825760405162461bcd60e51b81526004018080602001828103825283818151815260200191508051906020019080838360005b8381101561074757818101518382015260200161072f565b50505050905090810190601f1680156107745780820380516001836020036101000a031916815260200191505b509250505060405180910390fd5b505050900390565b604080518082018252601881527f456c656f733a205452414e534645525f544f4f5f4849474800000000000000006020808301919091526001600160a01b0386166000908152600490915291909120546107eb91839063ffffffff6106f316565b6001600160a01b038085166000908152600460205260408082209390935590841681522054610820908263ffffffff610b8516565b6001600160a01b0380841660008181526004602090815260409182902094909455805185815290519193928716927fddf252ad1be2c89b69c2b068fc378daa952ba7f163c4a11628f55a4df523b3ef92918290030190a3505050565b60035461088f908263ffffffff610b8516565b6003556001600160a01b0382166000908152600460205260409020546108bb908263ffffffff610b8516565b6001600160a01b03831660008181526004602090815260408083209490945583518581529351929391927fddf252ad1be2c89b69c2b068fc378daa952ba7f163c4a11628f55a4df523b3ef9281900390910190a35050565b6001600160a01b03821660009081526004602052604090205461093c908263ffffffff610be616565b6001600160a01b038316600090815260046020526040902055600354610968908263ffffffff610be616565b6003556040805182815290516000916001600160a01b038516917fddf252ad1be2c89b69c2b068fc378daa952ba7f163c4a11628f55a4df523b3ef9181900360200190a35050565b428510156109f6576040805162461bcd60e51b815260206004820152600e60248201526d115b195bdcce881156141254915160921b604482015290519081900360640190fd5b6006546001600160a01b03808a1660008181526007602090815260408083208054600180820190925582518085018a905280840196909652958e166060860152608085018d905260a085019590955260c08085018c90528151808603909101815260e08501825280519083012061190160f01b6101008601526101028501969096526101228085019690965280518085039096018652610142840180825286519683019690962095839052610162840180825286905260ff8a166101828501526101a284018990526101c28401889052519193926101e280820193601f1981019281900390910190855afa158015610af2573d6000803e3d6000fd5b5050604051601f1901519150506001600160a01b03811615801590610b285750896001600160a01b0316816001600160a01b0316145b610b79576040805162461bcd60e51b815260206004820152601860248201527f456c656f733a20494e56414c49445f5349474e41545552450000000000000000604482015290519081900360640190fd5b50505050505050505050565b600082820183811015610bdf576040805162461bcd60e51b815260206004820152601b60248201527f536166654d6174683a206164646974696f6e206f766572666c6f770000000000604482015290519081900360640190fd5b9392505050565b6000610bdf83836040518060400160405280601f81526020017f536166654d6174683a207375627472616374696f6e20756e646572666c6f77008152506106f356fea265627a7a723158207f28eb7408d6c624b677a91e30021d61d78aafd06dcdcad0c76eedb6f3a9294064736f6c63430005100032454950373132446f6d61696e28737472696e67206e616d652c737472696e672076657273696f6e2c75696e7432353620636861696e49642c6164647265737320766572696679696e67436f6e747261637429",
  "linkReferences": {},
  "deployedLinkReferences": {}
}