{
  "_format": "hh-sol-artifact-1",
  "contractName": "EleosCallee",
  "sourceName": "test/Contracts/EleosCallee.sol",
  "abi": [
    {
      "inputs": [
        {
          "internalType": "address",
          "name": "_recipient",
          "type": "address"
        },
        {
          "internalType": "address",
          "name": "_underlying",
          "type": "address"
        }
      ],
      "payable": false,
      "stateMutability": "nonpayable",
      "type": "constructor"
    },
    {
      "constant": false,
      "inputs": [
        {
          "internalType": "address",
          "name": "sender",
          "type": "address"
        },
        {
          "internalType": "address",
          "name": "borrower",
          "type": "address"
        },
        {
          "internalType": "uint256",
          "name": "borrowAmount",
          "type": "uint256"
        },
        {
          "internalType": "bytes",
          "name": "data",
          "type": "bytes"
        }
      ],
      "name": "eleosBorrow",
      "outputs": [],
      "payable": false,
      "stateMutability": "nonpayable",
      "type": "function"
    },
    {
      "constant": false,
      "inputs": [
        {
          "internalType": "address",
          "name": "sender",
          "type": "address"
        },
        {
          "internalType": "uint256",
          "name": "redeemAmount",
          "type": "uint256"
        },
        {
          "internalType": "bytes",
          "name": "data",
          "type": "bytes"
        }
      ],
      "name": "eleosRedeem",
      "outputs": [],
      "payable": false,
      "stateMutability": "nonpayable",
      "type": "function"
    }
  ],
  "bytecode": "0x608060405234801561001057600080fd5b506040516102e63803806102e68339818101604052604081101561003357600080fd5b508051602090910151600080546001600160a01b039384166001600160a01b0319918216179091556001805493909216921691909117905561026c8061007a6000396000f3fe608060405234801561001057600080fd5b50600436106100365760003560e01c8063d4d069a81461003b578063e7027f37146100c2575b600080fd5b6100c06004803603606081101561005157600080fd5b6001600160a01b038235169160208101359181019060608101604082013564010000000081111561008157600080fd5b82018360208201111561009357600080fd5b803590602001918460018302840111640100000000831117156100b557600080fd5b509092509050610152565b005b6100c0600480360360808110156100d857600080fd5b6001600160a01b0382358116926020810135909116916040820135919081019060808101606082013564010000000081111561011357600080fd5b82018360208201111561012557600080fd5b8035906020019184600183028401116401000000008311171561014757600080fd5b5090925090506101c4565b600080546001546040805163a4158f1b60e01b81526001600160a01b0392831660048201523360248201529051919092169263a4158f1b926044808201939182900301818387803b1580156101a657600080fd5b505af11580156101ba573d6000803e3d6000fd5b5050505050505050565b600080546001546040805163a4158f1b60e01b81526001600160a01b0392831660048201523360248201529051919092169263a4158f1b926044808201939182900301818387803b15801561021857600080fd5b505af115801561022c573d6000803e3d6000fd5b50505050505050505056fea265627a7a72315820924c3a5147d8be3306fdb2f54265ea97f96704325f051e8f5bcc5dd3342d05a364736f6c63430005100032",
  "linkReferences": {},
  "deployedLinkReferences": {}
}