{
  "_format": "hh-sol-artifact-1",
  "contractName": "MockBorrowTracker",
  "sourceName": "test/Contracts/MockBorrowTracker.sol",
  "abi": [
    {
      "inputs": [],
      "payable": false,
      "stateMutability": "nonpayable",
      "type": "constructor"
    },
    {
      "constant": true,
      "inputs": [
        {
          "internalType": "address",
          "name": "borrower",
          "type": "address"
        }
      ],
      "name": "borrowPercentage",
      "outputs": [
        {
          "internalType": "uint256",
          "name": "",
          "type": "uint256"
        }
      ],
      "payable": false,
      "stateMutability": "view",
      "type": "function"
    },
    {
      "constant": true,
      "inputs": [
        {
          "internalType": "address",
          "name": "",
          "type": "address"
        }
      ],
      "name": "relativeBorrow",
      "outputs": [
        {
          "internalType": "uint256",
          "name": "",
          "type": "uint256"
        }
      ],
      "payable": false,
      "stateMutability": "view",
      "type": "function"
    },
    {
      "constant": true,
      "inputs": [],
      "name": "totalRelativeBorrows",
      "outputs": [
        {
          "internalType": "uint256",
          "name": "",
          "type": "uint256"
        }
      ],
      "payable": false,
      "stateMutability": "view",
      "type": "function"
    },
    {
      "constant": false,
      "inputs": [
        {
          "internalType": "address",
          "name": "borrower",
          "type": "address"
        },
        {
          "internalType": "uint256",
          "name": "borrowBalance",
          "type": "uint256"
        },
        {
          "internalType": "uint256",
          "name": "borrowIndex",
          "type": "uint256"
        }
      ],
      "name": "trackBorrow",
      "outputs": [],
      "payable": false,
      "stateMutability": "nonpayable",
      "type": "function"
    }
  ],
  "bytecode": "0x608060405234801561001057600080fd5b506103f8806100206000396000f3fe608060405234801561001057600080fd5b506004361061004c5760003560e01c806305285d7f146100515780634be5bb8214610085578063658d307c146100bd5780636b64339e146100e3575b600080fd5b6100836004803603606081101561006757600080fd5b506001600160a01b0381351690602081013590604001356100eb565b005b6100ab6004803603602081101561009b57600080fd5b50356001600160a01b0316610194565b60408051918252519081900360200190f35b6100ab600480360360208110156100d357600080fd5b50356001600160a01b03166101ea565b6100ab6101fc565b6001600160a01b038316600090815260208190526040812054906101298361011d86600160801b63ffffffff61020216565b9063ffffffff61026416565b6001600160a01b038616600090815260208190526040902081905590508181111561016e5760015482820390610165908263ffffffff6102a616565b6001555061018d565b600154818303908110610182576000610188565b80600154035b600155505b5050505050565b6000600154600014156101a9575060006101e5565b6001546001600160a01b0383166000908152602081905260409020546101e2919061011d90670de0b6b3a764000063ffffffff61020216565b90505b919050565b60006020819052908152604090205481565b60015481565b6000826102115750600061025e565b8282028284828161021e57fe5b041461025b5760405162461bcd60e51b81526004018080602001828103825260218152602001806103a36021913960400191505060405180910390fd5b90505b92915050565b600061025b83836040518060400160405280601a81526020017f536166654d6174683a206469766973696f6e206279207a65726f000000000000815250610300565b60008282018381101561025b576040805162461bcd60e51b815260206004820152601b60248201527f536166654d6174683a206164646974696f6e206f766572666c6f770000000000604482015290519081900360640190fd5b6000818361038c5760405162461bcd60e51b81526004018080602001828103825283818151815260200191508051906020019080838360005b83811015610351578181015183820152602001610339565b50505050905090810190601f16801561037e5780820380516001836020036101000a031916815260200191505b509250505060405180910390fd5b50600083858161039857fe5b049594505050505056fe536166654d6174683a206d756c7469706c69636174696f6e206f766572666c6f77a265627a7a72315820c1d7456d629483dc493985e5a07a21477d43e9302268768363316d1cb7355fbc64736f6c63430005100032",
  "linkReferences": {},
  "deployedLinkReferences": {}
}