{
  "_format": "hh-sol-artifact-1",
  "contractName": "BStorage",
  "sourceName": "contracts/BStorage.sol",
  "abi": [
    {
      "constant": true,
      "inputs": [],
      "name": "accrualTimestamp",
      "outputs": [
        {
          "internalType": "uint32",
          "name": "",
          "type": "uint32"
        }
      ],
      "payable": false,
      "stateMutability": "view",
      "type": "function"
    },
    {
      "constant": true,
      "inputs": [],
      "name": "adjustSpeed",
      "outputs": [
        {
          "internalType": "uint256",
          "name": "",
          "type": "uint256"
        }
      ],
      "payable": false,
      "stateMutability": "view",
      "type": "function"
    },
    {
      "constant": true,
      "inputs": [
        {
          "internalType": "address",
          "name": "",
          "type": "address"
        },
        {
          "internalType": "address",
          "name": "",
          "type": "address"
        }
      ],
      "name": "borrowAllowance",
      "outputs": [
        {
          "internalType": "uint256",
          "name": "",
          "type": "uint256"
        }
      ],
      "payable": false,
      "stateMutability": "view",
      "type": "function"
    },
    {
      "constant": true,
      "inputs": [],
      "name": "borrowIndex",
      "outputs": [
        {
          "internalType": "uint112",
          "name": "",
          "type": "uint112"
        }
      ],
      "payable": false,
      "stateMutability": "view",
      "type": "function"
    },
    {
      "constant": true,
      "inputs": [],
      "name": "borrowRate",
      "outputs": [
        {
          "internalType": "uint48",
          "name": "",
          "type": "uint48"
        }
      ],
      "payable": false,
      "stateMutability": "view",
      "type": "function"
    },
    {
      "constant": true,
      "inputs": [],
      "name": "borrowTracker",
      "outputs": [
        {
          "internalType": "address",
          "name": "",
          "type": "address"
        }
      ],
      "payable": false,
      "stateMutability": "view",
      "type": "function"
    },
    {
      "constant": true,
      "inputs": [],
      "name": "collateral",
      "outputs": [
        {
          "internalType": "address",
          "name": "",
          "type": "address"
        }
      ],
      "payable": false,
      "stateMutability": "view",
      "type": "function"
    },
    {
      "constant": true,
      "inputs": [],
      "name": "exchangeRateLast",
      "outputs": [
        {
          "internalType": "uint256",
          "name": "",
          "type": "uint256"
        }
      ],
      "payable": false,
      "stateMutability": "view",
      "type": "function"
    },
    {
      "constant": true,
      "inputs": [],
      "name": "kinkBorrowRate",
      "outputs": [
        {
          "internalType": "uint48",
          "name": "",
          "type": "uint48"
        }
      ],
      "payable": false,
      "stateMutability": "view",
      "type": "function"
    },
    {
      "constant": true,
      "inputs": [],
      "name": "kinkUtilizationRate",
      "outputs": [
        {
          "internalType": "uint256",
          "name": "",
          "type": "uint256"
        }
      ],
      "payable": false,
      "stateMutability": "view",
      "type": "function"
    },
    {
      "constant": true,
      "inputs": [],
      "name": "rateUpdateTimestamp",
      "outputs": [
        {
          "internalType": "uint32",
          "name": "",
          "type": "uint32"
        }
      ],
      "payable": false,
      "stateMutability": "view",
      "type": "function"
    },
    {
      "constant": true,
      "inputs": [],
      "name": "reserveFactor",
      "outputs": [
        {
          "internalType": "uint256",
          "name": "",
          "type": "uint256"
        }
      ],
      "payable": false,
      "stateMutability": "view",
      "type": "function"
    },
    {
      "constant": true,
      "inputs": [],
      "name": "totalBorrows",
      "outputs": [
        {
          "internalType": "uint112",
          "name": "",
          "type": "uint112"
        }
      ],
      "payable": false,
      "stateMutability": "view",
      "type": "function"
    }
  ],
  "bytecode": "0x6080604052600380546001600160701b031916670de0b6b3a7640000176001600160e01b0316600160e01b4263ffffffff16908102919091179091556005805465ffffffffffff60301b191669bd014d800000000000001763ffffffff60601b19166c0100000000000000000000000090920291909117905567016345785d8a00006006556709b6e64a8ec600006007556486bd6db0206008553480156100a557600080fd5b506102d9806100b56000396000f3fe608060405234801561001057600080fd5b50600436106100cf5760003560e01c806391b427451161008c578063be340e3211610066578063be340e32146101c0578063c914b437146101c8578063d8dfeb45146101d0578063e12b6306146101d8576100cf565b806391b4274514610174578063aa5af0fd14610197578063b95b92a31461019f576100cf565b80631aebf12f146100d45780632d5231d3146100ee5780634322b714146100f657806347bd3718146100fe57806355957220146101225780636bd76d2414610146575b600080fd5b6100dc6101e0565b60408051918252519081900360200190f35b6100dc6101e6565b6100dc6101ec565b6101066101f2565b604080516001600160701b039092168252519081900360200190f35b61012a610208565b604080516001600160a01b039092168252519081900360200190f35b6100dc6004803603604081101561015c57600080fd5b506001600160a01b0381358116916020013516610217565b61017c610234565b6040805165ffffffffffff9092168252519081900360200190f35b61010661024c565b6101a761025b565b6040805163ffffffff9092168252519081900360200190f35b6100dc61026e565b61017c610274565b61012a610282565b6101a7610291565b60075481565b60085481565b60065481565b600354600160701b90046001600160701b031681565b6009546001600160a01b031681565b600160209081526000928352604080842090915290825290205481565b6005546601000000000000900465ffffffffffff1681565b6003546001600160701b031681565b600354600160e01b900463ffffffff1681565b60045481565b60055465ffffffffffff1681565b6000546001600160a01b031681565b600554600160601b900463ffffffff168156fea265627a7a72315820739f1bc03fd701b2fe101f7abbb76229b4cd4075801125f9e664367734077e1964736f6c63430005100032",
  "linkReferences": {},
  "deployedLinkReferences": {}
}