{
  "_format": "hh-sol-artifact-1",
  "contractName": "MockUniswapV2Pair",
  "sourceName": "test/Contracts/MockUniswapV2Pair.sol",
  "abi": [
    {
      "inputs": [
        {
          "internalType": "address",
          "name": "_token0",
          "type": "address"
        },
        {
          "internalType": "address",
          "name": "_token1",
          "type": "address"
        }
      ],
      "payable": false,
      "stateMutability": "nonpayable",
      "type": "constructor"
    },
    {
      "anonymous": false,
      "inputs": [
        {
          "indexed": true,
          "internalType": "address",
          "name": "owner",
          "type": "address"
        },
        {
          "indexed": true,
          "internalType": "address",
          "name": "spender",
          "type": "address"
        },
        {
          "indexed": false,
          "internalType": "uint256",
          "name": "value",
          "type": "uint256"
        }
      ],
      "name": "Approval",
      "type": "event"
    },
    {
      "anonymous": false,
      "inputs": [
        {
          "indexed": true,
          "internalType": "address",
          "name": "from",
          "type": "address"
        },
        {
          "indexed": true,
          "internalType": "address",
          "name": "to",
          "type": "address"
        },
        {
          "indexed": false,
          "internalType": "uint256",
          "name": "value",
          "type": "uint256"
        }
      ],
      "name": "Transfer",
      "type": "event"
    },
    {
      "constant": true,
      "inputs": [
        {
          "internalType": "address",
          "name": "owner",
          "type": "address"
        },
        {
          "internalType": "address",
          "name": "spender",
          "type": "address"
        }
      ],
      "name": "allowance",
      "outputs": [
        {
          "internalType": "uint256",
          "name": "",
          "type": "uint256"
        }
      ],
      "payable": false,
      "stateMutability": "view",
      "type": "function"
    },
    {
      "constant": false,
      "inputs": [
        {
          "internalType": "address",
          "name": "spender",
          "type": "address"
        },
        {
          "internalType": "uint256",
          "name": "amount",
          "type": "uint256"
        }
      ],
      "name": "approve",
      "outputs": [
        {
          "internalType": "bool",
          "name": "",
          "type": "bool"
        }
      ],
      "payable": false,
      "stateMutability": "nonpayable",
      "type": "function"
    },
    {
      "constant": true,
      "inputs": [
        {
          "internalType": "address",
          "name": "account",
          "type": "address"
        }
      ],
      "name": "balanceOf",
      "outputs": [
        {
          "internalType": "uint256",
          "name": "",
          "type": "uint256"
        }
      ],
      "payable": false,
      "stateMutability": "view",
      "type": "function"
    },
    {
      "constant": false,
      "inputs": [
        {
          "internalType": "address",
          "name": "account",
          "type": "address"
        },
        {
          "internalType": "uint256",
          "name": "amount",
          "type": "uint256"
        }
      ],
      "name": "burn",
      "outputs": [],
      "payable": false,
      "stateMutability": "nonpayable",
      "type": "function"
    },
    {
      "constant": true,
      "inputs": [],
      "name": "decimals",
      "outputs": [
        {
          "internalType": "uint8",
          "name": "",
          "type": "uint8"
        }
      ],
      "payable": false,
      "stateMutability": "view",
      "type": "function"
    },
    {
      "constant": true,
      "inputs": [],
      "name": "getReserves",
      "outputs": [
        {
          "internalType": "uint112",
          "name": "_reserve0",
          "type": "uint112"
        },
        {
          "internalType": "uint112",
          "name": "_reserve1",
          "type": "uint112"
        },
        {
          "internalType": "uint32",
          "name": "_blockTimestampLast",
          "type": "uint32"
        }
      ],
      "payable": false,
      "stateMutability": "view",
      "type": "function"
    },
    {
      "constant": false,
      "inputs": [
        {
          "internalType": "address",
          "name": "account",
          "type": "address"
        },
        {
          "internalType": "uint256",
          "name": "amount",
          "type": "uint256"
        }
      ],
      "name": "mint",
      "outputs": [],
      "payable": false,
      "stateMutability": "nonpayable",
      "type": "function"
    },
    {
      "constant": true,
      "inputs": [],
      "name": "name",
      "outputs": [
        {
          "internalType": "string",
          "name": "",
          "type": "string"
        }
      ],
      "payable": false,
      "stateMutability": "view",
      "type": "function"
    },
    {
      "constant": true,
      "inputs": [],
      "name": "price0CumulativeLast",
      "outputs": [
        {
          "internalType": "uint256",
          "name": "",
          "type": "uint256"
        }
      ],
      "payable": false,
      "stateMutability": "view",
      "type": "function"
    },
    {
      "constant": false,
      "inputs": [
        {
          "internalType": "address",
          "name": "account",
          "type": "address"
        },
        {
          "internalType": "uint256",
          "name": "amount",
          "type": "uint256"
        }
      ],
      "name": "setBalanceHarness",
      "outputs": [],
      "payable": false,
      "stateMutability": "nonpayable",
      "type": "function"
    },
    {
      "constant": false,
      "inputs": [
        {
          "internalType": "uint112",
          "name": "_reserve0",
          "type": "uint112"
        },
        {
          "internalType": "uint112",
          "name": "_reserve1",
          "type": "uint112"
        }
      ],
      "name": "setReserves",
      "outputs": [],
      "payable": false,
      "stateMutability": "nonpayable",
      "type": "function"
    },
    {
      "constant": false,
      "inputs": [
        {
          "internalType": "uint256",
          "name": "__totalSupply",
          "type": "uint256"
        }
      ],
      "name": "setTotalSupply",
      "outputs": [],
      "payable": false,
      "stateMutability": "nonpayable",
      "type": "function"
    },
    {
      "constant": true,
      "inputs": [],
      "name": "symbol",
      "outputs": [
        {
          "internalType": "string",
          "name": "",
          "type": "string"
        }
      ],
      "payable": false,
      "stateMutability": "view",
      "type": "function"
    },
    {
      "constant": true,
      "inputs": [],
      "name": "token0",
      "outputs": [
        {
          "internalType": "address",
          "name": "",
          "type": "address"
        }
      ],
      "payable": false,
      "stateMutability": "view",
      "type": "function"
    },
    {
      "constant": true,
      "inputs": [],
      "name": "token1",
      "outputs": [
        {
          "internalType": "address",
          "name": "",
          "type": "address"
        }
      ],
      "payable": false,
      "stateMutability": "view",
      "type": "function"
    },
    {
      "constant": true,
      "inputs": [],
      "name": "totalSupply",
      "outputs": [
        {
          "internalType": "uint256",
          "name": "",
          "type": "uint256"
        }
      ],
      "payable": false,
      "stateMutability": "view",
      "type": "function"
    },
    {
      "constant": false,
      "inputs": [
        {
          "internalType": "address",
          "name": "to",
          "type": "address"
        },
        {
          "internalType": "uint256",
          "name": "amount",
          "type": "uint256"
        }
      ],
      "name": "transfer",
      "outputs": [
        {
          "internalType": "bool",
          "name": "",
          "type": "bool"
        }
      ],
      "payable": false,
      "stateMutability": "nonpayable",
      "type": "function"
    },
    {
      "constant": false,
      "inputs": [
        {
          "internalType": "address",
          "name": "from",
          "type": "address"
        },
        {
          "internalType": "address",
          "name": "to",
          "type": "address"
        },
        {
          "internalType": "uint256",
          "name": "amount",
          "type": "uint256"
        }
      ],
      "name": "transferFrom",
      "outputs": [
        {
          "internalType": "bool",
          "name": "",
          "type": "bool"
        }
      ],
      "payable": false,
      "stateMutability": "nonpayable",
      "type": "function"
    }
  ],
  "bytecode": "0x608060405260088054633b9aca006001600160701b031990911617600160701b600160e01b031916621dcd6560791b17905534801561003d57600080fd5b50604051610cde380380610cde8339818101604052604081101561006057600080fd5b50805160209182015160408051808501808352600080835283519687019093529185528051939492939092916100999160039190610117565b5080516100ad906004906020840190610117565b505060058054600880546001600160e01b0316600160e01b4263ffffffff160217905560ff1916601217610100600160a81b0319166101006001600160a01b039586160217905550600680546001600160a01b03191691909216179055633b9aca006002556101b2565b828054600181600116156101000203166002900490600052602060002090601f016020900481019282601f1061015857805160ff1916838001178555610185565b82800160010185558215610185579182015b8281111561018557825182559160200191906001019061016a565b50610191929150610195565b5090565b6101af91905b80821115610191576000815560010161019b565b90565b610b1d806101c16000396000f3fe608060405234801561001057600080fd5b50600436106101165760003560e01c806370a08231116100a2578063a9059cbb11610071578063a9059cbb14610360578063d21220a71461038c578063d7b9e05614610394578063dd62ed3e146103c0578063f7ea7a3d146103ee57610116565b806370a08231146102d857806375ea5f2e146102fe57806395d89b411461032c5780639dc29fac1461033457610116565b806318160ddd116100e957806318160ddd1461023457806323b872dd1461024e578063313ce5671461028457806340c10f19146102a25780635909c0d5146102d057610116565b806306fdde031461011b5780630902f1ac14610198578063095ea7b3146101d05780630dfe168114610210575b600080fd5b61012361040b565b6040805160208082528351818301528351919283929083019185019080838360005b8381101561015d578181015183820152602001610145565b50505050905090810190601f16801561018a5780820380516001836020036101000a031916815260200191505b509250505060405180910390f35b6101a06104a1565b604080516001600160701b03948516815292909316602083015263ffffffff168183015290519081900360600190f35b6101fc600480360360408110156101e657600080fd5b506001600160a01b0381351690602001356104cb565b604080519115158252519081900360200190f35b6102186104e1565b604080516001600160a01b039092168252519081900360200190f35b61023c6104f5565b60408051918252519081900360200190f35b6101fc6004803603606081101561026457600080fd5b506001600160a01b038135811691602081013590911690604001356104fb565b61028c61056a565b6040805160ff9092168252519081900360200190f35b6102ce600480360360408110156102b857600080fd5b506001600160a01b038135169060200135610573565b005b61023c610581565b61023c600480360360208110156102ee57600080fd5b50356001600160a01b0316610587565b6102ce6004803603604081101561031457600080fd5b506001600160701b03813581169160200135166105a2565b6101236105eb565b6102ce6004803603604081101561034a57600080fd5b506001600160a01b03813516906020013561064c565b6101fc6004803603604081101561037657600080fd5b506001600160a01b038135169060200135610656565b610218610663565b6102ce600480360360408110156103aa57600080fd5b506001600160a01b038135169060200135610672565b61023c600480360360408110156103d657600080fd5b506001600160a01b038135811691602001351661068e565b6102ce6004803603602081101561040457600080fd5b50356106b9565b60038054604080516020601f60026000196101006001881615020190951694909404938401819004810282018101909252828152606093909290918301828280156104975780601f1061046c57610100808354040283529160200191610497565b820191906000526020600020905b81548152906001019060200180831161047a57829003601f168201915b5050505050905090565b6008546001600160701b0380821692600160701b830490911691600160e01b900463ffffffff1690565b60006104d83384846106be565b50600192915050565b60055461010090046001600160a01b031681565b60025490565b6000610508848484610720565b610560843361055b85604051806060016040528060288152602001610ac1602891396001600160a01b038a166000908152600160209081526040808320338452909152902054919063ffffffff6107f216565b6106be565b5060019392505050565b60055460ff1690565b61057d8282610889565b5050565b60075481565b6001600160a01b031660009081526020819052604090205490565b600880546001600160701b03928316600160701b026dffffffffffffffffffffffffffff60701b19949093166dffffffffffffffffffffffffffff199091161792909216179055565b60048054604080516020601f60026000196101006001881615020190951694909404938401819004810282018101909252828152606093909290918301828280156104975780601f1061046c57610100808354040283529160200191610497565b61057d828261091e565b60006104d8338484610720565b6006546001600160a01b031681565b6001600160a01b03909116600090815260208190526040902055565b6001600160a01b03918216600090815260016020908152604080832093909416825291909152205490565b600255565b6001600160a01b03808416600081815260016020908152604080832094871680845294825291829020859055815185815291517f8c5be1e5ebec7d5bd14f71427d1e84f3dd0314c0f7b2291e5b200ac8c7c3b9259281900390910190a3505050565b61076381604051806060016040528060268152602001610a9b602691396001600160a01b038616600090815260208190526040902054919063ffffffff6107f216565b6001600160a01b038085166000908152602081905260408082209390935590841681522054610798908263ffffffff6109d516565b6001600160a01b038084166000818152602081815260409182902094909455805185815290519193928716927fddf252ad1be2c89b69c2b068fc378daa952ba7f163c4a11628f55a4df523b3ef92918290030190a3505050565b600081848411156108815760405162461bcd60e51b81526004018080602001828103825283818151815260200191508051906020019080838360005b8381101561084657818101518382015260200161082e565b50505050905090810190601f1680156108735780820380516001836020036101000a031916815260200191505b509250505060405180910390fd5b505050900390565b60025461089c908263ffffffff6109d516565b6002556001600160a01b0382166000908152602081905260409020546108c8908263ffffffff6109d516565b6001600160a01b0383166000818152602081815260408083209490945583518581529351929391927fddf252ad1be2c89b69c2b068fc378daa952ba7f163c4a11628f55a4df523b3ef9281900390910190a35050565b61096181604051806060016040528060228152602001610a79602291396001600160a01b038516600090815260208190526040902054919063ffffffff6107f216565b6001600160a01b03831660009081526020819052604090205560025461098d908263ffffffff610a3616565b6002556040805182815290516000916001600160a01b038516917fddf252ad1be2c89b69c2b068fc378daa952ba7f163c4a11628f55a4df523b3ef9181900360200190a35050565b600082820183811015610a2f576040805162461bcd60e51b815260206004820152601b60248201527f536166654d6174683a206164646974696f6e206f766572666c6f770000000000604482015290519081900360640190fd5b9392505050565b6000610a2f83836040518060400160405280601f81526020017f536166654d6174683a207375627472616374696f6e20756e646572666c6f77008152506107f256fe45524332303a206275726e20616d6f756e7420657863656564732062616c616e636545524332303a207472616e7366657220616d6f756e7420657863656564732062616c616e636545524332303a207472616e7366657220616d6f756e74206578636565647320616c6c6f77616e6365a265627a7a72315820f4661941dec69bc85f9f779fd91d7eff7727fac8b9de863d7156737e7990984664736f6c63430005100032",
  "linkReferences": {},
  "deployedLinkReferences": {}
}