{
  "_format": "hh-sol-artifact-1",
  "contractName": "Borrowable",
  "sourceName": "contracts/Borrowable.sol",
  "abi": [
    {
      "inputs": [],
      "payable": false,
      "stateMutability": "nonpayable",
      "type": "constructor"
    },
    {
      "anonymous": false,
      "inputs": [
        {
          "indexed": false,
          "internalType": "uint256",
          "name": "interestAccumulated",
          "type": "uint256"
        },
        {
          "indexed": false,
          "internalType": "uint256",
          "name": "borrowIndex",
          "type": "uint256"
        },
        {
          "indexed": false,
          "internalType": "uint256",
          "name": "totalBorrows",
          "type": "uint256"
        }
      ],
      "name": "AccrueInterest",
      "type": "event"
    },
    {
      "anonymous": false,
      "inputs": [
        {
          "indexed": true,
          "internalType": "address",
          "name": "owner",
          "type": "address"
        },
        {
          "indexed": true,
          "internalType": "address",
          "name": "spender",
          "type": "address"
        },
        {
          "indexed": false,
          "internalType": "uint256",
          "name": "value",
          "type": "uint256"
        }
      ],
      "name": "Approval",
      "type": "event"
    },
    {
      "anonymous": false,
      "inputs": [
        {
          "indexed": true,
          "internalType": "address",
          "name": "sender",
          "type": "address"
        },
        {
          "indexed": true,
          "internalType": "address",
          "name": "borrower",
          "type": "address"
        },
        {
          "indexed": true,
          "internalType": "address",
          "name": "receiver",
          "type": "address"
        },
        {
          "indexed": false,
          "internalType": "uint256",
          "name": "borrowAmount",
          "type": "uint256"
        },
        {
          "indexed": false,
          "internalType": "uint256",
          "name": "repayAmount",
          "type": "uint256"
        },
        {
          "indexed": false,
          "internalType": "uint256",
          "name": "accountBorrowsPrior",
          "type": "uint256"
        },
        {
          "indexed": false,
          "internalType": "uint256",
          "name": "accountBorrows",
          "type": "uint256"
        },
        {
          "indexed": false,
          "internalType": "uint256",
          "name": "totalBorrows",
          "type": "uint256"
        }
      ],
      "name": "Borrow",
      "type": "event"
    },
    {
      "anonymous": false,
      "inputs": [
        {
          "indexed": true,
          "internalType": "address",
          "name": "owner",
          "type": "address"
        },
        {
          "indexed": true,
          "internalType": "address",
          "name": "spender",
          "type": "address"
        },
        {
          "indexed": false,
          "internalType": "uint256",
          "name": "value",
          "type": "uint256"
        }
      ],
      "name": "BorrowApproval",
      "type": "event"
    },
    {
      "anonymous": false,
      "inputs": [
        {
          "indexed": false,
          "internalType": "uint256",
          "name": "borrowRate",
          "type": "uint256"
        }
      ],
      "name": "CalculateBorrowRate",
      "type": "event"
    },
    {
      "anonymous": false,
      "inputs": [
        {
          "indexed": false,
          "internalType": "uint256",
          "name": "kinkRate",
          "type": "uint256"
        }
      ],
      "name": "CalculateKink",
      "type": "event"
    },
    {
      "anonymous": false,
      "inputs": [
        {
          "indexed": false,
          "internalType": "uint256",
          "name": "kinkBorrowRate",
          "type": "uint256"
        }
      ],
      "name": "CalculateKinkBorrowRate",
      "type": "event"
    },
    {
      "anonymous": false,
      "inputs": [
        {
          "indexed": true,
          "internalType": "address",
          "name": "sender",
          "type": "address"
        },
        {
          "indexed": true,
          "internalType": "address",
          "name": "borrower",
          "type": "address"
        },
        {
          "indexed": true,
          "internalType": "address",
          "name": "liquidator",
          "type": "address"
        },
        {
          "indexed": false,
          "internalType": "uint256",
          "name": "seizeTokens",
          "type": "uint256"
        },
        {
          "indexed": false,
          "internalType": "uint256",
          "name": "repayAmount",
          "type": "uint256"
        },
        {
          "indexed": false,
          "internalType": "uint256",
          "name": "accountBorrowsPrior",
          "type": "uint256"
        },
        {
          "indexed": false,
          "internalType": "uint256",
          "name": "accountBorrows",
          "type": "uint256"
        },
        {
          "indexed": false,
          "internalType": "uint256",
          "name": "totalBorrows",
          "type": "uint256"
        }
      ],
      "name": "Liquidate",
      "type": "event"
    },
    {
      "anonymous": false,
      "inputs": [
        {
          "indexed": true,
          "internalType": "address",
          "name": "sender",
          "type": "address"
        },
        {
          "indexed": true,
          "internalType": "address",
          "name": "minter",
          "type": "address"
        },
        {
          "indexed": false,
          "internalType": "uint256",
          "name": "mintAmount",
          "type": "uint256"
        },
        {
          "indexed": false,
          "internalType": "uint256",
          "name": "mintTokens",
          "type": "uint256"
        }
      ],
      "name": "Mint",
      "type": "event"
    },
    {
      "anonymous": false,
      "inputs": [
        {
          "indexed": false,
          "internalType": "uint256",
          "name": "newAdjustSpeed",
          "type": "uint256"
        }
      ],
      "name": "NewAdjustSpeed",
      "type": "event"
    },
    {
      "anonymous": false,
      "inputs": [
        {
          "indexed": false,
          "internalType": "address",
          "name": "newBorrowTracker",
          "type": "address"
        }
      ],
      "name": "NewBorrowTracker",
      "type": "event"
    },
    {
      "anonymous": false,
      "inputs": [
        {
          "indexed": false,
          "internalType": "uint256",
          "name": "newKinkUtilizationRate",
          "type": "uint256"
        }
      ],
      "name": "NewKinkUtilizationRate",
      "type": "event"
    },
    {
      "anonymous": false,
      "inputs": [
        {
          "indexed": false,
          "internalType": "uint256",
          "name": "newReserveFactor",
          "type": "uint256"
        }
      ],
      "name": "NewReserveFactor",
      "type": "event"
    },
    {
      "anonymous": false,
      "inputs": [
        {
          "indexed": true,
          "internalType": "address",
          "name": "sender",
          "type": "address"
        },
        {
          "indexed": true,
          "internalType": "address",
          "name": "redeemer",
          "type": "address"
        },
        {
          "indexed": false,
          "internalType": "uint256",
          "name": "redeemAmount",
          "type": "uint256"
        },
        {
          "indexed": false,
          "internalType": "uint256",
          "name": "redeemTokens",
          "type": "uint256"
        }
      ],
      "name": "Redeem",
      "type": "event"
    },
    {
      "anonymous": false,
      "inputs": [
        {
          "indexed": false,
          "internalType": "uint256",
          "name": "totalBalance",
          "type": "uint256"
        }
      ],
      "name": "Sync",
      "type": "event"
    },
    {
      "anonymous": false,
      "inputs": [
        {
          "indexed": true,
          "internalType": "address",
          "name": "from",
          "type": "address"
        },
        {
          "indexed": true,
          "internalType": "address",
          "name": "to",
          "type": "address"
        },
        {
          "indexed": false,
          "internalType": "uint256",
          "name": "value",
          "type": "uint256"
        }
      ],
      "name": "Transfer",
      "type": "event"
    },
    {
      "constant": true,
      "inputs": [],
      "name": "ADJUST_SPEED_MAX",
      "outputs": [
        {
          "internalType": "uint256",
          "name": "",
          "type": "uint256"
        }
      ],
      "payable": false,
      "stateMutability": "view",
      "type": "function"
    },
    {
      "constant": true,
      "inputs": [],
      "name": "ADJUST_SPEED_MIN",
      "outputs": [
        {
          "internalType": "uint256",
          "name": "",
          "type": "uint256"
        }
      ],
      "payable": false,
      "stateMutability": "view",
      "type": "function"
    },
    {
      "constant": true,
      "inputs": [],
      "name": "BORROW_FEE",
      "outputs": [
        {
          "internalType": "uint256",
          "name": "",
          "type": "uint256"
        }
      ],
      "payable": false,
      "stateMutability": "view",
      "type": "function"
    },
    {
      "constant": true,
      "inputs": [],
      "name": "BORROW_PERMIT_TYPEHASH",
      "outputs": [
        {
          "internalType": "bytes32",
          "name": "",
          "type": "bytes32"
        }
      ],
      "payable": false,
      "stateMutability": "view",
      "type": "function"
    },
    {
      "constant": true,
      "inputs": [],
      "name": "DOMAIN_SEPARATOR",
      "outputs": [
        {
          "internalType": "bytes32",
          "name": "",
          "type": "bytes32"
        }
      ],
      "payable": false,
      "stateMutability": "view",
      "type": "function"
    },
    {
      "constant": true,
      "inputs": [],
      "name": "KINK_BORROW_RATE_MAX",
      "outputs": [
        {
          "internalType": "uint256",
          "name": "",
          "type": "uint256"
        }
      ],
      "payable": false,
      "stateMutability": "view",
      "type": "function"
    },
    {
      "constant": true,
      "inputs": [],
      "name": "KINK_BORROW_RATE_MIN",
      "outputs": [
        {
          "internalType": "uint256",
          "name": "",
          "type": "uint256"
        }
      ],
      "payable": false,
      "stateMutability": "view",
      "type": "function"
    },
    {
      "constant": true,
      "inputs": [],
      "name": "KINK_MULTIPLIER",
      "outputs": [
        {
          "internalType": "uint256",
          "name": "",
          "type": "uint256"
        }
      ],
      "payable": false,
      "stateMutability": "view",
      "type": "function"
    },
    {
      "constant": true,
      "inputs": [],
      "name": "KINK_UR_MAX",
      "outputs": [
        {
          "internalType": "uint256",
          "name": "",
          "type": "uint256"
        }
      ],
      "payable": false,
      "stateMutability": "view",
      "type": "function"
    },
    {
      "constant": true,
      "inputs": [],
      "name": "KINK_UR_MIN",
      "outputs": [
        {
          "internalType": "uint256",
          "name": "",
          "type": "uint256"
        }
      ],
      "payable": false,
      "stateMutability": "view",
      "type": "function"
    },
    {
      "constant": true,
      "inputs": [],
      "name": "MINIMUM_LIQUIDITY",
      "outputs": [
        {
          "internalType": "uint256",
          "name": "",
          "type": "uint256"
        }
      ],
      "payable": false,
      "stateMutability": "view",
      "type": "function"
    },
    {
      "constant": true,
      "inputs": [],
      "name": "PERMIT_TYPEHASH",
      "outputs": [
        {
          "internalType": "bytes32",
          "name": "",
          "type": "bytes32"
        }
      ],
      "payable": false,
      "stateMutability": "view",
      "type": "function"
    },
    {
      "constant": true,
      "inputs": [],
      "name": "RESERVE_FACTOR_MAX",
      "outputs": [
        {
          "internalType": "uint256",
          "name": "",
          "type": "uint256"
        }
      ],
      "payable": false,
      "stateMutability": "view",
      "type": "function"
    },
    {
      "constant": false,
      "inputs": [
        {
          "internalType": "string",
          "name": "_name",
          "type": "string"
        },
        {
          "internalType": "string",
          "name": "_symbol",
          "type": "string"
        },
        {
          "internalType": "address",
          "name": "_underlying",
          "type": "address"
        },
        {
          "internalType": "address",
          "name": "_collateral",
          "type": "address"
        }
      ],
      "name": "_initialize",
      "outputs": [],
      "payable": false,
      "stateMutability": "nonpayable",
      "type": "function"
    },
    {
      "constant": false,
      "inputs": [
        {
          "internalType": "uint256",
          "name": "newAdjustSpeed",
          "type": "uint256"
        }
      ],
      "name": "_setAdjustSpeed",
      "outputs": [],
      "payable": false,
      "stateMutability": "nonpayable",
      "type": "function"
    },
    {
      "constant": false,
      "inputs": [
        {
          "internalType": "address",
          "name": "newBorrowTracker",
          "type": "address"
        }
      ],
      "name": "_setBorrowTracker",
      "outputs": [],
      "payable": false,
      "stateMutability": "nonpayable",
      "type": "function"
    },
    {
      "constant": false,
      "inputs": [],
      "name": "_setFactory",
      "outputs": [],
      "payable": false,
      "stateMutability": "nonpayable",
      "type": "function"
    },
    {
      "constant": false,
      "inputs": [
        {
          "internalType": "uint256",
          "name": "newKinkUtilizationRate",
          "type": "uint256"
        }
      ],
      "name": "_setKinkUtilizationRate",
      "outputs": [],
      "payable": false,
      "stateMutability": "nonpayable",
      "type": "function"
    },
    {
      "constant": false,
      "inputs": [
        {
          "internalType": "uint256",
          "name": "newReserveFactor",
          "type": "uint256"
        }
      ],
      "name": "_setReserveFactor",
      "outputs": [],
      "payable": false,
      "stateMutability": "nonpayable",
      "type": "function"
    },
    {
      "constant": true,
      "inputs": [],
      "name": "accrualTimestamp",
      "outputs": [
        {
          "internalType": "uint32",
          "name": "",
          "type": "uint32"
        }
      ],
      "payable": false,
      "stateMutability": "view",
      "type": "function"
    },
    {
      "constant": false,
      "inputs": [],
      "name": "accrueInterest",
      "outputs": [],
      "payable": false,
      "stateMutability": "nonpayable",
      "type": "function"
    },
    {
      "constant": true,
      "inputs": [],
      "name": "adjustSpeed",
      "outputs": [
        {
          "internalType": "uint256",
          "name": "",
          "type": "uint256"
        }
      ],
      "payable": false,
      "stateMutability": "view",
      "type": "function"
    },
    {
      "constant": true,
      "inputs": [
        {
          "internalType": "address",
          "name": "",
          "type": "address"
        },
        {
          "internalType": "address",
          "name": "",
          "type": "address"
        }
      ],
      "name": "allowance",
      "outputs": [
        {
          "internalType": "uint256",
          "name": "",
          "type": "uint256"
        }
      ],
      "payable": false,
      "stateMutability": "view",
      "type": "function"
    },
    {
      "constant": false,
      "inputs": [
        {
          "internalType": "address",
          "name": "spender",
          "type": "address"
        },
        {
          "internalType": "uint256",
          "name": "value",
          "type": "uint256"
        }
      ],
      "name": "approve",
      "outputs": [
        {
          "internalType": "bool",
          "name": "",
          "type": "bool"
        }
      ],
      "payable": false,
      "stateMutability": "nonpayable",
      "type": "function"
    },
    {
      "constant": true,
      "inputs": [
        {
          "internalType": "address",
          "name": "",
          "type": "address"
        }
      ],
      "name": "balanceOf",
      "outputs": [
        {
          "internalType": "uint256",
          "name": "",
          "type": "uint256"
        }
      ],
      "payable": false,
      "stateMutability": "view",
      "type": "function"
    },
    {
      "constant": false,
      "inputs": [
        {
          "internalType": "address",
          "name": "borrower",
          "type": "address"
        },
        {
          "internalType": "address",
          "name": "receiver",
          "type": "address"
        },
        {
          "internalType": "uint256",
          "name": "borrowAmount",
          "type": "uint256"
        },
        {
          "internalType": "bytes",
          "name": "data",
          "type": "bytes"
        }
      ],
      "name": "borrow",
      "outputs": [],
      "payable": false,
      "stateMutability": "nonpayable",
      "type": "function"
    },
    {
      "constant": true,
      "inputs": [
        {
          "internalType": "address",
          "name": "",
          "type": "address"
        },
        {
          "internalType": "address",
          "name": "",
          "type": "address"
        }
      ],
      "name": "borrowAllowance",
      "outputs": [
        {
          "internalType": "uint256",
          "name": "",
          "type": "uint256"
        }
      ],
      "payable": false,
      "stateMutability": "view",
      "type": "function"
    },
    {
      "constant": false,
      "inputs": [
        {
          "internalType": "address",
          "name": "spender",
          "type": "address"
        },
        {
          "internalType": "uint256",
          "name": "value",
          "type": "uint256"
        }
      ],
      "name": "borrowApprove",
      "outputs": [
        {
          "internalType": "bool",
          "name": "",
          "type": "bool"
        }
      ],
      "payable": false,
      "stateMutability": "nonpayable",
      "type": "function"
    },
    {
      "constant": true,
      "inputs": [
        {
          "internalType": "address",
          "name": "borrower",
          "type": "address"
        }
      ],
      "name": "borrowBalance",
      "outputs": [
        {
          "internalType": "uint256",
          "name": "",
          "type": "uint256"
        }
      ],
      "payable": false,
      "stateMutability": "view",
      "type": "function"
    },
    {
      "constant": true,
      "inputs": [],
      "name": "borrowIndex",
      "outputs": [
        {
          "internalType": "uint112",
          "name": "",
          "type": "uint112"
        }
      ],
      "payable": false,
      "stateMutability": "view",
      "type": "function"
    },
    {
      "constant": false,
      "inputs": [
        {
          "internalType": "address",
          "name": "owner",
          "type": "address"
        },
        {
          "internalType": "address",
          "name": "spender",
          "type": "address"
        },
        {
          "internalType": "uint256",
          "name": "value",
          "type": "uint256"
        },
        {
          "internalType": "uint256",
          "name": "deadline",
          "type": "uint256"
        },
        {
          "internalType": "uint8",
          "name": "v",
          "type": "uint8"
        },
        {
          "internalType": "bytes32",
          "name": "r",
          "type": "bytes32"
        },
        {
          "internalType": "bytes32",
          "name": "s",
          "type": "bytes32"
        }
      ],
      "name": "borrowPermit",
      "outputs": [],
      "payable": false,
      "stateMutability": "nonpayable",
      "type": "function"
    },
    {
      "constant": true,
      "inputs": [],
      "name": "borrowRate",
      "outputs": [
        {
          "internalType": "uint48",
          "name": "",
          "type": "uint48"
        }
      ],
      "payable": false,
      "stateMutability": "view",
      "type": "function"
    },
    {
      "constant": true,
      "inputs": [],
      "name": "borrowTracker",
      "outputs": [
        {
          "internalType": "address",
          "name": "",
          "type": "address"
        }
      ],
      "payable": false,
      "stateMutability": "view",
      "type": "function"
    },
    {
      "constant": true,
      "inputs": [],
      "name": "collateral",
      "outputs": [
        {
          "internalType": "address",
          "name": "",
          "type": "address"
        }
      ],
      "payable": false,
      "stateMutability": "view",
      "type": "function"
    },
    {
      "constant": true,
      "inputs": [],
      "name": "decimals",
      "outputs": [
        {
          "internalType": "uint8",
          "name": "",
          "type": "uint8"
        }
      ],
      "payable": false,
      "stateMutability": "view",
      "type": "function"
    },
    {
      "constant": false,
      "inputs": [],
      "name": "exchangeRate",
      "outputs": [
        {
          "internalType": "uint256",
          "name": "",
          "type": "uint256"
        }
      ],
      "payable": false,
      "stateMutability": "nonpayable",
      "type": "function"
    },
    {
      "constant": true,
      "inputs": [],
      "name": "exchangeRateLast",
      "outputs": [
        {
          "internalType": "uint256",
          "name": "",
          "type": "uint256"
        }
      ],
      "payable": false,
      "stateMutability": "view",
      "type": "function"
    },
    {
      "constant": true,
      "inputs": [],
      "name": "factory",
      "outputs": [
        {
          "internalType": "address",
          "name": "",
          "type": "address"
        }
      ],
      "payable": false,
      "stateMutability": "view",
      "type": "function"
    },
    {
      "constant": true,
      "inputs": [],
      "name": "getBlockTimestamp",
      "outputs": [
        {
          "internalType": "uint32",
          "name": "",
          "type": "uint32"
        }
      ],
      "payable": false,
      "stateMutability": "view",
      "type": "function"
    },
    {
      "constant": true,
      "inputs": [],
      "name": "kinkBorrowRate",
      "outputs": [
        {
          "internalType": "uint48",
          "name": "",
          "type": "uint48"
        }
      ],
      "payable": false,
      "stateMutability": "view",
      "type": "function"
    },
    {
      "constant": true,
      "inputs": [],
      "name": "kinkUtilizationRate",
      "outputs": [
        {
          "internalType": "uint256",
          "name": "",
          "type": "uint256"
        }
      ],
      "payable": false,
      "stateMutability": "view",
      "type": "function"
    },
    {
      "constant": false,
      "inputs": [
        {
          "internalType": "address",
          "name": "borrower",
          "type": "address"
        },
        {
          "internalType": "address",
          "name": "liquidator",
          "type": "address"
        }
      ],
      "name": "liquidate",
      "outputs": [
        {
          "internalType": "uint256",
          "name": "seizeTokens",
          "type": "uint256"
        }
      ],
      "payable": false,
      "stateMutability": "nonpayable",
      "type": "function"
    },
    {
      "constant": false,
      "inputs": [
        {
          "internalType": "address",
          "name": "minter",
          "type": "address"
        }
      ],
      "name": "mint",
      "outputs": [
        {
          "internalType": "uint256",
          "name": "mintTokens",
          "type": "uint256"
        }
      ],
      "payable": false,
      "stateMutability": "nonpayable",
      "type": "function"
    },
    {
      "constant": true,
      "inputs": [],
      "name": "name",
      "outputs": [
        {
          "internalType": "string",
          "name": "",
          "type": "string"
        }
      ],
      "payable": false,
      "stateMutability": "view",
      "type": "function"
    },
    {
      "constant": true,
      "inputs": [
        {
          "internalType": "address",
          "name": "",
          "type": "address"
        }
      ],
      "name": "nonces",
      "outputs": [
        {
          "internalType": "uint256",
          "name": "",
          "type": "uint256"
        }
      ],
      "payable": false,
      "stateMutability": "view",
      "type": "function"
    },
    {
      "constant": false,
      "inputs": [
        {
          "internalType": "address",
          "name": "owner",
          "type": "address"
        },
        {
          "internalType": "address",
          "name": "spender",
          "type": "address"
        },
        {
          "internalType": "uint256",
          "name": "value",
          "type": "uint256"
        },
        {
          "internalType": "uint256",
          "name": "deadline",
          "type": "uint256"
        },
        {
          "internalType": "uint8",
          "name": "v",
          "type": "uint8"
        },
        {
          "internalType": "bytes32",
          "name": "r",
          "type": "bytes32"
        },
        {
          "internalType": "bytes32",
          "name": "s",
          "type": "bytes32"
        }
      ],
      "name": "permit",
      "outputs": [],
      "payable": false,
      "stateMutability": "nonpayable",
      "type": "function"
    },
    {
      "constant": true,
      "inputs": [],
      "name": "rateUpdateTimestamp",
      "outputs": [
        {
          "internalType": "uint32",
          "name": "",
          "type": "uint32"
        }
      ],
      "payable": false,
      "stateMutability": "view",
      "type": "function"
    },
    {
      "constant": false,
      "inputs": [
        {
          "internalType": "address",
          "name": "redeemer",
          "type": "address"
        }
      ],
      "name": "redeem",
      "outputs": [
        {
          "internalType": "uint256",
          "name": "redeemAmount",
          "type": "uint256"
        }
      ],
      "payable": false,
      "stateMutability": "nonpayable",
      "type": "function"
    },
    {
      "constant": true,
      "inputs": [],
      "name": "reserveFactor",
      "outputs": [
        {
          "internalType": "uint256",
          "name": "",
          "type": "uint256"
        }
      ],
      "payable": false,
      "stateMutability": "view",
      "type": "function"
    },
    {
      "constant": false,
      "inputs": [
        {
          "internalType": "address",
          "name": "to",
          "type": "address"
        }
      ],
      "name": "skim",
      "outputs": [],
      "payable": false,
      "stateMutability": "nonpayable",
      "type": "function"
    },
    {
      "constant": true,
      "inputs": [],
      "name": "symbol",
      "outputs": [
        {
          "internalType": "string",
          "name": "",
          "type": "string"
        }
      ],
      "payable": false,
      "stateMutability": "view",
      "type": "function"
    },
    {
      "constant": false,
      "inputs": [],
      "name": "sync",
      "outputs": [],
      "payable": false,
      "stateMutability": "nonpayable",
      "type": "function"
    },
    {
      "constant": true,
      "inputs": [],
      "name": "totalBalance",
      "outputs": [
        {
          "internalType": "uint256",
          "name": "",
          "type": "uint256"
        }
      ],
      "payable": false,
      "stateMutability": "view",
      "type": "function"
    },
    {
      "constant": true,
      "inputs": [],
      "name": "totalBorrows",
      "outputs": [
        {
          "internalType": "uint112",
          "name": "",
          "type": "uint112"
        }
      ],
      "payable": false,
      "stateMutability": "view",
      "type": "function"
    },
    {
      "constant": true,
      "inputs": [],
      "name": "totalSupply",
      "outputs": [
        {
          "internalType": "uint256",
          "name": "",
          "type": "uint256"
        }
      ],
      "payable": false,
      "stateMutability": "view",
      "type": "function"
    },
    {
      "constant": false,
      "inputs": [
        {
          "internalType": "address",
          "name": "borrower",
          "type": "address"
        }
      ],
      "name": "trackBorrow",
      "outputs": [],
      "payable": false,
      "stateMutability": "nonpayable",
      "type": "function"
    },
    {
      "constant": false,
      "inputs": [
        {
          "internalType": "address",
          "name": "to",
          "type": "address"
        },
        {
          "internalType": "uint256",
          "name": "value",
          "type": "uint256"
        }
      ],
      "name": "transfer",
      "outputs": [
        {
          "internalType": "bool",
          "name": "",
          "type": "bool"
        }
      ],
      "payable": false,
      "stateMutability": "nonpayable",
      "type": "function"
    },
    {
      "constant": false,
      "inputs": [
        {
          "internalType": "address",
          "name": "from",
          "type": "address"
        },
        {
          "internalType": "address",
          "name": "to",
          "type": "address"
        },
        {
          "internalType": "uint256",
          "name": "value",
          "type": "uint256"
        }
      ],
      "name": "transferFrom",
      "outputs": [
        {
          "internalType": "bool",
          "name": "",
          "type": "bool"
        }
      ],
      "payable": false,
      "stateMutability": "nonpayable",
      "type": "function"
    },
    {
      "constant": true,
      "inputs": [],
      "name": "underlying",
      "outputs": [
        {
          "internalType": "address",
          "name": "",
          "type": "address"
        }
      ],
      "payable": false,
      "stateMutability": "view",
      "type": "function"
    }
  ],
  "bytecode": "0x60806040526002805460ff199081166012908117909255600b80549091166001179055600e80546001600160701b031916670de0b6b3a7640000176001600160e01b0316600160e01b4263ffffffff16908102919091179091556010805465ffffffffffff60301b191669bd014d800000000000001763ffffffff60601b19166c0100000000000000000000000090920291909117905567016345785d8a00006011556709b6e64a8ec6000090556486bd6db0206013553480156100c257600080fd5b506135f2806100d26000396000f3fe608060405234801561001057600080fd5b50600436106103995760003560e01c806370a08231116101e9578063b7f1118a1161010f578063c914b437116100ad578063e07660001161007c578063e076600014610a80578063e12b630614610a88578063fca7820b14610a90578063fff6cae914610aad57610399565b8063c914b437146109f1578063d505accf146109f9578063d8dfeb4514610a4a578063dd62ed3e14610a5257610399565b8063bc25cf77116100e9578063bc25cf77146109b3578063be340e32146109d9578063c45a0155146109e1578063c72f3fbb146109e957610399565b8063b7f1118a1461097d578063b95b92a3146109a3578063ba9a7a56146109ab57610399565b806395a2251f11610187578063a6afed9511610156578063a6afed9514610939578063a9059cbb14610941578063aa5af0fd1461096d578063ad7a672f1461097557610399565b806395a2251f146108b257806395d89b41146108d85780639e79b55c146108e0578063a07157191461093157610399565b806386b9d81f116101c357806386b9d81f1461081857806391b4274514610846578063926d845b146108695780639292b0321461089557610399565b806370a08231146107ab578063796b89b9146107d15780637ecebe00146107f257610399565b806335542822116102ce5780634d73e9ba1161026c5780636a030c111161023b5780636a030c111461067c5780636a6278421461074f5780636bd76d24146107755780636f307dc3146107a357610399565b80634d73e9ba1461062257806355957220146106485780635b2b9d1a1461066c578063685440651461067457610399565b80634322b714116102a85780634322b714146105e6578063452ae95f146105ee57806347bd3718146105f65780634a5d316c1461061a57610399565b806335542822146105b05780633644e515146105d65780633ba0b9a9146105de57610399565b80632374e8a91161033b57806327549a0b1161031557806327549a0b146105655780632d5231d31461058257806330adf81f1461058a578063313ce5671461059257610399565b80632374e8a91461051f57806323b872dd14610527578063253c24f31461055d57610399565b8063095ea7b311610377578063095ea7b31461043d57806318160ddd1461047d5780631aebf12f146104855780631e7dcc0d1461048d57610399565b806301f8c1c81461039e57806306fdde03146103b8578063075f4e7f14610435575b600080fd5b6103a6610ab5565b60408051918252519081900360200190f35b6103c0610ad9565b6040805160208082528351818301528351919283929083019185019080838360005b838110156103fa5781810151838201526020016103e2565b50505050905090810190601f1680156104275780820380516001836020036101000a031916815260200191505b509250505060405180910390f35b6103a6610b67565b6104696004803603604081101561045357600080fd5b506001600160a01b038135169060200135610b70565b604080519115158252519081900360200190f35b6103a6610b87565b6103a6610b8d565b61051d600480360360808110156104a357600080fd5b6001600160a01b038235811692602081013590911691604082013591908101906080810160608201356401000000008111156104de57600080fd5b8201836020820111156104f057600080fd5b8035906020019184600183028401116401000000008311171561051257600080fd5b509092509050610b93565b005b6103a6610fb6565b6104696004803603606081101561053d57600080fd5b506001600160a01b03813581169160208101359091169060400135610fc2565b6103a6611091565b61051d6004803603602081101561057b57600080fd5b503561109b565b6103a661114d565b6103a6611153565b61059a611177565b6040805160ff9092168252519081900360200190f35b61051d600480360360208110156105c657600080fd5b50356001600160a01b0316611180565b6103a661123d565b6103a6611243565b6103a66112ca565b6103a66112d0565b6105fe6112d9565b604080516001600160701b039092168252519081900360200190f35b61051d6112ef565b6103a66004803603602081101561063857600080fd5b50356001600160a01b0316611361565b6106506113f1565b604080516001600160a01b039092168252519081900360200190f35b6103a6611400565b6103a6611405565b61051d6004803603608081101561069257600080fd5b8101906020810181356401000000008111156106ad57600080fd5b8201836020820111156106bf57600080fd5b803590602001918460018302840111640100000000831117156106e157600080fd5b9193909290916020810190356401000000008111156106ff57600080fd5b82018360208201111561071157600080fd5b8035906020019184600183028401116401000000008311171561073357600080fd5b91935091506001600160a01b0381358116916020013516611411565b6103a66004803603602081101561076557600080fd5b50356001600160a01b0316611525565b6103a66004803603604081101561078b57600080fd5b506001600160a01b0381358116916020013516611723565b610650611740565b6103a6600480360360208110156107c157600080fd5b50356001600160a01b031661174f565b6107d9611761565b6040805163ffffffff9092168252519081900360200190f35b6103a66004803603602081101561080857600080fd5b50356001600160a01b031661176b565b6103a66004803603604081101561082e57600080fd5b506001600160a01b038135811691602001351661177d565b61084e6119ae565b6040805165ffffffffffff9092168252519081900360200190f35b6104696004803603604081101561087f57600080fd5b506001600160a01b0381351690602001356119c3565b61051d600480360360208110156108ab57600080fd5b50356119d0565b6103a6600480360360208110156108c857600080fd5b50356001600160a01b0316611a87565b6103c0611c20565b61051d600480360360e08110156108f657600080fd5b506001600160a01b03813581169160208101359091169060408101359060608101359060ff6080820135169060a08101359060c00135611c7a565b6103a6611cbe565b61051d611cc9565b6104696004803603604081101561095757600080fd5b506001600160a01b038135169060200135611e69565b6105fe611e76565b6103a6611e85565b61051d6004803603602081101561099357600080fd5b50356001600160a01b0316611e8b565b6107d9611eac565b6103a6611ebf565b61051d600480360360208110156109c957600080fd5b50356001600160a01b0316611ec5565b6103a6611fbf565b610650611fc5565b6103a6611fd4565b61084e611fe0565b61051d600480360360e0811015610a0f57600080fd5b506001600160a01b03813581169160208101359091169060408101359060608101359060ff6080820135169060a08101359060c00135611fee565b610650612029565b6103a660048036036040811015610a6857600080fd5b506001600160a01b038135811691602001351661203d565b6103a661205a565b6107d9612062565b61051d60048036036020811015610aa657600080fd5b5035612075565b61051d612125565b7ff6d86ed606f871fa1a557ac0ba607adce07767acf53f492fb215a1a4db4aea6f81565b6000805460408051602060026001851615610100026000190190941693909304601f81018490048402820184019092528181529291830182828015610b5f5780601f10610b3457610100808354040283529160200191610b5f565b820191906000526020600020905b815481529060010190602001808311610b4257829003601f168201915b505050505081565b640d7957c4d081565b6000610b7d338484612198565b5060015b92915050565b60035481565b60125481565b600b5460ff16610bdd576040805162461bcd60e51b815260206004820152601060248201526f115b195bdcce8814915153951154915160821b604482015290519081900360640190fd5b600b805460ff19169055610bef611cc9565b600a5480841115610c42576040805162461bcd60e51b815260206004820152601860248201527708ad8cadee67440929ca6aa8c8c9286928a9ca8be8682a6960431b604482015290519081900360640190fd5b610c4d8633866121fa565b8315610c5d57610c5d85856122bf565b8115610d0f5760405163e7027f3760e01b815233600482018181526001600160a01b03898116602485015260448401889052608060648501908152608485018790529089169363e7027f3793928b928a928a928a92909160a401848480828437600081840152601f19601f8201169050808301925050509650505050505050600060405180830381600087803b158015610cf657600080fd5b505af1158015610d0a573d6000803e3d6000fd5b505050505b600854604080516370a0823160e01b815230600482015290516000926001600160a01b0316916370a08231916024808301926020929190829003018186803b158015610d5a57600080fd5b505afa158015610d6e573d6000803e3d6000fd5b505050506040513d6020811015610d8457600080fd5b505190506000610db9670de0b6b3a7640000610dad8866038d7ea4c6800063ffffffff61244b16565b9063ffffffff6124ab16565b90506000610dcd878363ffffffff6124ed16565b90506000610df185610de5868b63ffffffff6124ed16565b9063ffffffff61254716565b90506000806000610e038d8686612589565b92509250925083851115610f1d57600b60019054906101000a90046001600160a01b03166001600160a01b0316639aac2c538e30856040518463ffffffff1660e01b815260040180846001600160a01b03166001600160a01b03168152602001836001600160a01b03166001600160a01b031681526020018281526020019350505050602060405180830381600087803b158015610ea057600080fd5b505af1158015610eb4573d6000803e3d6000fd5b505050506040513d6020811015610eca57600080fd5b5051610f1d576040805162461bcd60e51b815260206004820152601d60248201527f456c656f733a20494e53554646494349454e545f4c4951554944495459000000604482015290519081900360640190fd5b8b6001600160a01b03168d6001600160a01b0316336001600160a01b03167f33f3048bd4e6af45e53afb722adfd57dbde82da7e93e44db921fb4b8c6a70c4b8e88888888604051808681526020018581526020018481526020018381526020018281526020019550505050505060405180910390a45050505050505050610fa26127a3565b5050600b805460ff19166001179055505050565b6706f05b59d3b2000081565b6001600160a01b03831660009081526005602090815260408083203384529091528120546000191461107c57604080518082018252601b81527f456c656f733a205452414e534645525f4e4f545f414c4c4f57454400000000006020808301919091526001600160a01b038716600090815260058252838120338252909152919091205461105791849063ffffffff6127b316565b6001600160a01b03851660009081526005602090815260408083203384529091529020555b61108784848461284a565b5060019392505050565b6505436648e14081565b600b5460ff166110e5576040805162461bcd60e51b815260206004820152601060248201526f115b195bdcce8814915153951154915160821b604482015290519081900360640190fd5b600b805460ff1916905561110581640d7957c4d06505436648e14061293c565b60138190556040805182815290517f1396dfcdb64fb7eb77fb84966f27b81afe14aa70b6e966c68d74af3302a9fe909181900360200190a150600b805460ff19166001179055565b60135481565b7f6e71edae12b1b97f4d1f60370fef10105fa2faae0126114a169c64845d6126c981565b60025460ff1681565b600b5460ff166111ca576040805162461bcd60e51b815260206004820152601060248201526f115b195bdcce8814915153951154915160821b604482015290519081900360640190fd5b600b805460ff191690556111dc6129e5565b601480546001600160a01b0383166001600160a01b0319909116811790915560408051918252517f468b6598e7e810c65c9858b5f23a2d5b8692fb753b78a032232de4c6ed3cabbf9181900360200190a150600b805460ff19166001179055565b60065481565b600061124d611cc9565b600354600e54600a546000916112739190600160701b90046001600160701b03166124ed565b9050811580611280575080155b1561129757670de0b6b3a7640000925050506112c7565b60006112b583610dad84670de0b6b3a764000063ffffffff61244b16565b90506112c18184612ab1565b93505050505b90565b60115481565b6407620d070081565b600e54600160701b90046001600160701b031681565b6009546001600160a01b03161561134d576040805162461bcd60e51b815260206004820152601a60248201527f456c656f733a20464143544f52595f414c52454144595f534554000000000000604482015290519081900360640190fd5b600980546001600160a01b03191633179055565b600061136b6134a5565b506001600160a01b0382166000908152600d60209081526040918290208251808401909352546001600160701b038082168452600160701b909104169082018190526113bb5760009150506113ec565b6020810151600e5482516113e8926001600160701b0390811692610dad928216911663ffffffff61244b16565b9150505b919050565b6014546001600160a01b031681565b600581565b670dbd2fc137a3000081565b6009546001600160a01b03163314611466576040805162461bcd60e51b8152602060048201526013602482015272115b195bdcce8815539055551213d492569151606a1b604482015290519081900360640190fd5b6114d986868080601f01602080910402602001604051908101604052809392919081815260200183838082843760009201919091525050604080516020601f8a018190048102820181019092528881529250889150879081908401838280828437600092019190915250612bc692505050565b600880546001600160a01b039384166001600160a01b0319909116179055600b80549190921661010002610100600160a81b03199091161790555050670de0b6b3a7640000600f555050565b600b5460009060ff16611572576040805162461bcd60e51b815260206004820152601060248201526f115b195bdcce8814915153951154915160821b604482015290519081900360640190fd5b600b805460ff19169055600854604080516370a0823160e01b815230600482015290516000926001600160a01b0316916370a08231916024808301926020929190829003018186803b1580156115c757600080fd5b505afa1580156115db573d6000803e3d6000fd5b505050506040513d60208110156115f157600080fd5b5051600a5490915060009061160d90839063ffffffff61254716565b905061163261161a611243565b610dad83670de0b6b3a764000063ffffffff61244b16565b92506003546000141561166057611651836103e863ffffffff61254716565b925061166060006103e8612c8e565b600083116116b5576040805162461bcd60e51b815260206004820152601760248201527f456c656f733a204d494e545f414d4f554e545f5a45524f000000000000000000604482015290519081900360640190fd5b6116bf8484612c8e565b604080518281526020810185905281516001600160a01b0387169233927f2f00e3cdd69a77be7ed215ec7b2a36784dd158f921fca79ac29deffa353fe6ee929081900390910190a350506117116127a3565b600b805460ff19166001179055919050565b600c60209081526000928352604080842090915290825290205481565b6008546001600160a01b031681565b60046020526000908152604090205481565b63ffffffff421690565b60076020526000908152604090205481565b600b5460009060ff166117ca576040805162461bcd60e51b815260206004820152601060248201526f115b195bdcce8814915153951154915160821b604482015290519081900360640190fd5b600b805460ff191690556117dc611cc9565b600854604080516370a0823160e01b815230600482015290516000926001600160a01b0316916370a08231916024808301926020929190829003018186803b15801561182757600080fd5b505afa15801561183b573d6000803e3d6000fd5b505050506040513d602081101561185157600080fd5b5051600a5490915060009061186d90839063ffffffff61254716565b9050600061188361187d87611361565b83612d25565b600b546040805163b2a02ff160e01b81526001600160a01b0389811660048301528a81166024830152604482018590529151939450610100909204169163b2a02ff1916064808201926020929091908290030181600087803b1580156118e857600080fd5b505af11580156118fc573d6000803e3d6000fd5b505050506040513d602081101561191257600080fd5b5051935060008080611925898287612589565b604080518b8152602081018a90528082018590526060810184905260808101839052905193965091945092506001600160a01b03808b1692908c169133917fb0dbe18c6ffdf0da655dd690e77211d379205c497be44c64447c3f5f021b51679181900360a00190a450505050505061199b6127a3565b600b805460ff1916600117905592915050565b601054600160301b900465ffffffffffff1681565b6000610b7d338484612d3b565b600b5460ff16611a1a576040805162461bcd60e51b815260206004820152601060248201526f115b195bdcce8814915153951154915160821b604482015290519081900360640190fd5b600b805460ff19169055611a3f816706f05b59d3b20000670dbd2fc137a3000061293c565b60128190556040805182815290517f7a550b1995ff63260fb313f12024e66e73bad425372e5af6b1e04cb3799ef38c9181900360200190a150600b805460ff19166001179055565b600b5460009060ff16611ad4576040805162461bcd60e51b815260206004820152601060248201526f115b195bdcce8814915153951154915160821b604482015290519081900360640190fd5b600b805460ff1916905530600090815260046020526040902054611b12670de0b6b3a7640000610dad611b05611243565b849063ffffffff61244b16565b915060008211611b69576040805162461bcd60e51b815260206004820152601960248201527f456c656f733a2052454445454d5f414d4f554e545f5a45524f00000000000000604482015290519081900360640190fd5b600a54821115611bbb576040805162461bcd60e51b815260206004820152601860248201527708ad8cadee67440929ca6aa8c8c9286928a9ca8be8682a6960431b604482015290519081900360640190fd5b611bc53082612d9d565b611bcf83836122bf565b604080518381526020810183905281516001600160a01b0386169233927f3f693fff038bb8a046aa76d9516190ac7444f7d69cf952c4cbdc086fdef2d6fc929081900390910190a3506117116127a3565b60018054604080516020600284861615610100026000190190941693909304601f81018490048402820184019092528181529291830182828015610b5f5780601f10610b3457610100808354040283529160200191610b5f565b611caa878787878787877ff6d86ed606f871fa1a557ac0ba607adce07767acf53f492fb215a1a4db4aea6f612e3a565b611cb5878787612d3b565b50505050505050565b66038d7ea4c6800081565b600e546001600160701b0380821691600160701b810490911690600160e01b900463ffffffff166000611cfa611761565b90508063ffffffff168263ffffffff161415611d195750505050611e67565b600e805463ffffffff808416600160e01b026001600160e01b039092169190911790915560105483830391600091611d609165ffffffffffff909116908085169061244b16565b90506000611d80670de0b6b3a7640000610dad848963ffffffff61244b16565b9050611d92868263ffffffff6124ed16565b9550611dc0611db3670de0b6b3a7640000610dad858b63ffffffff61244b16565b889063ffffffff6124ed16565b9650611dcb8761300f565b600e80546001600160701b0319166001600160701b0392909216919091179055611df48661300f565b600e80546001600160701b0392909216600160701b02600160701b600160e01b0319909216919091179055604080518281526020810189905280820188905290517f875352fb3fadeb8c0be7cbbe8ff761b308fa7033470cd0287f02f3436fd76cb99181900360600190a1505050505050505b565b6000610b7d33848461284a565b600e546001600160701b031681565b600a5481565b611ea981611e9883611361565b600e546001600160701b031661305e565b50565b600e54600160e01b900463ffffffff1681565b6103e881565b600b5460ff16611f0f576040805162461bcd60e51b815260206004820152601060248201526f115b195bdcce8814915153951154915160821b604482015290519081900360640190fd5b600b805460ff19169055600a54600854604080516370a0823160e01b81523060048201529051611faf938593611faa9391926001600160a01b03909116916370a08231916024808301926020929190829003018186803b158015611f7257600080fd5b505afa158015611f86573d6000803e3d6000fd5b505050506040513d6020811015611f9c57600080fd5b50519063ffffffff61254716565b6122bf565b50600b805460ff19166001179055565b600f5481565b6009546001600160a01b031681565b6702c68af0bb14000081565b60105465ffffffffffff1681565b61201e878787878787877f6e71edae12b1b97f4d1f60370fef10105fa2faae0126114a169c64845d6126c9612e3a565b611cb5878787612198565b600b5461010090046001600160a01b031681565b600560209081526000928352604080842090915290825290205481565b6312e687c081565b601054600160601b900463ffffffff1681565b600b5460ff166120bf576040805162461bcd60e51b815260206004820152601060248201526f115b195bdcce8814915153951154915160821b604482015290519081900360640190fd5b600b805460ff191690556120dd8160006702c68af0bb14000061293c565b60118190556040805182815290517f9d9cd27245b4e6b06dcf523ac57b6e851b934e199eee376313f906e94bfbfd559181900360200190a150600b805460ff19166001179055565b600b5460ff1661216f576040805162461bcd60e51b815260206004820152601060248201526f115b195bdcce8814915153951154915160821b604482015290519081900360640190fd5b600b805460ff19169055612181611cc9565b6121896127a3565b600b805460ff19166001179055565b6001600160a01b03808416600081815260056020908152604080832094871680845294825291829020859055815185815291517f8c5be1e5ebec7d5bd14f71427d1e84f3dd0314c0f7b2291e5b200ac8c7c3b9259281900390910190a3505050565b6001600160a01b038084166000818152600c6020908152604080832094871680845294909152902054911480159061223457506000198114155b156122b9578181101561228e576040805162461bcd60e51b815260206004820152601960248201527f456c656f733a20424f52524f575f4e4f545f414c4c4f57454400000000000000604482015290519081900360640190fd5b6001600160a01b038085166000908152600c6020908152604080832093871683529290522082820390555b50505050565b600854604080518082018252601981527f7472616e7366657228616464726573732c75696e74323536290000000000000060209182015281516001600160a01b0386811660248301526044808301879052845180840390910181526064909201845291810180516001600160e01b031663a9059cbb60e01b1781529251815160009560609594169382918083835b6020831061236c5780518252601f19909201916020918201910161234d565b6001836020036101000a0380198251168184511680821785525050505050509050019150506000604051808303816000865af19150503d80600081146123ce576040519150601f19603f3d011682016040523d82523d6000602084013e6123d3565b606091505b509150915081801561240157508051158061240157508080602001905160208110156123fe57600080fd5b50515b6122b9576040805162461bcd60e51b8152602060048201526016602482015275115b195bdcce881514905394d1915497d1905253115160521b604482015290519081900360640190fd5b60008261245a57506000610b81565b8282028284828161246757fe5b04146124a45760405162461bcd60e51b815260040180806020018281038252602181526020018061359d6021913960400191505060405180910390fd5b9392505050565b60006124a483836040518060400160405280601a81526020017f536166654d6174683a206469766973696f6e206279207a65726f0000000000008152506130ec565b6000828201838110156124a4576040805162461bcd60e51b815260206004820152601b60248201527f536166654d6174683a206164646974696f6e206f766572666c6f770000000000604482015290519081900360640190fd5b60006124a483836040518060400160405280601f81526020017f536166654d6174683a207375627472616374696f6e20756e646572666c6f77008152506127b3565b600080600061259786611361565b9250838514156125bd575050600e548190600160701b90046001600160701b031661279a565b600e546001600160701b031684861115612684576001600160a01b0387166000908152600d602052604090208587036125fc868263ffffffff6124ed16565b94506126078561300f565b82546001600160701b0319166001600160701b0391821617600160701b600160e01b031916600160701b8583168102919091178455600e5461264d9291900416826124ed565b93506126588461300f565b600e806101000a8154816001600160701b0302191690836001600160701b031602179055505050612784565b6001600160a01b0387166000908152600d602052604090208686038086116126ad5760006126b1565b8086035b94506126bc8561300f565b82546001600160701b0319166001600160701b0391909116178255846126f2578154600160701b600160e01b0319168255612715565b8154600160701b600160e01b031916600160701b6001600160701b038516021782555b6000612727878763ffffffff61254716565b600e54600160701b90046001600160701b03169550905080851161274c576000612750565b8085035b945061275b8561300f565b600e806101000a8154816001600160701b0302191690836001600160701b031602179055505050505b6127988784836001600160701b031661305e565b505b93509350939050565b6127ab613151565b611e67613201565b600081848411156128425760405162461bcd60e51b81526004018080602001828103825283818151815260200191508051906020019080838360005b838110156128075781810151838201526020016127ef565b50505050905090810190601f1680156128345780820380516001836020036101000a031916815260200191505b509250505060405180910390fd5b505050900390565b604080518082018252601881527f456c656f733a205452414e534645525f544f4f5f4849474800000000000000006020808301919091526001600160a01b0386166000908152600490915291909120546128ab91839063ffffffff6127b316565b6001600160a01b0380851660009081526004602052604080822093909355908416815220546128e0908263ffffffff6124ed16565b6001600160a01b0380841660008181526004602090815260409182902094909455805185815290519193928716927fddf252ad1be2c89b69c2b068fc378daa952ba7f163c4a11628f55a4df523b3ef92918290030190a3505050565b6129446129e5565b81831015612992576040805162461bcd60e51b8152602060048201526016602482015275456c656f733a20494e56414c49445f53455454494e4760501b604482015290519081900360640190fd5b808311156129e0576040805162461bcd60e51b8152602060048201526016602482015275456c656f733a20494e56414c49445f53455454494e4760501b604482015290519081900360640190fd5b505050565b600960009054906101000a90046001600160a01b03166001600160a01b031663f851a4406040518163ffffffff1660e01b815260040160206040518083038186803b158015612a3357600080fd5b505afa158015612a47573d6000803e3d6000fd5b505050506040513d6020811015612a5d57600080fd5b50516001600160a01b03163314611e67576040805162461bcd60e51b8152602060048201526013602482015272115b195bdcce8815539055551213d492569151606a1b604482015290519081900360640190fd5b600f5460009080841115612bbd576000612b02612af5670de0b6b3a7640000610dad601154612ae9878b61254790919063ffffffff16565b9063ffffffff61244b16565b869063ffffffff61254716565b90506000612b1e85610de584610dad838b63ffffffff61244b16565b905080612b3057859350505050610b81565b6009546040805163345ef94160e01b815290516000926001600160a01b03169163345ef941916004808301926020929190829003018186803b158015612b7557600080fd5b505afa158015612b89573d6000803e3d6000fd5b505050506040513d6020811015612b9f57600080fd5b50519050612bad8183612c8e565b5050600f8190559150610b819050565b83915050610b81565b8151612bd99060009060208501906134bc565b508051612bed9060019060208401906134bc565b50604051469080605261354b8239604080519182900360520182208651602097880120838301835260018452603160f81b93880193909352815180880191909152808201929092527fc89efdaa54c0f20c7adf612882df0950f5a951637e0307cdcb4c672f298b8bc6606083015260808201939093523060a0808301919091528351808303909101815260c090910190925250805192019190912060065550565b600354612ca1908263ffffffff6124ed16565b6003556001600160a01b038216600090815260046020526040902054612ccd908263ffffffff6124ed16565b6001600160a01b03831660008181526004602090815260408083209490945583518581529351929391927fddf252ad1be2c89b69c2b068fc378daa952ba7f163c4a11628f55a4df523b3ef9281900390910190a35050565b6000818310612d3457816124a4565b5090919050565b6001600160a01b038084166000818152600c6020908152604080832094871680845294825291829020859055815185815291517fc3c1215b41d54142382d54a05fb991007165ae91bcb1879bac8b290d9111aaf49281900390910190a3505050565b6001600160a01b038216600090815260046020526040902054612dc6908263ffffffff61254716565b6001600160a01b038316600090815260046020526040902055600354612df2908263ffffffff61254716565b6003556040805182815290516000916001600160a01b038516917fddf252ad1be2c89b69c2b068fc378daa952ba7f163c4a11628f55a4df523b3ef9181900360200190a35050565b42851015612e80576040805162461bcd60e51b815260206004820152600e60248201526d115b195bdcce881156141254915160921b604482015290519081900360640190fd5b6006546001600160a01b03808a1660008181526007602090815260408083208054600180820190925582518085018a905280840196909652958e166060860152608085018d905260a085019590955260c08085018c90528151808603909101815260e08501825280519083012061190160f01b6101008601526101028501969096526101228085019690965280518085039096018652610142840180825286519683019690962095839052610162840180825286905260ff8a166101828501526101a284018990526101c28401889052519193926101e280820193601f1981019281900390910190855afa158015612f7c573d6000803e3d6000fd5b5050604051601f1901519150506001600160a01b03811615801590612fb25750896001600160a01b0316816001600160a01b0316145b613003576040805162461bcd60e51b815260206004820152601860248201527f456c656f733a20494e56414c49445f5349474e41545552450000000000000000604482015290519081900360640190fd5b50505050505050505050565b6000600160701b821061305a576040805162461bcd60e51b815260206004820152600e60248201526d22b632b7b99d1029a0a32298989960911b604482015290519081900360640190fd5b5090565b6014546001600160a01b03168061307557506129e0565b604080516305285d7f60e01b81526001600160a01b03868116600483015260248201869052604482018590529151918316916305285d7f9160648082019260009290919082900301818387803b1580156130ce57600080fd5b505af11580156130e2573d6000803e3d6000fd5b5050505050505050565b6000818361313b5760405162461bcd60e51b81526020600482018181528351602484015283519092839260449091019190850190808383600083156128075781810151838201526020016127ef565b50600083858161314757fe5b0495945050505050565b600854604080516370a0823160e01b815230600482015290516001600160a01b03909216916370a0823191602480820192602092909190829003018186803b15801561319c57600080fd5b505afa1580156131b0573d6000803e3d6000fd5b505050506040513d60208110156131c657600080fd5b5051600a81905560408051918252517f8a0df8ef054fae2c3d2d19a7b322e864870cc9fd3cb07fb9526309c596244bf49181900360200190a1565b60125460135460105465ffffffffffff80821691600160301b810490911690600160601b900463ffffffff16600081613238611761565b03905063ffffffff8116156133ad5761324f611761565b6010600c6101000a81548163ffffffff021916908363ffffffff1602179055506000838510156132d8576000670de0b6b3a76400008363ffffffff168887898903670de0b6b3a764000002816132a157fe5b040202816132ab57fe5b049050670de0b6b3a764000081116132cd5780670de0b6b3a7640000036132d0565b60005b915050613319565b6000670de0b6b3a76400008363ffffffff168887888a03670de0b6b3a7640000028161330057fe5b0402028161330a57fe5b04670de0b6b3a7640000019150505b670de0b6b3a76400008482020493506407620d070084111561333e576407620d070093505b6312e687c0841015613352576312e687c093505b601080546bffffffffffff0000000000001916600160301b65ffffffffffff8716021790556040805185815290517f713a98ffb7d769b8e33e2ee945ebb6acb7f397532688164d3ce1081f903c77bc916020908290030190a1505b600e54600a54600091600160701b90046001600160701b03169082906133d390836124ed565b905080156133f4578082670de0b6b3a764000002816133ee57fe5b046133f7565b60005b9250505086811161341557868185028161340d57fe5b04945061344f565b600087670de0b6b3a764000003888303670de0b6b3a7640000028161343657fe5b049050670de0b6b3a76400006004820281018602049550505b6010805465ffffffffffff191665ffffffffffff87161790556040805186815290517f338541dc9083f6af6715482fb419e1483c1ae9097764fd68a5dc98109bd5a788916020908290030190a150505050505050565b604080518082019091526000808252602082015290565b828054600181600116156101000203166002900490600052602060002090601f016020900481019282601f106134fd57805160ff191683800117855561352a565b8280016001018555821561352a579182015b8281111561352a57825182559160200191906001019061350f565b5061305a926112c79250905b8082111561305a576000815560010161353656fe454950373132446f6d61696e28737472696e67206e616d652c737472696e672076657273696f6e2c75696e7432353620636861696e49642c6164647265737320766572696679696e67436f6e747261637429536166654d6174683a206d756c7469706c69636174696f6e206f766572666c6f77a265627a7a7231582041f038cbea2ab1dde14d7f1e41720045b2d34df71a76719ba447384907063f0064736f6c63430005100032",
  "linkReferences": {},
  "deployedLinkReferences": {}
}