{
  "_format": "hh-sol-artifact-1",
  "contractName": "CollateralHarness",
  "sourceName": "test/Contracts/CollateralHarness.sol",
  "abi": [
    {
      "anonymous": false,
      "inputs": [
        {
          "indexed": true,
          "internalType": "address",
          "name": "owner",
          "type": "address"
        },
        {
          "indexed": true,
          "internalType": "address",
          "name": "spender",
          "type": "address"
        },
        {
          "indexed": false,
          "internalType": "uint256",
          "name": "value",
          "type": "uint256"
        }
      ],
      "name": "Approval",
      "type": "event"
    },
    {
      "anonymous": false,
      "inputs": [
        {
          "indexed": true,
          "internalType": "address",
          "name": "sender",
          "type": "address"
        },
        {
          "indexed": true,
          "internalType": "address",
          "name": "minter",
          "type": "address"
        },
        {
          "indexed": false,
          "internalType": "uint256",
          "name": "mintAmount",
          "type": "uint256"
        },
        {
          "indexed": false,
          "internalType": "uint256",
          "name": "mintTokens",
          "type": "uint256"
        }
      ],
      "name": "Mint",
      "type": "event"
    },
    {
      "anonymous": false,
      "inputs": [
        {
          "indexed": false,
          "internalType": "uint256",
          "name": "newLiquidationIncentive",
          "type": "uint256"
        }
      ],
      "name": "NewLiquidationIncentive",
      "type": "event"
    },
    {
      "anonymous": false,
      "inputs": [
        {
          "indexed": false,
          "internalType": "uint256",
          "name": "newSafetyMarginSqrt",
          "type": "uint256"
        }
      ],
      "name": "NewSafetyMargin",
      "type": "event"
    },
    {
      "anonymous": false,
      "inputs": [
        {
          "indexed": true,
          "internalType": "address",
          "name": "sender",
          "type": "address"
        },
        {
          "indexed": true,
          "internalType": "address",
          "name": "redeemer",
          "type": "address"
        },
        {
          "indexed": false,
          "internalType": "uint256",
          "name": "redeemAmount",
          "type": "uint256"
        },
        {
          "indexed": false,
          "internalType": "uint256",
          "name": "redeemTokens",
          "type": "uint256"
        }
      ],
      "name": "Redeem",
      "type": "event"
    },
    {
      "anonymous": false,
      "inputs": [
        {
          "indexed": false,
          "internalType": "uint256",
          "name": "totalBalance",
          "type": "uint256"
        }
      ],
      "name": "Sync",
      "type": "event"
    },
    {
      "anonymous": false,
      "inputs": [
        {
          "indexed": true,
          "internalType": "address",
          "name": "from",
          "type": "address"
        },
        {
          "indexed": true,
          "internalType": "address",
          "name": "to",
          "type": "address"
        },
        {
          "indexed": false,
          "internalType": "uint256",
          "name": "value",
          "type": "uint256"
        }
      ],
      "name": "Transfer",
      "type": "event"
    },
    {
      "constant": true,
      "inputs": [],
      "name": "DOMAIN_SEPARATOR",
      "outputs": [
        {
          "internalType": "bytes32",
          "name": "",
          "type": "bytes32"
        }
      ],
      "payable": false,
      "stateMutability": "view",
      "type": "function"
    },
    {
      "constant": true,
      "inputs": [],
      "name": "LIQUIDATION_INCENTIVE_MAX",
      "outputs": [
        {
          "internalType": "uint256",
          "name": "",
          "type": "uint256"
        }
      ],
      "payable": false,
      "stateMutability": "view",
      "type": "function"
    },
    {
      "constant": true,
      "inputs": [],
      "name": "LIQUIDATION_INCENTIVE_MIN",
      "outputs": [
        {
          "internalType": "uint256",
          "name": "",
          "type": "uint256"
        }
      ],
      "payable": false,
      "stateMutability": "view",
      "type": "function"
    },
    {
      "constant": true,
      "inputs": [],
      "name": "MINIMUM_LIQUIDITY",
      "outputs": [
        {
          "internalType": "uint256",
          "name": "",
          "type": "uint256"
        }
      ],
      "payable": false,
      "stateMutability": "view",
      "type": "function"
    },
    {
      "constant": true,
      "inputs": [],
      "name": "PERMIT_TYPEHASH",
      "outputs": [
        {
          "internalType": "bytes32",
          "name": "",
          "type": "bytes32"
        }
      ],
      "payable": false,
      "stateMutability": "view",
      "type": "function"
    },
    {
      "constant": true,
      "inputs": [],
      "name": "SAFETY_MARGIN_SQRT_MAX",
      "outputs": [
        {
          "internalType": "uint256",
          "name": "",
          "type": "uint256"
        }
      ],
      "payable": false,
      "stateMutability": "view",
      "type": "function"
    },
    {
      "constant": true,
      "inputs": [],
      "name": "SAFETY_MARGIN_SQRT_MIN",
      "outputs": [
        {
          "internalType": "uint256",
          "name": "",
          "type": "uint256"
        }
      ],
      "payable": false,
      "stateMutability": "view",
      "type": "function"
    },
    {
      "constant": true,
      "inputs": [],
      "name": "_exchangeRate",
      "outputs": [
        {
          "internalType": "uint256",
          "name": "",
          "type": "uint256"
        }
      ],
      "payable": false,
      "stateMutability": "view",
      "type": "function"
    },
    {
      "constant": false,
      "inputs": [
        {
          "internalType": "string",
          "name": "_name",
          "type": "string"
        },
        {
          "internalType": "string",
          "name": "_symbol",
          "type": "string"
        },
        {
          "internalType": "address",
          "name": "_underlying",
          "type": "address"
        },
        {
          "internalType": "address",
          "name": "_borrowable0",
          "type": "address"
        },
        {
          "internalType": "address",
          "name": "_borrowable1",
          "type": "address"
        }
      ],
      "name": "_initialize",
      "outputs": [],
      "payable": false,
      "stateMutability": "nonpayable",
      "type": "function"
    },
    {
      "constant": true,
      "inputs": [
        {
          "internalType": "address",
          "name": "",
          "type": "address"
        }
      ],
      "name": "_liquidity",
      "outputs": [
        {
          "internalType": "uint256",
          "name": "",
          "type": "uint256"
        }
      ],
      "payable": false,
      "stateMutability": "view",
      "type": "function"
    },
    {
      "constant": true,
      "inputs": [],
      "name": "_price0",
      "outputs": [
        {
          "internalType": "uint256",
          "name": "",
          "type": "uint256"
        }
      ],
      "payable": false,
      "stateMutability": "view",
      "type": "function"
    },
    {
      "constant": true,
      "inputs": [],
      "name": "_price1",
      "outputs": [
        {
          "internalType": "uint256",
          "name": "",
          "type": "uint256"
        }
      ],
      "payable": false,
      "stateMutability": "view",
      "type": "function"
    },
    {
      "constant": false,
      "inputs": [],
      "name": "_setFactory",
      "outputs": [],
      "payable": false,
      "stateMutability": "nonpayable",
      "type": "function"
    },
    {
      "constant": false,
      "inputs": [
        {
          "internalType": "uint256",
          "name": "newLiquidationIncentive",
          "type": "uint256"
        }
      ],
      "name": "_setLiquidationIncentive",
      "outputs": [],
      "payable": false,
      "stateMutability": "nonpayable",
      "type": "function"
    },
    {
      "constant": false,
      "inputs": [
        {
          "internalType": "uint256",
          "name": "newSafetyMarginSqrt",
          "type": "uint256"
        }
      ],
      "name": "_setSafetyMarginSqrt",
      "outputs": [],
      "payable": false,
      "stateMutability": "nonpayable",
      "type": "function"
    },
    {
      "constant": true,
      "inputs": [
        {
          "internalType": "address",
          "name": "",
          "type": "address"
        }
      ],
      "name": "_shortfall",
      "outputs": [
        {
          "internalType": "uint256",
          "name": "",
          "type": "uint256"
        }
      ],
      "payable": false,
      "stateMutability": "view",
      "type": "function"
    },
    {
      "constant": false,
      "inputs": [
        {
          "internalType": "address",
          "name": "borrower",
          "type": "address"
        }
      ],
      "name": "accountLiquidity",
      "outputs": [
        {
          "internalType": "uint256",
          "name": "liquidity",
          "type": "uint256"
        },
        {
          "internalType": "uint256",
          "name": "shortfall",
          "type": "uint256"
        }
      ],
      "payable": false,
      "stateMutability": "nonpayable",
      "type": "function"
    },
    {
      "constant": false,
      "inputs": [
        {
          "internalType": "address",
          "name": "borrower",
          "type": "address"
        },
        {
          "internalType": "uint256",
          "name": "amount0",
          "type": "uint256"
        },
        {
          "internalType": "uint256",
          "name": "amount1",
          "type": "uint256"
        }
      ],
      "name": "accountLiquidityAmounts",
      "outputs": [
        {
          "internalType": "uint256",
          "name": "liquidity",
          "type": "uint256"
        },
        {
          "internalType": "uint256",
          "name": "shortfall",
          "type": "uint256"
        }
      ],
      "payable": false,
      "stateMutability": "nonpayable",
      "type": "function"
    },
    {
      "constant": true,
      "inputs": [
        {
          "internalType": "address",
          "name": "",
          "type": "address"
        },
        {
          "internalType": "address",
          "name": "",
          "type": "address"
        }
      ],
      "name": "allowance",
      "outputs": [
        {
          "internalType": "uint256",
          "name": "",
          "type": "uint256"
        }
      ],
      "payable": false,
      "stateMutability": "view",
      "type": "function"
    },
    {
      "constant": false,
      "inputs": [
        {
          "internalType": "address",
          "name": "spender",
          "type": "address"
        },
        {
          "internalType": "uint256",
          "name": "value",
          "type": "uint256"
        }
      ],
      "name": "approve",
      "outputs": [
        {
          "internalType": "bool",
          "name": "",
          "type": "bool"
        }
      ],
      "payable": false,
      "stateMutability": "nonpayable",
      "type": "function"
    },
    {
      "constant": true,
      "inputs": [
        {
          "internalType": "address",
          "name": "",
          "type": "address"
        }
      ],
      "name": "balanceOf",
      "outputs": [
        {
          "internalType": "uint256",
          "name": "",
          "type": "uint256"
        }
      ],
      "payable": false,
      "stateMutability": "view",
      "type": "function"
    },
    {
      "constant": true,
      "inputs": [],
      "name": "borrowable0",
      "outputs": [
        {
          "internalType": "address",
          "name": "",
          "type": "address"
        }
      ],
      "payable": false,
      "stateMutability": "view",
      "type": "function"
    },
    {
      "constant": true,
      "inputs": [],
      "name": "borrowable1",
      "outputs": [
        {
          "internalType": "address",
          "name": "",
          "type": "address"
        }
      ],
      "payable": false,
      "stateMutability": "view",
      "type": "function"
    },
    {
      "constant": false,
      "inputs": [
        {
          "internalType": "uint256",
          "name": "amountCollateral",
          "type": "uint256"
        },
        {
          "internalType": "uint256",
          "name": "amount0",
          "type": "uint256"
        },
        {
          "internalType": "uint256",
          "name": "amount1",
          "type": "uint256"
        }
      ],
      "name": "calculateLiquidity",
      "outputs": [
        {
          "internalType": "uint256",
          "name": "liquidity",
          "type": "uint256"
        },
        {
          "internalType": "uint256",
          "name": "shortfall",
          "type": "uint256"
        }
      ],
      "payable": false,
      "stateMutability": "nonpayable",
      "type": "function"
    },
    {
      "constant": false,
      "inputs": [
        {
          "internalType": "address",
          "name": "borrower",
          "type": "address"
        },
        {
          "internalType": "address",
          "name": "borrowable",
          "type": "address"
        },
        {
          "internalType": "uint256",
          "name": "amount",
          "type": "uint256"
        }
      ],
      "name": "canBorrow",
      "outputs": [
        {
          "internalType": "bool",
          "name": "",
          "type": "bool"
        }
      ],
      "payable": false,
      "stateMutability": "nonpayable",
      "type": "function"
    },
    {
      "constant": true,
      "inputs": [],
      "name": "decimals",
      "outputs": [
        {
          "internalType": "uint8",
          "name": "",
          "type": "uint8"
        }
      ],
      "payable": false,
      "stateMutability": "view",
      "type": "function"
    },
    {
      "constant": true,
      "inputs": [],
      "name": "eleosPriceOracle",
      "outputs": [
        {
          "internalType": "address",
          "name": "",
          "type": "address"
        }
      ],
      "payable": false,
      "stateMutability": "view",
      "type": "function"
    },
    {
      "constant": false,
      "inputs": [],
      "name": "exchangeRate",
      "outputs": [
        {
          "internalType": "uint256",
          "name": "",
          "type": "uint256"
        }
      ],
      "payable": false,
      "stateMutability": "nonpayable",
      "type": "function"
    },
    {
      "constant": true,
      "inputs": [],
      "name": "factory",
      "outputs": [
        {
          "internalType": "address",
          "name": "",
          "type": "address"
        }
      ],
      "payable": false,
      "stateMutability": "view",
      "type": "function"
    },
    {
      "constant": false,
      "inputs": [
        {
          "internalType": "address",
          "name": "redeemer",
          "type": "address"
        },
        {
          "internalType": "uint256",
          "name": "redeemAmount",
          "type": "uint256"
        },
        {
          "internalType": "bytes",
          "name": "data",
          "type": "bytes"
        }
      ],
      "name": "flashRedeem",
      "outputs": [],
      "payable": false,
      "stateMutability": "nonpayable",
      "type": "function"
    },
    {
      "constant": false,
      "inputs": [],
      "name": "getPrices",
      "outputs": [
        {
          "internalType": "uint256",
          "name": "price0",
          "type": "uint256"
        },
        {
          "internalType": "uint256",
          "name": "price1",
          "type": "uint256"
        }
      ],
      "payable": false,
      "stateMutability": "nonpayable",
      "type": "function"
    },
    {
      "constant": true,
      "inputs": [],
      "name": "liquidationIncentive",
      "outputs": [
        {
          "internalType": "uint256",
          "name": "",
          "type": "uint256"
        }
      ],
      "payable": false,
      "stateMutability": "view",
      "type": "function"
    },
    {
      "constant": true,
      "inputs": [
        {
          "internalType": "address",
          "name": "",
          "type": "address"
        },
        {
          "internalType": "address",
          "name": "",
          "type": "address"
        }
      ],
      "name": "maxBorrowable",
      "outputs": [
        {
          "internalType": "uint256",
          "name": "",
          "type": "uint256"
        }
      ],
      "payable": false,
      "stateMutability": "view",
      "type": "function"
    },
    {
      "constant": false,
      "inputs": [
        {
          "internalType": "address",
          "name": "minter",
          "type": "address"
        }
      ],
      "name": "mint",
      "outputs": [
        {
          "internalType": "uint256",
          "name": "mintTokens",
          "type": "uint256"
        }
      ],
      "payable": false,
      "stateMutability": "nonpayable",
      "type": "function"
    },
    {
      "constant": true,
      "inputs": [],
      "name": "name",
      "outputs": [
        {
          "internalType": "string",
          "name": "",
          "type": "string"
        }
      ],
      "payable": false,
      "stateMutability": "view",
      "type": "function"
    },
    {
      "constant": true,
      "inputs": [
        {
          "internalType": "address",
          "name": "",
          "type": "address"
        }
      ],
      "name": "nonces",
      "outputs": [
        {
          "internalType": "uint256",
          "name": "",
          "type": "uint256"
        }
      ],
      "payable": false,
      "stateMutability": "view",
      "type": "function"
    },
    {
      "constant": false,
      "inputs": [
        {
          "internalType": "address",
          "name": "owner",
          "type": "address"
        },
        {
          "internalType": "address",
          "name": "spender",
          "type": "address"
        },
        {
          "internalType": "uint256",
          "name": "value",
          "type": "uint256"
        },
        {
          "internalType": "uint256",
          "name": "deadline",
          "type": "uint256"
        },
        {
          "internalType": "uint8",
          "name": "v",
          "type": "uint8"
        },
        {
          "internalType": "bytes32",
          "name": "r",
          "type": "bytes32"
        },
        {
          "internalType": "bytes32",
          "name": "s",
          "type": "bytes32"
        }
      ],
      "name": "permit",
      "outputs": [],
      "payable": false,
      "stateMutability": "nonpayable",
      "type": "function"
    },
    {
      "constant": false,
      "inputs": [
        {
          "internalType": "address",
          "name": "redeemer",
          "type": "address"
        }
      ],
      "name": "redeem",
      "outputs": [
        {
          "internalType": "uint256",
          "name": "redeemAmount",
          "type": "uint256"
        }
      ],
      "payable": false,
      "stateMutability": "nonpayable",
      "type": "function"
    },
    {
      "constant": true,
      "inputs": [],
      "name": "safetyMarginSqrt",
      "outputs": [
        {
          "internalType": "uint256",
          "name": "",
          "type": "uint256"
        }
      ],
      "payable": false,
      "stateMutability": "view",
      "type": "function"
    },
    {
      "constant": false,
      "inputs": [
        {
          "internalType": "address",
          "name": "liquidator",
          "type": "address"
        },
        {
          "internalType": "address",
          "name": "borrower",
          "type": "address"
        },
        {
          "internalType": "uint256",
          "name": "repayAmount",
          "type": "uint256"
        }
      ],
      "name": "seize",
      "outputs": [
        {
          "internalType": "uint256",
          "name": "seizeTokens",
          "type": "uint256"
        }
      ],
      "payable": false,
      "stateMutability": "nonpayable",
      "type": "function"
    },
    {
      "constant": false,
      "inputs": [
        {
          "internalType": "address",
          "name": "borrower",
          "type": "address"
        },
        {
          "internalType": "uint256",
          "name": "liquidity",
          "type": "uint256"
        },
        {
          "internalType": "uint256",
          "name": "shortfall",
          "type": "uint256"
        }
      ],
      "name": "setAccountLiquidityHarness",
      "outputs": [],
      "payable": false,
      "stateMutability": "nonpayable",
      "type": "function"
    },
    {
      "constant": false,
      "inputs": [
        {
          "internalType": "address",
          "name": "account",
          "type": "address"
        },
        {
          "internalType": "uint256",
          "name": "balance",
          "type": "uint256"
        }
      ],
      "name": "setBalanceHarness",
      "outputs": [],
      "payable": false,
      "stateMutability": "nonpayable",
      "type": "function"
    },
    {
      "constant": false,
      "inputs": [
        {
          "internalType": "address",
          "name": "_borrowable0",
          "type": "address"
        }
      ],
      "name": "setBorrowable0Harness",
      "outputs": [],
      "payable": false,
      "stateMutability": "nonpayable",
      "type": "function"
    },
    {
      "constant": false,
      "inputs": [
        {
          "internalType": "address",
          "name": "_borrowable1",
          "type": "address"
        }
      ],
      "name": "setBorrowable1Harness",
      "outputs": [],
      "payable": false,
      "stateMutability": "nonpayable",
      "type": "function"
    },
    {
      "constant": false,
      "inputs": [
        {
          "internalType": "uint256",
          "name": "__exchangeRate",
          "type": "uint256"
        }
      ],
      "name": "setExchangeRateHarness",
      "outputs": [],
      "payable": false,
      "stateMutability": "nonpayable",
      "type": "function"
    },
    {
      "constant": false,
      "inputs": [
        {
          "internalType": "address",
          "name": "_factory",
          "type": "address"
        }
      ],
      "name": "setFactoryHarness",
      "outputs": [],
      "payable": false,
      "stateMutability": "nonpayable",
      "type": "function"
    },
    {
      "constant": false,
      "inputs": [
        {
          "internalType": "address",
          "name": "borrower",
          "type": "address"
        },
        {
          "internalType": "address",
          "name": "borrowable",
          "type": "address"
        },
        {
          "internalType": "uint256",
          "name": "maxAmount",
          "type": "uint256"
        }
      ],
      "name": "setMaxBorrowable",
      "outputs": [],
      "payable": false,
      "stateMutability": "nonpayable",
      "type": "function"
    },
    {
      "constant": false,
      "inputs": [
        {
          "internalType": "address",
          "name": "_eleosPriceOracle",
          "type": "address"
        }
      ],
      "name": "setPriceOracle",
      "outputs": [],
      "payable": false,
      "stateMutability": "nonpayable",
      "type": "function"
    },
    {
      "constant": false,
      "inputs": [
        {
          "internalType": "uint256",
          "name": "price0",
          "type": "uint256"
        },
        {
          "internalType": "uint256",
          "name": "price1",
          "type": "uint256"
        }
      ],
      "name": "setPricesHarness",
      "outputs": [],
      "payable": false,
      "stateMutability": "nonpayable",
      "type": "function"
    },
    {
      "constant": false,
      "inputs": [
        {
          "internalType": "uint256",
          "name": "_totalSupply",
          "type": "uint256"
        }
      ],
      "name": "setTotalSupply",
      "outputs": [],
      "payable": false,
      "stateMutability": "nonpayable",
      "type": "function"
    },
    {
      "constant": false,
      "inputs": [
        {
          "internalType": "address",
          "name": "_underlying",
          "type": "address"
        }
      ],
      "name": "setUnderlyingHarness",
      "outputs": [],
      "payable": false,
      "stateMutability": "nonpayable",
      "type": "function"
    },
    {
      "constant": false,
      "inputs": [
        {
          "internalType": "address",
          "name": "to",
          "type": "address"
        }
      ],
      "name": "skim",
      "outputs": [],
      "payable": false,
      "stateMutability": "nonpayable",
      "type": "function"
    },
    {
      "constant": true,
      "inputs": [],
      "name": "symbol",
      "outputs": [
        {
          "internalType": "string",
          "name": "",
          "type": "string"
        }
      ],
      "payable": false,
      "stateMutability": "view",
      "type": "function"
    },
    {
      "constant": false,
      "inputs": [],
      "name": "sync",
      "outputs": [],
      "payable": false,
      "stateMutability": "nonpayable",
      "type": "function"
    },
    {
      "constant": false,
      "inputs": [
        {
          "internalType": "address",
          "name": "from",
          "type": "address"
        },
        {
          "internalType": "uint256",
          "name": "value",
          "type": "uint256"
        }
      ],
      "name": "tokensUnlocked",
      "outputs": [
        {
          "internalType": "bool",
          "name": "",
          "type": "bool"
        }
      ],
      "payable": false,
      "stateMutability": "nonpayable",
      "type": "function"
    },
    {
      "constant": true,
      "inputs": [],
      "name": "totalBalance",
      "outputs": [
        {
          "internalType": "uint256",
          "name": "",
          "type": "uint256"
        }
      ],
      "payable": false,
      "stateMutability": "view",
      "type": "function"
    },
    {
      "constant": true,
      "inputs": [],
      "name": "totalSupply",
      "outputs": [
        {
          "internalType": "uint256",
          "name": "",
          "type": "uint256"
        }
      ],
      "payable": false,
      "stateMutability": "view",
      "type": "function"
    },
    {
      "constant": false,
      "inputs": [
        {
          "internalType": "address",
          "name": "to",
          "type": "address"
        },
        {
          "internalType": "uint256",
          "name": "value",
          "type": "uint256"
        }
      ],
      "name": "transfer",
      "outputs": [
        {
          "internalType": "bool",
          "name": "",
          "type": "bool"
        }
      ],
      "payable": false,
      "stateMutability": "nonpayable",
      "type": "function"
    },
    {
      "constant": false,
      "inputs": [
        {
          "internalType": "address",
          "name": "from",
          "type": "address"
        },
        {
          "internalType": "address",
          "name": "to",
          "type": "address"
        },
        {
          "internalType": "uint256",
          "name": "value",
          "type": "uint256"
        }
      ],
      "name": "transferFrom",
      "outputs": [
        {
          "internalType": "bool",
          "name": "",
          "type": "bool"
        }
      ],
      "payable": false,
      "stateMutability": "nonpayable",
      "type": "function"
    },
    {
      "constant": true,
      "inputs": [],
      "name": "underlying",
      "outputs": [
        {
          "internalType": "address",
          "name": "",
          "type": "address"
        }
      ],
      "payable": false,
      "stateMutability": "view",
      "type": "function"
    },
    {
      "constant": false,
      "inputs": [],
      "name": "unlockTokensTransfer",
      "outputs": [],
      "payable": false,
      "stateMutability": "nonpayable",
      "type": "function"
    },
    {
      "constant": true,
      "inputs": [],
      "name": "useMockCanBorrow",
      "outputs": [
        {
          "internalType": "bool",
          "name": "",
          "type": "bool"
        }
      ],
      "payable": false,
      "stateMutability": "view",
      "type": "function"
    },
    {
      "constant": true,
      "inputs": [],
      "name": "useMockExchangeRate",
      "outputs": [
        {
          "internalType": "bool",
          "name": "",
          "type": "bool"
        }
      ],
      "payable": false,
      "stateMutability": "view",
      "type": "function"
    },
    {
      "constant": true,
      "inputs": [],
      "name": "useMockPrices",
      "outputs": [
        {
          "internalType": "bool",
          "name": "",
          "type": "bool"
        }
      ],
      "payable": false,
      "stateMutability": "view",
      "type": "function"
    },
    {
      "constant": true,
      "inputs": [],
      "name": "useMockTokensUnlocked",
      "outputs": [
        {
          "internalType": "bool",
          "name": "",
          "type": "bool"
        }
      ],
      "payable": false,
      "stateMutability": "view",
      "type": "function"
    },
    {
      "constant": true,
      "inputs": [],
      "name": "useMockaAccountLiquidity",
      "outputs": [
        {
          "internalType": "bool",
          "name": "",
          "type": "bool"
        }
      ],
      "payable": false,
      "stateMutability": "view",
      "type": "function"
    }
  ],
  "bytecode": "0x60806040526002805460ff19908116601217909155600b805490911660011790556715f155637eba0c00600e55670e6ed27d66680000600f5561356e806100476000396000f3fe608060405234801561001057600080fd5b50600436106103e65760003560e01c806395a2251f1161020a578063bd9a548b11610125578063d7b9e056116100b8578063f0a0539511610087578063f0a0539514610bc3578063f3fc0db914610bf1578063f638f54614610c17578063f7ea7a3d14610c49578063fff6cae914610c66576103e6565b8063d7b9e05614610b3b578063daf8881814610b67578063dd62ed3e14610b6f578063e5f8befd14610b9d576103e6565b8063ca936d44116100f4578063ca936d4414610ab7578063d490e7e014610abf578063d505accf14610ac7578063d57509e714610b18576103e6565b8063bd9a548b146109c6578063bf17b4de146109ce578063c45a0155146109d6578063c548e3c5146109de576103e6565b8063afc8276c1161019d578063ba9a7a561161016c578063ba9a7a561461097b578063bb6ff38614610983578063bc25cf77146109a0578063bc9bd12a14610504576103e6565b8063afc8276c146108ff578063b2a02ff114610907578063b64430c91461093d578063b8f65dba14610973576103e6565b80639b4987fb116101d95780639b4987fb1461089d578063a9059cbb146108c3578063ad210a53146108ef578063ad7a672f146108f7576103e6565b806395a2251f1461081c57806395d89b41146108425780639aaa89721461084a5780639aac2c5314610867576103e6565b80633ba0b9a91161030557806367ce50c0116102985780636f307dc3116102675780636f307dc3146107b857806370a08231146107c057806376dca5e9146107e65780637ecebe00146107ee5780638c765e9414610814576103e6565b806367ce50c01461070e5780636a627842146107345780636e01be101461075a5780636f13cb8314610786576103e6565b8063530e784f116102d4578063530e784f14610694578063536b6b1c146106ba5780635a0f03c6146106e05780635f760d8714610706576103e6565b80633ba0b9a91461065f57806342c8d6f7146106675780634a5d316c1461066f5780634fd42e1714610677576103e6565b80631f5393641161037d578063313ce5671161034c578063313ce56714610629578063356c571f146106475780633644e5151461064f5780633a54a2ae14610657576103e6565b80631f539364146105bf57806323b872dd146105c75780632fa5ae1b146105fd57806330adf81f14610621576103e6565b80630fb60fef116103b95780630fb60fef1461050457806318160ddd1461050c578063199067731461051457806319f3400d1461053a576103e6565b806306fdde03146103eb578063087fe37814610468578063095ea7b3146104aa5780630bfc1ac8146104ea575b600080fd5b6103f3610c6e565b6040805160208082528351818301528351919283929083019185019080838360005b8381101561042d578181015183820152602001610415565b50505050905090810190601f16801561045a5780820380516001836020036101000a031916815260200191505b509250505060405180910390f35b6104916004803603606081101561047e57600080fd5b5080359060208101359060400135610cfc565b6040805192835260208301919091528051918290030190f35b6104d6600480360360408110156104c057600080fd5b506001600160a01b038135169060200135610d17565b604080519115158252519081900360200190f35b6104f2610d2e565b60408051918252519081900360200190f35b6104f2610d34565b6104f2610d40565b6104f26004803603602081101561052a57600080fd5b50356001600160a01b0316610d46565b6105bd6004803603606081101561055057600080fd5b6001600160a01b0382351691602081013591810190606081016040820135600160201b81111561057f57600080fd5b82018360208201111561059157600080fd5b803590602001918460018302840111600160201b831117156105b257600080fd5b509092509050610d58565b005b6104d6610faf565b6104d6600480360360608110156105dd57600080fd5b506001600160a01b03813581169160208101359091169060400135610fb8565b610605611088565b604080516001600160a01b039092168252519081900360200190f35b6104f261109c565b6106316110c0565b6040805160ff9092168252519081900360200190f35b6104f26110c9565b6104f26110cf565b6106056110d5565b6104f26110e4565b6105bd611109565b6105bd611118565b6105bd6004803603602081101561068d57600080fd5b503561118a565b6105bd600480360360208110156106aa57600080fd5b50356001600160a01b0316611241565b6105bd600480360360208110156106d057600080fd5b50356001600160a01b0316611263565b610491600480360360208110156106f657600080fd5b50356001600160a01b031661128b565b6104d66112da565b6104f26004803603602081101561072457600080fd5b50356001600160a01b03166112e3565b6104f26004803603602081101561074a57600080fd5b50356001600160a01b03166112f5565b6104d66004803603604081101561077057600080fd5b506001600160a01b0381351690602001356114f3565b6104916004803603606081101561079c57600080fd5b506001600160a01b038135169060208101359060400135611513565b610605611680565b6104f2600480360360208110156107d657600080fd5b50356001600160a01b031661168f565b6104d66116a1565b6104f26004803603602081101561080457600080fd5b50356001600160a01b03166116aa565b6104f26116bc565b6104f26004803603602081101561083257600080fd5b50356001600160a01b03166116c2565b6103f361185b565b6105bd6004803603602081101561086057600080fd5b50356118b5565b6104d66004803603606081101561087d57600080fd5b506001600160a01b038135811691602081013590911690604001356118c7565b6105bd600480360360208110156108b357600080fd5b50356001600160a01b0316611917565b6104d6600480360360408110156108d957600080fd5b506001600160a01b038135169060200135611939565b6104d6611946565b6104f261194f565b6104f2611955565b6104f26004803603606081101561091d57600080fd5b506001600160a01b03813581169160208101359091169060400135611961565b6105bd6004803603606081101561095357600080fd5b506001600160a01b03813581169160208101359091169060400135611b9d565b6104f2611bd6565b6104f2611bdc565b6105bd6004803603602081101561099957600080fd5b5035611be2565b6105bd600480360360208110156109b657600080fd5b50356001600160a01b0316611c99565b610491611d93565b6104f2611dc1565b610605611dc7565b6105bd600480360360a08110156109f457600080fd5b810190602081018135600160201b811115610a0e57600080fd5b820183602082011115610a2057600080fd5b803590602001918460018302840111600160201b83111715610a4157600080fd5b919390929091602081019035600160201b811115610a5e57600080fd5b820183602082011115610a7057600080fd5b803590602001918460018302840111600160201b83111715610a9157600080fd5b91935091506001600160a01b038135811691602081013582169160409091013516611dd6565b6104d6611f77565b6104f2611f80565b6105bd600480360360e0811015610add57600080fd5b506001600160a01b03813581169160208101359091169060408101359060608101359060ff6080820135169060a08101359060c00135611f8c565b6105bd60048036036040811015610b2e57600080fd5b5080359060200135611fd0565b6105bd60048036036040811015610b5157600080fd5b506001600160a01b038135169060200135611fe8565b610605612004565b6104f260048036036040811015610b8557600080fd5b506001600160a01b0381358116916020013516612013565b6105bd60048036036020811015610bb357600080fd5b50356001600160a01b0316612030565b6104f260048036036040811015610bd957600080fd5b506001600160a01b0381358116916020013516612052565b6105bd60048036036020811015610c0757600080fd5b50356001600160a01b031661206f565b6105bd60048036036060811015610c2d57600080fd5b506001600160a01b038135169060208101359060400135612091565b6105bd60048036036020811015610c5f57600080fd5b50356120c6565b6105bd6120cb565b6000805460408051602060026001851615610100026000190190941693909304601f81018490048402820184019092528181529291830182828015610cf45780601f10610cc957610100808354040283529160200191610cf4565b820191906000526020600020905b815481529060010190602001808311610cd757829003601f168201915b505050505081565b600080610d0a858585612136565b915091505b935093915050565b6000610d2433848461222a565b5060015b92915050565b60125481565b670de0b6b3a764000081565b60035481565b60176020526000908152604090205481565b600b5460ff16610da2576040805162461bcd60e51b815260206004820152601060248201526f115b195bdcce8814915153951154915160821b604482015290519081900360640190fd5b600b805460ff19169055600a54831115610dfe576040805162461bcd60e51b815260206004820152601860248201527708ad8cadee67440929ca6aa8c8c9286928a9ca8be8682a6960431b604482015290519081900360640190fd5b610e08848461228c565b8015610eae57604051631a9a0d3560e31b8152336004820181815260248301869052606060448401908152606484018590526001600160a01b0388169363d4d069a893928892889288929190608401848480828437600081840152601f19601f82011690508083019250505095505050505050600060405180830381600087803b158015610e9557600080fd5b505af1158015610ea9573d6000803e3d6000fd5b505050505b3060009081526004602052604081205490610eff6001610ef3610ecf6110e4565b610ee789670de0b6b3a764000063ffffffff61241e16565b9063ffffffff61247716565b9063ffffffff6124b916565b905080821015610f405760405162461bcd60e51b81526004018080602001828103825260218152602001806135196021913960400191505060405180910390fd5b610f4a3083612513565b604080518681526020810184905281516001600160a01b0389169233927f3f693fff038bb8a046aa76d9516190ac7444f7d69cf952c4cbdc086fdef2d6fc929081900390910190a35050610f9c61259e565b5050600b805460ff191660011790555050565b60135460ff1681565b6001600160a01b03831660009081526005602090815260408083203384529091528120546000191461107257604080518082018252601b81527f456c656f733a205452414e534645525f4e4f545f414c4c4f57454400000000006020808301919091526001600160a01b038716600090815260058252838120338252909152919091205461104d91849063ffffffff61264e16565b6001600160a01b03851660009081526005602090815260408083203384529091529020555b61107d8484846126e5565b5060015b9392505050565b600b5461010090046001600160a01b031681565b7f6e71edae12b1b97f4d1f60370fef10105fa2faae0126114a169c64845d6126c981565b60025460ff1681565b600e5481565b60065481565b600d546001600160a01b031681565b60135460009060ff16156110fb5750601454611106565b611103612750565b90505b90565b601a805460ff19166001179055565b6009546001600160a01b031615611176576040805162461bcd60e51b815260206004820152601a60248201527f456c656f733a20464143544f52595f414c52454144595f534554000000000000604482015290519081900360640190fd5b600980546001600160a01b03191633179055565b600b5460ff166111d4576040805162461bcd60e51b815260206004820152601060248201526f115b195bdcce8814915153951154915160821b604482015290519081900360640190fd5b600b805460ff191690556111f981670de0b6b3a7640000670e92596fd629000061279f565b600f8190556040805182815290517f8a9bb9067f9ecb13a322b548e6df3dd1bd10a54698834dac43ed8f0e765bf94d9181900360200190a150600b805460ff19166001179055565b600d80546001600160a01b0319166001600160a01b0392909216919091179055565b600b80546001600160a01b0390921661010002610100600160a81b0319909216919091179055565b601554600090819060ff16156112c75750506001600160a01b0381166000908152601660209081526040808320546017909252909120546112d5565b6112d083612843565b915091505b915091565b60105460ff1681565b60166020526000908152604090205481565b600b5460009060ff16611342576040805162461bcd60e51b815260206004820152601060248201526f115b195bdcce8814915153951154915160821b604482015290519081900360640190fd5b600b805460ff19169055600854604080516370a0823160e01b815230600482015290516000926001600160a01b0316916370a08231916024808301926020929190829003018186803b15801561139757600080fd5b505afa1580156113ab573d6000803e3d6000fd5b505050506040513d60208110156113c157600080fd5b5051600a549091506000906113dd90839063ffffffff61285316565b90506114026113ea6110e4565b610ee783670de0b6b3a764000063ffffffff61241e16565b92506003546000141561143057611421836103e863ffffffff61285316565b925061143060006103e8612895565b60008311611485576040805162461bcd60e51b815260206004820152601760248201527f456c656f733a204d494e545f414d4f554e545f5a45524f000000000000000000604482015290519081900360640190fd5b61148f8484612895565b604080518281526020810185905281516001600160a01b0387169233927f2f00e3cdd69a77be7ed215ec7b2a36784dd158f921fca79ac29deffa353fe6ee929081900390910190a350506114e161259e565b600b805460ff19166001179055919050565b601a5460009060ff161561150957506001610d28565b611081838361291a565b6000806000198414156115a257600b54604080516326b9f4dd60e11b81526001600160a01b038881166004830152915161010090930490911691634d73e9ba91602480820192602092909190829003018186803b15801561157357600080fd5b505afa158015611587573d6000803e3d6000fd5b505050506040513d602081101561159d57600080fd5b505193505b60001983141561162857600c54604080516326b9f4dd60e11b81526001600160a01b03888116600483015291519190921691634d73e9ba916024808301926020929190829003018186803b1580156115f957600080fd5b505afa15801561160d573d6000803e3d6000fd5b505050506040513d602081101561162357600080fd5b505192505b6000611666670de0b6b3a7640000610ee76116416110e4565b6001600160a01b038a166000908152600460205260409020549063ffffffff61241e16565b9050611673818686612136565b9250925050935093915050565b6008546001600160a01b031681565b60046020526000908152604090205481565b601a5460ff1681565b60076020526000908152604090205481565b600f5481565b600b5460009060ff1661170f576040805162461bcd60e51b815260206004820152601060248201526f115b195bdcce8814915153951154915160821b604482015290519081900360640190fd5b600b805460ff191690553060009081526004602052604090205461174d670de0b6b3a7640000610ee76117406110e4565b849063ffffffff61241e16565b9150600082116117a4576040805162461bcd60e51b815260206004820152601960248201527f456c656f733a2052454445454d5f414d4f554e545f5a45524f00000000000000604482015290519081900360640190fd5b600a548211156117f6576040805162461bcd60e51b815260206004820152601860248201527708ad8cadee67440929ca6aa8c8c9286928a9ca8be8682a6960431b604482015290519081900360640190fd5b6118003082612513565b61180a838361228c565b604080518381526020810183905281516001600160a01b0386169233927f3f693fff038bb8a046aa76d9516190ac7444f7d69cf952c4cbdc086fdef2d6fc929081900390910190a3506114e161259e565b60018054604080516020600284861615610100026000190190941693909304601f81018490048402820184019092528181529291830182828015610cf45780601f10610cc957610100808354040283529160200191610cf4565b6013805460ff19166001179055601455565b60185460009060ff161561190457506001600160a01b03808416600090815260196020908152604080832093861683529290522054811115611081565b61190f848484612aa6565b949350505050565b600980546001600160a01b0319166001600160a01b0392909216919091179055565b6000610d243384846126e5565b60185460ff1681565b600a5481565b670e92596fd629000081565b600b5460009061010090046001600160a01b031633148061198c5750600c546001600160a01b031633145b6119d3576040805162461bcd60e51b8152602060048201526013602482015272115b195bdcce8815539055551213d492569151606a1b604482015290519081900360640190fd5b60006119de8461128b565b91505060008111611a36576040805162461bcd60e51b815260206004820152601d60248201527f456c656f733a20494e53554646494349454e545f53484f525446414c4c000000604482015290519081900360640190fd5b600b5460009061010090046001600160a01b0316331415611a6157611a59611d93565b509050611a6d565b611a69611d93565b9150505b611aa9611a786110e4565b610ee783611a9d670de0b6b3a7640000610ee7600f548b61241e90919063ffffffff16565b9063ffffffff61241e16565b9250611b1a836040518060400160405280601b81526020017f456c656f733a204c49515549444154494e475f544f4f5f4d554348000000000081525060046000896001600160a01b03166001600160a01b031681526020019081526020016000205461264e9092919063ffffffff16565b6001600160a01b038087166000908152600460205260408082209390935590881681522054611b4f908463ffffffff6124b916565b6001600160a01b0380881660008181526004602090815260409182902094909455805187815290519193928916926000805160206134f983398151915292918290030190a350509392505050565b6018805460ff191660011790556001600160a01b0392831660009081526019602090815260408083209490951682529290925291902055565b60115481565b6103e881565b600b5460ff16611c2c576040805162461bcd60e51b815260206004820152601060248201526f115b195bdcce8814915153951154915160821b604482015290519081900360640190fd5b600b805460ff19169055611c5181670de0b6b3a76400006715f15565d2c5f00061279f565b600e8190556040805182815290517fdff9a61839be6f6ce5ea77311cc351786a39a9f337c507ff35e7b358fd39c0439181900360200190a150600b805460ff19166001179055565b600b5460ff16611ce3576040805162461bcd60e51b815260206004820152601060248201526f115b195bdcce8814915153951154915160821b604482015290519081900360640190fd5b600b805460ff19169055600a54600854604080516370a0823160e01b81523060048201529051611d83938593611d7e9391926001600160a01b03909116916370a08231916024808301926020929190829003018186803b158015611d4657600080fd5b505afa158015611d5a573d6000803e3d6000fd5b505050506040513d6020811015611d7057600080fd5b50519063ffffffff61285316565b61228c565b50600b805460ff19166001179055565b601054600090819060ff1615611db0575050601154601254611dbd565b611db8612b8f565b915091505b9091565b60145481565b6009546001600160a01b031681565b6009546001600160a01b03163314611e2b576040805162461bcd60e51b8152602060048201526013602482015272115b195bdcce8815539055551213d492569151606a1b604482015290519081900360640190fd5b611e9e87878080601f01602080910402602001604051908101604052809392919081815260200183838082843760009201919091525050604080516020601f8b018190048102820181019092528981529250899150889081908401838280828437600092019190915250612eb492505050565b600880546001600160a01b03199081166001600160a01b0386811691909117909255600b8054610100600160a81b03191661010086851602179055600c805490911683831617905560095460408051631d2a515760e11b815290519190921691633a54a2ae916004808301926020929190829003018186803b158015611f2357600080fd5b505afa158015611f37573d6000803e3d6000fd5b505050506040513d6020811015611f4d57600080fd5b5051600d80546001600160a01b0319166001600160a01b0390921691909117905550505050505050565b60155460ff1681565b6715f15565d2c5f00081565b611fbc878787878787877f6e71edae12b1b97f4d1f60370fef10105fa2faae0126114a169c64845d6126c9612f7c565b611fc787878761222a565b50505050505050565b6010805460ff19166001179055601191909155601255565b6001600160a01b03909116600090815260046020526040902055565b600c546001600160a01b031681565b600560209081526000928352604080842090915290825290205481565b600c80546001600160a01b0319166001600160a01b0392909216919091179055565b601960209081526000928352604080842090915290825290205481565b600880546001600160a01b0319166001600160a01b0392909216919091179055565b6015805460ff191660011790556001600160a01b03909216600090815260166020908152604080832093909355601790522055565b600355565b600b5460ff16612115576040805162461bcd60e51b815260206004820152601060248201526f115b195bdcce8814915153951154915160821b604482015290519081900360640190fd5b600b805460ff1916905561212761259e565b600b805460ff19166001179055565b600e5460009081908180612148611d93565b9092509050600061216b670de0b6b3a7640000610ee78a8663ffffffff61241e16565b9050600061218b670de0b6b3a7640000610ee78a8663ffffffff61241e16565b90508082101561219757905b6121b3670de0b6b3a7640000610ee7848863ffffffff61241e16565b91506121d185610ee783670de0b6b3a764000063ffffffff61241e16565b905060006121fa670de0b6b3a7640000610ee7600f54611a9d86886124b990919063ffffffff16565b9050808b10612216578a03965060009550610d0f945050505050565b600097508a90039550610d0f945050505050565b6001600160a01b03808416600081815260056020908152604080832094871680845294825291829020859055815185815291517f8c5be1e5ebec7d5bd14f71427d1e84f3dd0314c0f7b2291e5b200ac8c7c3b9259281900390910190a3505050565b600854604080518082018252601981527f7472616e7366657228616464726573732c75696e74323536290000000000000060209182015281516001600160a01b0386811660248301526044808301879052845180840390910181526064909201845291810180516001600160e01b031663a9059cbb60e01b1781529251815160009560609594169382918083835b602083106123395780518252601f19909201916020918201910161231a565b6001836020036101000a0380198251168184511680821785525050505050509050019150506000604051808303816000865af19150503d806000811461239b576040519150601f19603f3d011682016040523d82523d6000602084013e6123a0565b606091505b50915091508180156123ce5750805115806123ce57508080602001905160208110156123cb57600080fd5b50515b612418576040805162461bcd60e51b8152602060048201526016602482015275115b195bdcce881514905394d1915497d1905253115160521b604482015290519081900360640190fd5b50505050565b60008261242d57506000610d28565b8282028284828161243a57fe5b04146110815760405162461bcd60e51b81526004018080602001828103825260218152602001806134d86021913960400191505060405180910390fd5b600061108183836040518060400160405280601a81526020017f536166654d6174683a206469766973696f6e206279207a65726f000000000000815250613151565b600082820183811015611081576040805162461bcd60e51b815260206004820152601b60248201527f536166654d6174683a206164646974696f6e206f766572666c6f770000000000604482015290519081900360640190fd5b6001600160a01b03821660009081526004602052604090205461253c908263ffffffff61285316565b6001600160a01b038316600090815260046020526040902055600354612568908263ffffffff61285316565b6003556040805182815290516000916001600160a01b038516916000805160206134f98339815191529181900360200190a35050565b600854604080516370a0823160e01b815230600482015290516001600160a01b03909216916370a0823191602480820192602092909190829003018186803b1580156125e957600080fd5b505afa1580156125fd573d6000803e3d6000fd5b505050506040513d602081101561261357600080fd5b5051600a81905560408051918252517f8a0df8ef054fae2c3d2d19a7b322e864870cc9fd3cb07fb9526309c596244bf49181900360200190a1565b600081848411156126dd5760405162461bcd60e51b81526004018080602001828103825283818151815260200191508051906020019080838360005b838110156126a257818101518382015260200161268a565b50505050905090810190601f1680156126cf5780820380516001836020036101000a031916815260200191505b509250505060405180910390fd5b505050900390565b6126ef83826114f3565b612740576040805162461bcd60e51b815260206004820152601d60248201527f456c656f733a20494e53554646494349454e545f4c4951554944495459000000604482015290519081900360640190fd5b61274b8383836131b6565b505050565b600354600a5460009190811580612765575080155b1561277c57670de0b6b3a764000092505050611106565b61279882610ee783670de0b6b3a764000063ffffffff61241e16565b9250505090565b6127a7613296565b818310156127f5576040805162461bcd60e51b8152602060048201526016602482015275456c656f733a20494e56414c49445f53455454494e4760501b604482015290519081900360640190fd5b8083111561274b576040805162461bcd60e51b8152602060048201526016602482015275456c656f733a20494e56414c49445f53455454494e4760501b604482015290519081900360640190fd5b6000806112d08360001980611513565b600061108183836040518060400160405280601f81526020017f536166654d6174683a207375627472616374696f6e20756e646572666c6f770081525061264e565b6003546128a8908263ffffffff6124b916565b6003556001600160a01b0382166000908152600460205260409020546128d4908263ffffffff6124b916565b6001600160a01b03831660008181526004602090815260408083209490945583518581529351929391926000805160206134f98339815191529281900390910190a35050565b6001600160a01b03821660009081526004602052604081205480831115612945576000915050610d28565b828103600061296e670de0b6b3a7640000610ee76129616110e4565b859063ffffffff61241e16565b90506000600b60019054906101000a90046001600160a01b03166001600160a01b0316634d73e9ba886040518263ffffffff1660e01b815260040180826001600160a01b03166001600160a01b0316815260200191505060206040518083038186803b1580156129dd57600080fd5b505afa1580156129f1573d6000803e3d6000fd5b505050506040513d6020811015612a0757600080fd5b5051600c54604080516326b9f4dd60e11b81526001600160a01b038b8116600483015291519394506000939190921691634d73e9ba916024808301926020929190829003018186803b158015612a5c57600080fd5b505afa158015612a70573d6000803e3d6000fd5b505050506040513d6020811015612a8657600080fd5b505190506000612a97848484612136565b159a9950505050505050505050565b600b54600c546000916001600160a01b036101009091048116918116908516821480612ae35750806001600160a01b0316856001600160a01b0316145b612b34576040805162461bcd60e51b815260206004820152601960248201527f456c656f733a20494e56414c49445f424f52524f5741424c4500000000000000604482015290519081900360640190fd5b6000826001600160a01b0316866001600160a01b031614612b5757600019612b59565b845b90506000826001600160a01b0316876001600160a01b031614612b7e57600019612b80565b855b90506000612a97898484611513565b600d546008546040805163022351bf60e51b81526001600160a01b03928316600482015281516000948594859491169263446a37e0926024808301939282900301818787803b158015612be157600080fd5b505af1158015612bf5573d6000803e3d6000fd5b505050506040513d6040811015612c0b57600080fd5b505160085460408051630240bc6b60e21b8152905192935060009283926001600160a01b031691630902f1ac916004808301926060929190829003018186803b158015612c5757600080fd5b505afa158015612c6b573d6000803e3d6000fd5b505050506040513d6060811015612c8157600080fd5b508051602091820151600854604080516318160ddd60e01b815290519396509194506000936001600160a01b03909116926318160ddd926004808201939291829003018186803b158015612cd457600080fd5b505afa158015612ce8573d6000803e3d6000fd5b505050506040513d6020811015612cfe57600080fd5b505190506000612d2684612d1185613364565b6001600160e01b03169063ffffffff61337616565b90506000612d4f6001600160e01b0380841690610ee7908916600160201b63ffffffff61241e16565b90506000612d6f612d6a83600160201b63ffffffff61241e16565b61339b565b90506000612d9b6001600160701b036002890216610ee787670de0b6b3a764000063ffffffff61241e16565b90506000612dc76001600160701b036002890216610ee788670de0b6b3a764000063ffffffff61241e16565b9050612de1600160201b610ee7848663ffffffff61241e16565b9a50612dfb83610ee783600160201b63ffffffff61241e16565b995060648b11612e52576040805162461bcd60e51b815260206004820152601e60248201527f456c656f733a2050524943455f43414c43554c4154494f4e5f4552524f520000604482015290519081900360640190fd5b60648a11612ea7576040805162461bcd60e51b815260206004820152601e60248201527f456c656f733a2050524943455f43414c43554c4154494f4e5f4552524f520000604482015290519081900360640190fd5b5050505050505050509091565b8151612ec79060009060208501906133ed565b508051612edb9060019060208401906133ed565b5060405146908060526134868239604080519182900360520182208651602097880120838301835260018452603160f81b93880193909352815180880191909152808201929092527fc89efdaa54c0f20c7adf612882df0950f5a951637e0307cdcb4c672f298b8bc6606083015260808201939093523060a0808301919091528351808303909101815260c090910190925250805192019190912060065550565b42851015612fc2576040805162461bcd60e51b815260206004820152600e60248201526d115b195bdcce881156141254915160921b604482015290519081900360640190fd5b6006546001600160a01b03808a1660008181526007602090815260408083208054600180820190925582518085018a905280840196909652958e166060860152608085018d905260a085019590955260c08085018c90528151808603909101815260e08501825280519083012061190160f01b6101008601526101028501969096526101228085019690965280518085039096018652610142840180825286519683019690962095839052610162840180825286905260ff8a166101828501526101a284018990526101c28401889052519193926101e280820193601f1981019281900390910190855afa1580156130be573d6000803e3d6000fd5b5050604051601f1901519150506001600160a01b038116158015906130f45750896001600160a01b0316816001600160a01b0316145b613145576040805162461bcd60e51b815260206004820152601860248201527f456c656f733a20494e56414c49445f5349474e41545552450000000000000000604482015290519081900360640190fd5b50505050505050505050565b600081836131a05760405162461bcd60e51b81526020600482018181528351602484015283519092839260449091019190850190808383600083156126a257818101518382015260200161268a565b5060008385816131ac57fe5b0495945050505050565b604080518082018252601881527f456c656f733a205452414e534645525f544f4f5f4849474800000000000000006020808301919091526001600160a01b03861660009081526004909152919091205461321791839063ffffffff61264e16565b6001600160a01b03808516600090815260046020526040808220939093559084168152205461324c908263ffffffff6124b916565b6001600160a01b0380841660008181526004602090815260409182902094909455805185815290519193928716926000805160206134f983398151915292918290030190a3505050565b600960009054906101000a90046001600160a01b03166001600160a01b031663f851a4406040518163ffffffff1660e01b815260040160206040518083038186803b1580156132e457600080fd5b505afa1580156132f8573d6000803e3d6000fd5b505050506040513d602081101561330e57600080fd5b50516001600160a01b03163314613362576040805162461bcd60e51b8152602060048201526013602482015272115b195bdcce8815539055551213d492569151606a1b604482015290519081900360640190fd5b565b6001600160701b0316600160701b0290565b60006001600160701b0382166001600160e01b0384168161339357fe5b049392505050565b600060038211156133de575080600160028204015b818110156133d8578091506002818285816133c757fe5b0401816133d057fe5b0490506133b0565b506133e8565b81156133e8575060015b919050565b828054600181600116156101000203166002900490600052602060002090601f016020900481019282601f1061342e57805160ff191683800117855561345b565b8280016001018555821561345b579182015b8281111561345b578251825591602001919060010190613440565b5061346792915061346b565b5090565b61110691905b80821115613467576000815560010161347156fe454950373132446f6d61696e28737472696e67206e616d652c737472696e672076657273696f6e2c75696e7432353620636861696e49642c6164647265737320766572696679696e67436f6e747261637429536166654d6174683a206d756c7469706c69636174696f6e206f766572666c6f77ddf252ad1be2c89b69c2b068fc378daa952ba7f163c4a11628f55a4df523b3ef456c656f733a20494e53554646494349454e545f52454445454d5f544f4b454e53a265627a7a72315820c6f62a95ccbc6a03c2fb70ef7a31c35299509225d3f7492d25d0bde07224b36c64736f6c63430005100032",
  "linkReferences": {},
  "deployedLinkReferences": {}
}