{
  "_format": "hh-sol-artifact-1",
  "contractName": "ReentrantCallee",
  "sourceName": "test/Contracts/ReentrantCallee.sol",
  "abi": [
    {
      "inputs": [],
      "payable": false,
      "stateMutability": "nonpayable",
      "type": "constructor"
    },
    {
      "constant": false,
      "inputs": [
        {
          "internalType": "address",
          "name": "sender",
          "type": "address"
        },
        {
          "internalType": "address",
          "name": "borrower",
          "type": "address"
        },
        {
          "internalType": "uint256",
          "name": "borrowAmount",
          "type": "uint256"
        },
        {
          "internalType": "bytes",
          "name": "data",
          "type": "bytes"
        }
      ],
      "name": "eleosBorrow",
      "outputs": [],
      "payable": false,
      "stateMutability": "nonpayable",
      "type": "function"
    },
    {
      "constant": false,
      "inputs": [
        {
          "internalType": "address",
          "name": "sender",
          "type": "address"
        },
        {
          "internalType": "uint256",
          "name": "redeemAmount",
          "type": "uint256"
        },
        {
          "internalType": "bytes",
          "name": "data",
          "type": "bytes"
        }
      ],
      "name": "eleosRedeem",
      "outputs": [],
      "payable": false,
      "stateMutability": "nonpayable",
      "type": "function"
    }
  ],
  "bytecode": "0x608060405234801561001057600080fd5b506107ce806100206000396000f3fe608060405234801561001057600080fd5b50600436106100365760003560e01c8063d4d069a81461003b578063e7027f37146100c2575b600080fd5b6100c06004803603606081101561005157600080fd5b6001600160a01b038235169160208101359181019060608101604082013564010000000081111561008157600080fd5b82018360208201111561009357600080fd5b803590602001918460018302840111640100000000831117156100b557600080fd5b509092509050610152565b005b6100c0600480360360808110156100d857600080fd5b6001600160a01b0382358116926020810135909116916040820135919081019060808101606082013564010000000081111561011357600080fd5b82018360208201111561012557600080fd5b8035906020019184600183028401116401000000008311171561014757600080fd5b509092509050610419565b3060008383602081101561016557600080fd5b50359050806101a4576040805162461bcd60e51b81526020600480830191909152602482015263151154d560e21b604482015290519081900360640190fd5b806001141561022757604080516335313c2160e11b81526001600160a01b038416600482015290513391636a6278429160248083019260209291908290030181600087803b1580156101f557600080fd5b505af1158015610209573d6000803e3d6000fd5b505050506040513d602081101561021f57600080fd5b506104119050565b806002141561027857604080516395a2251f60e01b81526001600160a01b0384166004820152905133916395a2251f9160248083019260209291908290030181600087803b1580156101f557600080fd5b80600314156102e5576040805163bc25cf7760e01b81526001600160a01b03841660048201529051339163bc25cf7791602480830192600092919082900301818387803b1580156102c857600080fd5b505af11580156102dc573d6000803e3d6000fd5b50505050610411565b806004141561032957336001600160a01b031663fff6cae96040518163ffffffff1660e01b8152600401600060405180830381600087803b1580156102c857600080fd5b80600514156104115760408051600080825260208201928390526319f3400d60e01b83526001600160a01b038516602483019081526044830182905260606064840190815283516084850181905233956319f3400d9589959490939092909160a4850191808383895b838110156103aa578181015183820152602001610392565b50505050905090810190601f1680156103d75780820380516001836020036101000a031916815260200191505b50945050505050600060405180830381600087803b1580156103f857600080fd5b505af115801561040c573d6000803e3d6000fd5b505050505b505050505050565b3060008383602081101561042c57600080fd5b503590508061046b576040805162461bcd60e51b81526020600480830191909152602482015263151154d560e21b604482015290519081900360640190fd5b80600114156104ee57604080516335313c2160e11b81526001600160a01b038416600482015290513391636a6278429160248083019260209291908290030181600087803b1580156104bc57600080fd5b505af11580156104d0573d6000803e3d6000fd5b505050506040513d60208110156104e657600080fd5b506107909050565b806002141561053f57604080516395a2251f60e01b81526001600160a01b0384166004820152905133916395a2251f9160248083019260209291908290030181600087803b1580156104bc57600080fd5b80600314156105ac576040805163bc25cf7760e01b81526001600160a01b03841660048201529051339163bc25cf7791602480830192600092919082900301818387803b15801561058f57600080fd5b505af11580156105a3573d6000803e3d6000fd5b50505050610790565b80600414156105f057336001600160a01b031663fff6cae96040518163ffffffff1660e01b8152600401600060405180830381600087803b15801561058f57600080fd5b80600514156106c9576040805160008082526020820192839052631e7dcc0d60e01b83526001600160a01b03851660248301818152604484019190915260648301829052608060848401908152835160a485018190523395631e7dcc0d958995869590949193909260c4850191808383895b8381101561067a578181015183820152602001610662565b50505050905090810190601f1680156106a75780820380516001836020036101000a031916815260200191505b5095505050505050600060405180830381600087803b15801561058f57600080fd5b806006141561072157604080516386b9d81f60e01b81526001600160a01b038416600482018190526024820152905133916386b9d81f9160448083019260209291908290030181600087803b1580156104bc57600080fd5b806007141561079057336001600160a01b0316636f307dc36040518163ffffffff1660e01b815260040160206040518083038186803b15801561076357600080fd5b505afa158015610777573d6000803e3d6000fd5b505050506040513d602081101561078d57600080fd5b50505b5050505050505056fea265627a7a7231582069d966e436dfd8ee7051bfb3a3dac2572e4c0a1b34b70c601fe9c7517f49079b64736f6c63430005100032",
  "linkReferences": {},
  "deployedLinkReferences": {}
}